{
	"CeloSaver.sol": {
		"CeloSaver": {
			"abi": [
				{
					"anonymous": false,
					"inputs": [
						{
							"indexed": true,
							"internalType": "address",
							"name": "user",
							"type": "address"
						},
						{
							"indexed": true,
							"internalType": "uint256",
							"name": "goalId",
							"type": "uint256"
						},
						{
							"indexed": false,
							"internalType": "uint256",
							"name": "amount",
							"type": "uint256"
						},
						{
							"indexed": false,
							"internalType": "uint256",
							"name": "newBalance",
							"type": "uint256"
						}
					],
					"name": "Deposit",
					"type": "event"
				},
				{
					"anonymous": false,
					"inputs": [
						{
							"indexed": true,
							"internalType": "address",
							"name": "user",
							"type": "address"
						},
						{
							"indexed": true,
							"internalType": "uint256",
							"name": "goalId",
							"type": "uint256"
						}
					],
					"name": "GoalClosed",
					"type": "event"
				},
				{
					"anonymous": false,
					"inputs": [
						{
							"indexed": true,
							"internalType": "address",
							"name": "user",
							"type": "address"
						},
						{
							"indexed": true,
							"internalType": "uint256",
							"name": "goalId",
							"type": "uint256"
						},
						{
							"indexed": false,
							"internalType": "uint256",
							"name": "finalAmount",
							"type": "uint256"
						}
					],
					"name": "GoalCompleted",
					"type": "event"
				},
				{
					"anonymous": false,
					"inputs": [
						{
							"indexed": true,
							"internalType": "address",
							"name": "user",
							"type": "address"
						},
						{
							"indexed": true,
							"internalType": "uint256",
							"name": "goalId",
							"type": "uint256"
						},
						{
							"indexed": false,
							"internalType": "string",
							"name": "name",
							"type": "string"
						},
						{
							"indexed": false,
							"internalType": "uint256",
							"name": "targetAmount",
							"type": "uint256"
						},
						{
							"indexed": false,
							"internalType": "uint256",
							"name": "deadline",
							"type": "uint256"
						}
					],
					"name": "GoalCreated",
					"type": "event"
				},
				{
					"anonymous": false,
					"inputs": [
						{
							"indexed": true,
							"internalType": "address",
							"name": "user",
							"type": "address"
						},
						{
							"indexed": true,
							"internalType": "uint256",
							"name": "goalId",
							"type": "uint256"
						},
						{
							"indexed": false,
							"internalType": "uint256",
							"name": "amount",
							"type": "uint256"
						},
						{
							"indexed": false,
							"internalType": "uint256",
							"name": "remainingBalance",
							"type": "uint256"
						}
					],
					"name": "Withdrawal",
					"type": "event"
				},
				{
					"inputs": [
						{
							"internalType": "uint256",
							"name": "_goalId",
							"type": "uint256"
						}
					],
					"name": "closeGoal",
					"outputs": [],
					"stateMutability": "nonpayable",
					"type": "function"
				},
				{
					"inputs": [
						{
							"internalType": "string",
							"name": "_name",
							"type": "string"
						},
						{
							"internalType": "uint256",
							"name": "_targetAmount",
							"type": "uint256"
						},
						{
							"internalType": "uint256",
							"name": "_durationInDays",
							"type": "uint256"
						}
					],
					"name": "createGoal",
					"outputs": [],
					"stateMutability": "nonpayable",
					"type": "function"
				},
				{
					"inputs": [
						{
							"internalType": "uint256",
							"name": "_goalId",
							"type": "uint256"
						}
					],
					"name": "deposit",
					"outputs": [],
					"stateMutability": "payable",
					"type": "function"
				},
				{
					"inputs": [
						{
							"internalType": "address",
							"name": "_user",
							"type": "address"
						},
						{
							"internalType": "uint256",
							"name": "_goalId",
							"type": "uint256"
						}
					],
					"name": "getGoal",
					"outputs": [
						{
							"components": [
								{
									"internalType": "string",
									"name": "name",
									"type": "string"
								},
								{
									"internalType": "uint256",
									"name": "targetAmount",
									"type": "uint256"
								},
								{
									"internalType": "uint256",
									"name": "currentAmount",
									"type": "uint256"
								},
								{
									"internalType": "uint256",
									"name": "deadline",
									"type": "uint256"
								},
								{
									"internalType": "bool",
									"name": "isActive",
									"type": "bool"
								},
								{
									"internalType": "uint256",
									"name": "createdAt",
									"type": "uint256"
								}
							],
							"internalType": "struct CeloSaver.SavingsGoal",
							"name": "",
							"type": "tuple"
						}
					],
					"stateMutability": "view",
					"type": "function"
				},
				{
					"inputs": [
						{
							"internalType": "address",
							"name": "_user",
							"type": "address"
						}
					],
					"name": "getGoalCount",
					"outputs": [
						{
							"internalType": "uint256",
							"name": "",
							"type": "uint256"
						}
					],
					"stateMutability": "view",
					"type": "function"
				},
				{
					"inputs": [
						{
							"internalType": "address",
							"name": "_user",
							"type": "address"
						},
						{
							"internalType": "uint256",
							"name": "_goalId",
							"type": "uint256"
						}
					],
					"name": "getGoalProgress",
					"outputs": [
						{
							"internalType": "uint256",
							"name": "",
							"type": "uint256"
						}
					],
					"stateMutability": "view",
					"type": "function"
				},
				{
					"inputs": [
						{
							"internalType": "address",
							"name": "_user",
							"type": "address"
						}
					],
					"name": "getTotalSavings",
					"outputs": [
						{
							"internalType": "uint256",
							"name": "",
							"type": "uint256"
						}
					],
					"stateMutability": "view",
					"type": "function"
				},
				{
					"inputs": [
						{
							"internalType": "address",
							"name": "_user",
							"type": "address"
						}
					],
					"name": "getUserGoals",
					"outputs": [
						{
							"components": [
								{
									"internalType": "string",
									"name": "name",
									"type": "string"
								},
								{
									"internalType": "uint256",
									"name": "targetAmount",
									"type": "uint256"
								},
								{
									"internalType": "uint256",
									"name": "currentAmount",
									"type": "uint256"
								},
								{
									"internalType": "uint256",
									"name": "deadline",
									"type": "uint256"
								},
								{
									"internalType": "bool",
									"name": "isActive",
									"type": "bool"
								},
								{
									"internalType": "uint256",
									"name": "createdAt",
									"type": "uint256"
								}
							],
							"internalType": "struct CeloSaver.SavingsGoal[]",
							"name": "",
							"type": "tuple[]"
						}
					],
					"stateMutability": "view",
					"type": "function"
				},
				{
					"inputs": [
						{
							"internalType": "address",
							"name": "_user",
							"type": "address"
						},
						{
							"internalType": "uint256",
							"name": "_goalId",
							"type": "uint256"
						}
					],
					"name": "isGoalCompleted",
					"outputs": [
						{
							"internalType": "bool",
							"name": "",
							"type": "bool"
						}
					],
					"stateMutability": "view",
					"type": "function"
				},
				{
					"inputs": [
						{
							"internalType": "address",
							"name": "",
							"type": "address"
						}
					],
					"name": "totalSavings",
					"outputs": [
						{
							"internalType": "uint256",
							"name": "",
							"type": "uint256"
						}
					],
					"stateMutability": "view",
					"type": "function"
				},
				{
					"inputs": [
						{
							"internalType": "address",
							"name": "",
							"type": "address"
						},
						{
							"internalType": "uint256",
							"name": "",
							"type": "uint256"
						}
					],
					"name": "userGoals",
					"outputs": [
						{
							"internalType": "string",
							"name": "name",
							"type": "string"
						},
						{
							"internalType": "uint256",
							"name": "targetAmount",
							"type": "uint256"
						},
						{
							"internalType": "uint256",
							"name": "currentAmount",
							"type": "uint256"
						},
						{
							"internalType": "uint256",
							"name": "deadline",
							"type": "uint256"
						},
						{
							"internalType": "bool",
							"name": "isActive",
							"type": "bool"
						},
						{
							"internalType": "uint256",
							"name": "createdAt",
							"type": "uint256"
						}
					],
					"stateMutability": "view",
					"type": "function"
				},
				{
					"inputs": [
						{
							"internalType": "uint256",
							"name": "_goalId",
							"type": "uint256"
						},
						{
							"internalType": "uint256",
							"name": "_amount",
							"type": "uint256"
						}
					],
					"name": "withdraw",
					"outputs": [],
					"stateMutability": "nonpayable",
					"type": "function"
				}
			],
			"devdoc": {
				"details": "A DeFi-powered savings platform for financial inclusion on Celo",
				"kind": "dev",
				"methods": {
					"closeGoal(uint256)": {
						"details": "Close a savings goal and withdraw all funds",
						"params": {
							"_goalId": "Index of the goal to close"
						}
					},
					"createGoal(string,uint256,uint256)": {
						"details": "Create a new savings goal",
						"params": {
							"_durationInDays": "Duration to achieve the goal",
							"_name": "Name of the savings goal",
							"_targetAmount": "Target amount to save (in wei)"
						}
					},
					"deposit(uint256)": {
						"details": "Deposit funds into a specific savings goal",
						"params": {
							"_goalId": "Index of the goal to deposit into"
						}
					},
					"getGoal(address,uint256)": {
						"details": "Get a specific goal for a user",
						"params": {
							"_goalId": "Index of the goal",
							"_user": "Address of the user"
						},
						"returns": {
							"_0": "The savings goal"
						}
					},
					"getGoalCount(address)": {
						"details": "Get the number of goals for a user",
						"params": {
							"_user": "Address of the user"
						},
						"returns": {
							"_0": "Number of goals"
						}
					},
					"getGoalProgress(address,uint256)": {
						"details": "Get progress percentage for a goal",
						"params": {
							"_goalId": "Index of the goal",
							"_user": "Address of the user"
						},
						"returns": {
							"_0": "Progress percentage (0-100)"
						}
					},
					"getTotalSavings(address)": {
						"details": "Get total savings for a user across all goals",
						"params": {
							"_user": "Address of the user"
						},
						"returns": {
							"_0": "Total savings amount"
						}
					},
					"getUserGoals(address)": {
						"details": "Get all goals for a user",
						"params": {
							"_user": "Address of the user"
						},
						"returns": {
							"_0": "Array of savings goals"
						}
					},
					"isGoalCompleted(address,uint256)": {
						"details": "Check if a goal has reached its target",
						"params": {
							"_goalId": "Index of the goal",
							"_user": "Address of the user"
						},
						"returns": {
							"_0": "True if goal is completed"
						}
					},
					"withdraw(uint256,uint256)": {
						"details": "Withdraw funds from a specific savings goal",
						"params": {
							"_amount": "Amount to withdraw (in wei)",
							"_goalId": "Index of the goal to withdraw from"
						}
					}
				},
				"title": "CeloSaver - Micro-Savings Platform",
				"version": 1
			},
			"evm": {
				"assembly": "    /* \"CeloSaver.sol\":258:7648  contract CeloSaver {... */\n  mstore(0x40, 0x80)\n  callvalue\n  dup1\n  iszero\n  tag_1\n  jumpi\n  0x00\n  dup1\n  revert\ntag_1:\n  pop\n  dataSize(sub_0)\n  dup1\n  dataOffset(sub_0)\n  0x00\n  codecopy\n  0x00\n  return\nstop\n\nsub_0: assembly {\n        /* \"CeloSaver.sol\":258:7648  contract CeloSaver {... */\n      mstore(0x40, 0x80)\n      jumpi(tag_1, lt(calldatasize, 0x04))\n      shr(0xe0, calldataload(0x00))\n      dup1\n      0x5cb65e62\n      gt\n      tag_14\n      jumpi\n      dup1\n      0x5cb65e62\n      eq\n      tag_8\n      jumpi\n      dup1\n      0xb6b3eedf\n      eq\n      tag_9\n      jumpi\n      dup1\n      0xb6b55f25\n      eq\n      tag_10\n      jumpi\n      dup1\n      0xbcfb3c03\n      eq\n      tag_11\n      jumpi\n      dup1\n      0xf462ca93\n      eq\n      tag_12\n      jumpi\n      dup1\n      0xf51b7156\n      eq\n      tag_13\n      jumpi\n      jump(tag_1)\n    tag_14:\n      dup1\n      0x113d2278\n      eq\n      tag_2\n      jumpi\n      dup1\n      0x2134ec27\n      eq\n      tag_3\n      jumpi\n      dup1\n      0x31d6aec1\n      eq\n      tag_4\n      jumpi\n      dup1\n      0x35742c63\n      eq\n      tag_5\n      jumpi\n      dup1\n      0x441a3e70\n      eq\n      tag_6\n      jumpi\n      dup1\n      0x462ba2f7\n      eq\n      tag_7\n      jumpi\n    tag_1:\n      0x00\n      dup1\n      revert\n        /* \"CeloSaver.sol\":1727:2655  function createGoal(... */\n    tag_2:\n      callvalue\n      dup1\n      iszero\n      tag_15\n      jumpi\n      0x00\n      dup1\n      revert\n    tag_15:\n      pop\n      tag_16\n      0x04\n      dup1\n      calldatasize\n      sub\n      dup2\n      add\n      swap1\n      tag_17\n      swap2\n      swap1\n      tag_18\n      jump\t// in\n    tag_17:\n      tag_19\n      jump\t// in\n    tag_16:\n      stop\n        /* \"CeloSaver.sol\":704:751  mapping(address => uint256) public totalSavings */\n    tag_3:\n      callvalue\n      dup1\n      iszero\n      tag_20\n      jumpi\n      0x00\n      dup1\n      revert\n    tag_20:\n      pop\n      tag_21\n      0x04\n      dup1\n      calldatasize\n      sub\n      dup2\n      add\n      swap1\n      tag_22\n      swap2\n      swap1\n      tag_23\n      jump\t// in\n    tag_22:\n      tag_24\n      jump\t// in\n    tag_21:\n      mload(0x40)\n      tag_25\n      swap2\n      swap1\n      tag_26\n      jump\t// in\n    tag_25:\n      mload(0x40)\n      dup1\n      swap2\n      sub\n      swap1\n      return\n        /* \"CeloSaver.sol\":7222:7645  function getGoalProgress(address _user, uint256 _goalId) external view returns (uint256) {... */\n    tag_4:\n      callvalue\n      dup1\n      iszero\n      tag_27\n      jumpi\n      0x00\n      dup1\n      revert\n    tag_27:\n      pop\n      tag_28\n      0x04\n      dup1\n      calldatasize\n      sub\n      dup2\n      add\n      swap1\n      tag_29\n      swap2\n      swap1\n      tag_30\n      jump\t// in\n    tag_29:\n      tag_31\n      jump\t// in\n    tag_28:\n      mload(0x40)\n      tag_32\n      swap2\n      swap1\n      tag_26\n      jump\t// in\n    tag_32:\n      mload(0x40)\n      dup1\n      swap2\n      sub\n      swap1\n      return\n        /* \"CeloSaver.sol\":5446:5570  function getUserGoals(address _user) external view returns (SavingsGoal[] memory) {... */\n    tag_5:\n      callvalue\n      dup1\n      iszero\n      tag_33\n      jumpi\n      0x00\n      dup1\n      revert\n    tag_33:\n      pop\n      tag_34\n      0x04\n      dup1\n      calldatasize\n      sub\n      dup2\n      add\n      swap1\n      tag_35\n      swap2\n      swap1\n      tag_23\n      jump\t// in\n    tag_35:\n      tag_36\n      jump\t// in\n    tag_34:\n      mload(0x40)\n      tag_37\n      swap2\n      swap1\n      tag_38\n      jump\t// in\n    tag_37:\n      mload(0x40)\n      dup1\n      swap2\n      sub\n      swap1\n      return\n        /* \"CeloSaver.sol\":3712:4486  function withdraw(uint256 _goalId, uint256 _amount) external {... */\n    tag_6:\n      callvalue\n      dup1\n      iszero\n      tag_39\n      jumpi\n      0x00\n      dup1\n      revert\n    tag_39:\n      pop\n      tag_40\n      0x04\n      dup1\n      calldatasize\n      sub\n      dup2\n      add\n      swap1\n      tag_41\n      swap2\n      swap1\n      tag_42\n      jump\t// in\n    tag_41:\n      tag_43\n      jump\t// in\n    tag_40:\n      stop\n        /* \"CeloSaver.sol\":6125:6243  function getGoalCount(address _user) external view returns (uint256) {... */\n    tag_7:\n      callvalue\n      dup1\n      iszero\n      tag_44\n      jumpi\n      0x00\n      dup1\n      revert\n    tag_44:\n      pop\n      tag_45\n      0x04\n      dup1\n      calldatasize\n      sub\n      dup2\n      add\n      swap1\n      tag_46\n      swap2\n      swap1\n      tag_23\n      jump\t// in\n    tag_46:\n      tag_47\n      jump\t// in\n    tag_45:\n      mload(0x40)\n      tag_48\n      swap2\n      swap1\n      tag_26\n      jump\t// in\n    tag_48:\n      mload(0x40)\n      dup1\n      swap2\n      sub\n      swap1\n      return\n        /* \"CeloSaver.sol\":6410:6527  function getTotalSavings(address _user) external view returns (uint256) {... */\n    tag_8:\n      callvalue\n      dup1\n      iszero\n      tag_49\n      jumpi\n      0x00\n      dup1\n      revert\n    tag_49:\n      pop\n      tag_50\n      0x04\n      dup1\n      calldatasize\n      sub\n      dup2\n      add\n      swap1\n      tag_51\n      swap2\n      swap1\n      tag_23\n      jump\t// in\n    tag_51:\n      tag_52\n      jump\t// in\n    tag_50:\n      mload(0x40)\n      tag_53\n      swap2\n      swap1\n      tag_26\n      jump\t// in\n    tag_53:\n      mload(0x40)\n      dup1\n      swap2\n      sub\n      swap1\n      return\n        /* \"CeloSaver.sol\":593:643  mapping(address => SavingsGoal[]) public userGoals */\n    tag_9:\n      callvalue\n      dup1\n      iszero\n      tag_54\n      jumpi\n      0x00\n      dup1\n      revert\n    tag_54:\n      pop\n      tag_55\n      0x04\n      dup1\n      calldatasize\n      sub\n      dup2\n      add\n      swap1\n      tag_56\n      swap2\n      swap1\n      tag_30\n      jump\t// in\n    tag_56:\n      tag_57\n      jump\t// in\n    tag_55:\n      mload(0x40)\n      tag_58\n      swap7\n      swap6\n      swap5\n      swap4\n      swap3\n      swap2\n      swap1\n      tag_59\n      jump\t// in\n    tag_58:\n      mload(0x40)\n      dup1\n      swap2\n      sub\n      swap1\n      return\n        /* \"CeloSaver.sol\":2798:3516  function deposit(uint256 _goalId) external payable {... */\n    tag_10:\n      tag_60\n      0x04\n      dup1\n      calldatasize\n      sub\n      dup2\n      add\n      swap1\n      tag_61\n      swap2\n      swap1\n      tag_62\n      jump\t// in\n    tag_61:\n      tag_63\n      jump\t// in\n    tag_60:\n      stop\n        /* \"CeloSaver.sol\":5759:5974  function getGoal(address _user, uint256 _goalId) external view returns (SavingsGoal memory) {... */\n    tag_11:\n      callvalue\n      dup1\n      iszero\n      tag_64\n      jumpi\n      0x00\n      dup1\n      revert\n    tag_64:\n      pop\n      tag_65\n      0x04\n      dup1\n      calldatasize\n      sub\n      dup2\n      add\n      swap1\n      tag_66\n      swap2\n      swap1\n      tag_30\n      jump\t// in\n    tag_66:\n      tag_67\n      jump\t// in\n    tag_65:\n      mload(0x40)\n      tag_68\n      swap2\n      swap1\n      tag_69\n      jump\t// in\n    tag_68:\n      mload(0x40)\n      dup1\n      swap2\n      sub\n      swap1\n      return\n        /* \"CeloSaver.sol\":6733:7018  function isGoalCompleted(address _user, uint256 _goalId) external view returns (bool) {... */\n    tag_12:\n      callvalue\n      dup1\n      iszero\n      tag_70\n      jumpi\n      0x00\n      dup1\n      revert\n    tag_70:\n      pop\n      tag_71\n      0x04\n      dup1\n      calldatasize\n      sub\n      dup2\n      add\n      swap1\n      tag_72\n      swap2\n      swap1\n      tag_30\n      jump\t// in\n    tag_72:\n      tag_73\n      jump\t// in\n    tag_71:\n      mload(0x40)\n      tag_74\n      swap2\n      swap1\n      tag_75\n      jump\t// in\n    tag_74:\n      mload(0x40)\n      dup1\n      swap2\n      sub\n      swap1\n      return\n        /* \"CeloSaver.sol\":4623:5298  function closeGoal(uint256 _goalId) external {... */\n    tag_13:\n      callvalue\n      dup1\n      iszero\n      tag_76\n      jumpi\n      0x00\n      dup1\n      revert\n    tag_76:\n      pop\n      tag_77\n      0x04\n      dup1\n      calldatasize\n      sub\n      dup2\n      add\n      swap1\n      tag_78\n      swap2\n      swap1\n      tag_62\n      jump\t// in\n    tag_78:\n      tag_79\n      jump\t// in\n    tag_77:\n      stop\n        /* \"CeloSaver.sol\":1727:2655  function createGoal(... */\n    tag_19:\n        /* \"CeloSaver.sol\":1894:1895  0 */\n      0x00\n        /* \"CeloSaver.sol\":1878:1891  _targetAmount */\n      dup3\n        /* \"CeloSaver.sol\":1878:1895  _targetAmount > 0 */\n      gt\n        /* \"CeloSaver.sol\":1870:1936  require(_targetAmount > 0, \"Target amount must be greater than 0\") */\n      tag_81\n      jumpi\n      mload(0x40)\n      0x08c379a000000000000000000000000000000000000000000000000000000000\n      dup2\n      mstore\n      0x04\n      add\n      tag_82\n      swap1\n      tag_83\n      jump\t// in\n    tag_82:\n      mload(0x40)\n      dup1\n      swap2\n      sub\n      swap1\n      revert\n    tag_81:\n        /* \"CeloSaver.sol\":1973:1974  0 */\n      0x00\n        /* \"CeloSaver.sol\":1955:1970  _durationInDays */\n      dup2\n        /* \"CeloSaver.sol\":1955:1974  _durationInDays > 0 */\n      gt\n        /* \"CeloSaver.sol\":1947:2010  require(_durationInDays > 0, \"Duration must be greater than 0\") */\n      tag_84\n      jumpi\n      mload(0x40)\n      0x08c379a000000000000000000000000000000000000000000000000000000000\n      dup2\n      mstore\n      0x04\n      add\n      tag_85\n      swap1\n      tag_86\n      jump\t// in\n    tag_85:\n      mload(0x40)\n      dup1\n      swap2\n      sub\n      swap1\n      revert\n    tag_84:\n        /* \"CeloSaver.sol\":2051:2052  0 */\n      0x00\n        /* \"CeloSaver.sol\":2035:2040  _name */\n      dup4\n        /* \"CeloSaver.sol\":2029:2048  bytes(_name).length */\n      mload\n        /* \"CeloSaver.sol\":2029:2052  bytes(_name).length > 0 */\n      gt\n        /* \"CeloSaver.sol\":2021:2082  require(bytes(_name).length > 0, \"Goal name cannot be empty\") */\n      tag_87\n      jumpi\n      mload(0x40)\n      0x08c379a000000000000000000000000000000000000000000000000000000000\n      dup2\n      mstore\n      0x04\n      add\n      tag_88\n      swap1\n      tag_89\n      jump\t// in\n    tag_88:\n      mload(0x40)\n      dup1\n      swap2\n      sub\n      swap1\n      revert\n    tag_87:\n        /* \"CeloSaver.sol\":2103:2119  uint256 deadline */\n      0x00\n        /* \"CeloSaver.sol\":2159:2165  1 days */\n      0x015180\n        /* \"CeloSaver.sol\":2141:2156  _durationInDays */\n      dup3\n        /* \"CeloSaver.sol\":2141:2165  _durationInDays * 1 days */\n      tag_90\n      swap2\n      swap1\n      tag_91\n      jump\t// in\n    tag_90:\n        /* \"CeloSaver.sol\":2122:2137  block.timestamp */\n      timestamp\n        /* \"CeloSaver.sol\":2122:2166  block.timestamp + (_durationInDays * 1 days) */\n      tag_92\n      swap2\n      swap1\n      tag_93\n      jump\t// in\n    tag_92:\n        /* \"CeloSaver.sol\":2103:2166  uint256 deadline = block.timestamp + (_durationInDays * 1 days) */\n      swap1\n      pop\n        /* \"CeloSaver.sol\":2187:2213  SavingsGoal memory newGoal */\n      0x00\n        /* \"CeloSaver.sol\":2216:2442  SavingsGoal({... */\n      mload(0x40)\n      dup1\n      0xc0\n      add\n      0x40\n      mstore\n      dup1\n        /* \"CeloSaver.sol\":2249:2254  _name */\n      dup7\n        /* \"CeloSaver.sol\":2216:2442  SavingsGoal({... */\n      dup2\n      mstore\n      0x20\n      add\n        /* \"CeloSaver.sol\":2283:2296  _targetAmount */\n      dup6\n        /* \"CeloSaver.sol\":2216:2442  SavingsGoal({... */\n      dup2\n      mstore\n      0x20\n      add\n        /* \"CeloSaver.sol\":2326:2327  0 */\n      0x00\n        /* \"CeloSaver.sol\":2216:2442  SavingsGoal({... */\n      dup2\n      mstore\n      0x20\n      add\n        /* \"CeloSaver.sol\":2352:2360  deadline */\n      dup4\n        /* \"CeloSaver.sol\":2216:2442  SavingsGoal({... */\n      dup2\n      mstore\n      0x20\n      add\n        /* \"CeloSaver.sol\":2385:2389  true */\n      0x01\n        /* \"CeloSaver.sol\":2216:2442  SavingsGoal({... */\n      iszero\n      iszero\n      dup2\n      mstore\n      0x20\n      add\n        /* \"CeloSaver.sol\":2415:2430  block.timestamp */\n      timestamp\n        /* \"CeloSaver.sol\":2216:2442  SavingsGoal({... */\n      dup2\n      mstore\n      pop\n        /* \"CeloSaver.sol\":2187:2442  SavingsGoal memory newGoal = SavingsGoal({... */\n      swap1\n      pop\n        /* \"CeloSaver.sol\":2463:2472  userGoals */\n      0x00\n        /* \"CeloSaver.sol\":2463:2484  userGoals[msg.sender] */\n      dup1\n        /* \"CeloSaver.sol\":2473:2483  msg.sender */\n      caller\n        /* \"CeloSaver.sol\":2463:2484  userGoals[msg.sender] */\n      0xffffffffffffffffffffffffffffffffffffffff\n      and\n      0xffffffffffffffffffffffffffffffffffffffff\n      and\n      dup2\n      mstore\n      0x20\n      add\n      swap1\n      dup2\n      mstore\n      0x20\n      add\n      0x00\n      keccak256\n        /* \"CeloSaver.sol\":2490:2497  newGoal */\n      dup2\n        /* \"CeloSaver.sol\":2463:2498  userGoals[msg.sender].push(newGoal) */\n      swap1\n      dup1\n      0x01\n      dup2\n      sload\n      add\n      dup1\n      dup3\n      sstore\n      dup1\n      swap2\n      pop\n      pop\n      0x01\n      swap1\n      sub\n      swap1\n      0x00\n      mstore\n      keccak256(0x00, 0x20)\n      swap1\n      0x06\n      mul\n      add\n      0x00\n      swap1\n      swap2\n      swap1\n      swap2\n      swap1\n      swap2\n      pop\n      0x00\n      dup3\n      add\n      mload\n      dup2\n      0x00\n      add\n      swap1\n      dup2\n      tag_95\n      swap2\n      swap1\n      tag_96\n      jump\t// in\n    tag_95:\n      pop\n      0x20\n      dup3\n      add\n      mload\n      dup2\n      0x01\n      add\n      sstore\n      0x40\n      dup3\n      add\n      mload\n      dup2\n      0x02\n      add\n      sstore\n      0x60\n      dup3\n      add\n      mload\n      dup2\n      0x03\n      add\n      sstore\n      0x80\n      dup3\n      add\n      mload\n      dup2\n      0x04\n      add\n      exp(0x0100, 0x00)\n      dup2\n      sload\n      dup2\n      0xff\n      mul\n      not\n      and\n      swap1\n      dup4\n      iszero\n      iszero\n      mul\n      or\n      swap1\n      sstore\n      pop\n      0xa0\n      dup3\n      add\n      mload\n      dup2\n      0x05\n      add\n      sstore\n      pop\n      pop\n        /* \"CeloSaver.sol\":2509:2523  uint256 goalId */\n      0x00\n        /* \"CeloSaver.sol\":2557:2558  1 */\n      0x01\n        /* \"CeloSaver.sol\":2526:2535  userGoals */\n      0x00\n        /* \"CeloSaver.sol\":2526:2547  userGoals[msg.sender] */\n      dup1\n        /* \"CeloSaver.sol\":2536:2546  msg.sender */\n      caller\n        /* \"CeloSaver.sol\":2526:2547  userGoals[msg.sender] */\n      0xffffffffffffffffffffffffffffffffffffffff\n      and\n      0xffffffffffffffffffffffffffffffffffffffff\n      and\n      dup2\n      mstore\n      0x20\n      add\n      swap1\n      dup2\n      mstore\n      0x20\n      add\n      0x00\n      keccak256\n        /* \"CeloSaver.sol\":2526:2554  userGoals[msg.sender].length */\n      dup1\n      sload\n      swap1\n      pop\n        /* \"CeloSaver.sol\":2526:2558  userGoals[msg.sender].length - 1 */\n      tag_97\n      swap2\n      swap1\n      tag_98\n      jump\t// in\n    tag_97:\n        /* \"CeloSaver.sol\":2509:2558  uint256 goalId = userGoals[msg.sender].length - 1 */\n      swap1\n      pop\n        /* \"CeloSaver.sol\":2608:2614  goalId */\n      dup1\n        /* \"CeloSaver.sol\":2596:2606  msg.sender */\n      caller\n        /* \"CeloSaver.sol\":2584:2647  GoalCreated(msg.sender, goalId, _name, _targetAmount, deadline) */\n      0xffffffffffffffffffffffffffffffffffffffff\n      and\n      0xb7904dbdcb6700a49a6914ea6cbb34cf3ca1ff25f06c6b0ea948b79076a20f45\n        /* \"CeloSaver.sol\":2616:2621  _name */\n      dup9\n        /* \"CeloSaver.sol\":2623:2636  _targetAmount */\n      dup9\n        /* \"CeloSaver.sol\":2638:2646  deadline */\n      dup8\n        /* \"CeloSaver.sol\":2584:2647  GoalCreated(msg.sender, goalId, _name, _targetAmount, deadline) */\n      mload(0x40)\n      tag_99\n      swap4\n      swap3\n      swap2\n      swap1\n      tag_100\n      jump\t// in\n    tag_99:\n      mload(0x40)\n      dup1\n      swap2\n      sub\n      swap1\n      log3\n        /* \"CeloSaver.sol\":1859:2655  {... */\n      pop\n      pop\n      pop\n        /* \"CeloSaver.sol\":1727:2655  function createGoal(... */\n      pop\n      pop\n      pop\n      jump\t// out\n        /* \"CeloSaver.sol\":704:751  mapping(address => uint256) public totalSavings */\n    tag_24:\n      mstore(0x20, 0x01)\n      dup1\n      0x00\n      mstore\n      keccak256(0x00, 0x40)\n      0x00\n      swap2\n      pop\n      swap1\n      pop\n      sload\n      dup2\n      jump\t// out\n        /* \"CeloSaver.sol\":7222:7645  function getGoalProgress(address _user, uint256 _goalId) external view returns (uint256) {... */\n    tag_31:\n        /* \"CeloSaver.sol\":7302:7309  uint256 */\n      0x00\n        /* \"CeloSaver.sol\":7340:7349  userGoals */\n      dup1\n        /* \"CeloSaver.sol\":7340:7356  userGoals[_user] */\n      0x00\n        /* \"CeloSaver.sol\":7350:7355  _user */\n      dup5\n        /* \"CeloSaver.sol\":7340:7356  userGoals[_user] */\n      0xffffffffffffffffffffffffffffffffffffffff\n      and\n      0xffffffffffffffffffffffffffffffffffffffff\n      and\n      dup2\n      mstore\n      0x20\n      add\n      swap1\n      dup2\n      mstore\n      0x20\n      add\n      0x00\n      keccak256\n        /* \"CeloSaver.sol\":7340:7363  userGoals[_user].length */\n      dup1\n      sload\n      swap1\n      pop\n        /* \"CeloSaver.sol\":7330:7337  _goalId */\n      dup3\n        /* \"CeloSaver.sol\":7330:7363  _goalId < userGoals[_user].length */\n      lt\n        /* \"CeloSaver.sol\":7322:7383  require(_goalId < userGoals[_user].length, \"Invalid goal ID\") */\n      tag_102\n      jumpi\n      mload(0x40)\n      0x08c379a000000000000000000000000000000000000000000000000000000000\n      dup2\n      mstore\n      0x04\n      add\n      tag_103\n      swap1\n      tag_104\n      jump\t// in\n    tag_103:\n      mload(0x40)\n      dup1\n      swap2\n      sub\n      swap1\n      revert\n    tag_102:\n        /* \"CeloSaver.sol\":7394:7417  SavingsGoal memory goal */\n      0x00\n        /* \"CeloSaver.sol\":7420:7429  userGoals */\n      dup1\n        /* \"CeloSaver.sol\":7420:7436  userGoals[_user] */\n      0x00\n        /* \"CeloSaver.sol\":7430:7435  _user */\n      dup6\n        /* \"CeloSaver.sol\":7420:7436  userGoals[_user] */\n      0xffffffffffffffffffffffffffffffffffffffff\n      and\n      0xffffffffffffffffffffffffffffffffffffffff\n      and\n      dup2\n      mstore\n      0x20\n      add\n      swap1\n      dup2\n      mstore\n      0x20\n      add\n      0x00\n      keccak256\n        /* \"CeloSaver.sol\":7437:7444  _goalId */\n      dup4\n        /* \"CeloSaver.sol\":7420:7445  userGoals[_user][_goalId] */\n      dup2\n      sload\n      dup2\n      lt\n      tag_105\n      jumpi\n      tag_106\n      tag_107\n      jump\t// in\n    tag_106:\n    tag_105:\n      swap1\n      0x00\n      mstore\n      keccak256(0x00, 0x20)\n      swap1\n      0x06\n      mul\n      add\n        /* \"CeloSaver.sol\":7394:7445  SavingsGoal memory goal = userGoals[_user][_goalId] */\n      mload(0x40)\n      dup1\n      0xc0\n      add\n      0x40\n      mstore\n      swap1\n      dup2\n      0x00\n      dup3\n      add\n      dup1\n      sload\n      tag_109\n      swap1\n      tag_110\n      jump\t// in\n    tag_109:\n      dup1\n      0x1f\n      add\n      0x20\n      dup1\n      swap2\n      div\n      mul\n      0x20\n      add\n      mload(0x40)\n      swap1\n      dup2\n      add\n      0x40\n      mstore\n      dup1\n      swap3\n      swap2\n      swap1\n      dup2\n      dup2\n      mstore\n      0x20\n      add\n      dup3\n      dup1\n      sload\n      tag_111\n      swap1\n      tag_110\n      jump\t// in\n    tag_111:\n      dup1\n      iszero\n      tag_112\n      jumpi\n      dup1\n      0x1f\n      lt\n      tag_113\n      jumpi\n      0x0100\n      dup1\n      dup4\n      sload\n      div\n      mul\n      dup4\n      mstore\n      swap2\n      0x20\n      add\n      swap2\n      jump(tag_112)\n    tag_113:\n      dup3\n      add\n      swap2\n      swap1\n      0x00\n      mstore\n      keccak256(0x00, 0x20)\n      swap1\n    tag_114:\n      dup2\n      sload\n      dup2\n      mstore\n      swap1\n      0x01\n      add\n      swap1\n      0x20\n      add\n      dup1\n      dup4\n      gt\n      tag_114\n      jumpi\n      dup3\n      swap1\n      sub\n      0x1f\n      and\n      dup3\n      add\n      swap2\n    tag_112:\n      pop\n      pop\n      pop\n      pop\n      pop\n      dup2\n      mstore\n      0x20\n      add\n      0x01\n      dup3\n      add\n      sload\n      dup2\n      mstore\n      0x20\n      add\n      0x02\n      dup3\n      add\n      sload\n      dup2\n      mstore\n      0x20\n      add\n      0x03\n      dup3\n      add\n      sload\n      dup2\n      mstore\n      0x20\n      add\n      0x04\n      dup3\n      add\n      0x00\n      swap1\n      sload\n      swap1\n      0x0100\n      exp\n      swap1\n      div\n      0xff\n      and\n      iszero\n      iszero\n      iszero\n      iszero\n      dup2\n      mstore\n      0x20\n      add\n      0x05\n      dup3\n      add\n      sload\n      dup2\n      mstore\n      pop\n      pop\n      swap1\n      pop\n        /* \"CeloSaver.sol\":7491:7492  0 */\n      0x00\n        /* \"CeloSaver.sol\":7470:7474  goal */\n      dup2\n        /* \"CeloSaver.sol\":7470:7487  goal.targetAmount */\n      0x20\n      add\n      mload\n        /* \"CeloSaver.sol\":7470:7492  goal.targetAmount == 0 */\n      sub\n        /* \"CeloSaver.sol\":7466:7502  if (goal.targetAmount == 0) return 0 */\n      tag_115\n      jumpi\n        /* \"CeloSaver.sol\":7501:7502  0 */\n      0x00\n        /* \"CeloSaver.sol\":7494:7502  return 0 */\n      swap2\n      pop\n      pop\n      jump(tag_101)\n        /* \"CeloSaver.sol\":7466:7502  if (goal.targetAmount == 0) return 0 */\n    tag_115:\n        /* \"CeloSaver.sol\":7523:7539  uint256 progress */\n      0x00\n        /* \"CeloSaver.sol\":7571:7575  goal */\n      dup2\n        /* \"CeloSaver.sol\":7571:7588  goal.targetAmount */\n      0x20\n      add\n      mload\n        /* \"CeloSaver.sol\":7564:7567  100 */\n      0x64\n        /* \"CeloSaver.sol\":7543:7547  goal */\n      dup4\n        /* \"CeloSaver.sol\":7543:7561  goal.currentAmount */\n      0x40\n      add\n      mload\n        /* \"CeloSaver.sol\":7543:7567  goal.currentAmount * 100 */\n      tag_116\n      swap2\n      swap1\n      tag_91\n      jump\t// in\n    tag_116:\n        /* \"CeloSaver.sol\":7542:7588  (goal.currentAmount * 100) / goal.targetAmount */\n      tag_117\n      swap2\n      swap1\n      tag_118\n      jump\t// in\n    tag_117:\n        /* \"CeloSaver.sol\":7523:7588  uint256 progress = (goal.currentAmount * 100) / goal.targetAmount */\n      swap1\n      pop\n        /* \"CeloSaver.sol\":7617:7620  100 */\n      0x64\n        /* \"CeloSaver.sol\":7606:7614  progress */\n      dup2\n        /* \"CeloSaver.sol\":7606:7620  progress > 100 */\n      gt\n        /* \"CeloSaver.sol\":7606:7637  progress > 100 ? 100 : progress */\n      tag_119\n      jumpi\n        /* \"CeloSaver.sol\":7629:7637  progress */\n      dup1\n        /* \"CeloSaver.sol\":7606:7637  progress > 100 ? 100 : progress */\n      jump(tag_120)\n    tag_119:\n        /* \"CeloSaver.sol\":7623:7626  100 */\n      0x64\n        /* \"CeloSaver.sol\":7606:7637  progress > 100 ? 100 : progress */\n    tag_120:\n        /* \"CeloSaver.sol\":7599:7637  return progress > 100 ? 100 : progress */\n      swap3\n      pop\n      pop\n      pop\n        /* \"CeloSaver.sol\":7222:7645  function getGoalProgress(address _user, uint256 _goalId) external view returns (uint256) {... */\n    tag_101:\n      swap3\n      swap2\n      pop\n      pop\n      jump\t// out\n        /* \"CeloSaver.sol\":5446:5570  function getUserGoals(address _user) external view returns (SavingsGoal[] memory) {... */\n    tag_36:\n        /* \"CeloSaver.sol\":5506:5526  SavingsGoal[] memory */\n      0x60\n        /* \"CeloSaver.sol\":5546:5555  userGoals */\n      0x00\n        /* \"CeloSaver.sol\":5546:5562  userGoals[_user] */\n      dup1\n        /* \"CeloSaver.sol\":5556:5561  _user */\n      dup4\n        /* \"CeloSaver.sol\":5546:5562  userGoals[_user] */\n      0xffffffffffffffffffffffffffffffffffffffff\n      and\n      0xffffffffffffffffffffffffffffffffffffffff\n      and\n      dup2\n      mstore\n      0x20\n      add\n      swap1\n      dup2\n      mstore\n      0x20\n      add\n      0x00\n      keccak256\n        /* \"CeloSaver.sol\":5539:5562  return userGoals[_user] */\n      dup1\n      sload\n      dup1\n      0x20\n      mul\n      0x20\n      add\n      mload(0x40)\n      swap1\n      dup2\n      add\n      0x40\n      mstore\n      dup1\n      swap3\n      swap2\n      swap1\n      dup2\n      dup2\n      mstore\n      0x20\n      add\n      0x00\n      swap1\n    tag_122:\n      dup3\n      dup3\n      lt\n      iszero\n      tag_123\n      jumpi\n      dup4\n      dup3\n      swap1\n      0x00\n      mstore\n      keccak256(0x00, 0x20)\n      swap1\n      0x06\n      mul\n      add\n      mload(0x40)\n      dup1\n      0xc0\n      add\n      0x40\n      mstore\n      swap1\n      dup2\n      0x00\n      dup3\n      add\n      dup1\n      sload\n      tag_125\n      swap1\n      tag_110\n      jump\t// in\n    tag_125:\n      dup1\n      0x1f\n      add\n      0x20\n      dup1\n      swap2\n      div\n      mul\n      0x20\n      add\n      mload(0x40)\n      swap1\n      dup2\n      add\n      0x40\n      mstore\n      dup1\n      swap3\n      swap2\n      swap1\n      dup2\n      dup2\n      mstore\n      0x20\n      add\n      dup3\n      dup1\n      sload\n      tag_126\n      swap1\n      tag_110\n      jump\t// in\n    tag_126:\n      dup1\n      iszero\n      tag_127\n      jumpi\n      dup1\n      0x1f\n      lt\n      tag_128\n      jumpi\n      0x0100\n      dup1\n      dup4\n      sload\n      div\n      mul\n      dup4\n      mstore\n      swap2\n      0x20\n      add\n      swap2\n      jump(tag_127)\n    tag_128:\n      dup3\n      add\n      swap2\n      swap1\n      0x00\n      mstore\n      keccak256(0x00, 0x20)\n      swap1\n    tag_129:\n      dup2\n      sload\n      dup2\n      mstore\n      swap1\n      0x01\n      add\n      swap1\n      0x20\n      add\n      dup1\n      dup4\n      gt\n      tag_129\n      jumpi\n      dup3\n      swap1\n      sub\n      0x1f\n      and\n      dup3\n      add\n      swap2\n    tag_127:\n      pop\n      pop\n      pop\n      pop\n      pop\n      dup2\n      mstore\n      0x20\n      add\n      0x01\n      dup3\n      add\n      sload\n      dup2\n      mstore\n      0x20\n      add\n      0x02\n      dup3\n      add\n      sload\n      dup2\n      mstore\n      0x20\n      add\n      0x03\n      dup3\n      add\n      sload\n      dup2\n      mstore\n      0x20\n      add\n      0x04\n      dup3\n      add\n      0x00\n      swap1\n      sload\n      swap1\n      0x0100\n      exp\n      swap1\n      div\n      0xff\n      and\n      iszero\n      iszero\n      iszero\n      iszero\n      dup2\n      mstore\n      0x20\n      add\n      0x05\n      dup3\n      add\n      sload\n      dup2\n      mstore\n      pop\n      pop\n      dup2\n      mstore\n      0x20\n      add\n      swap1\n      0x01\n      add\n      swap1\n      jump(tag_122)\n    tag_123:\n      pop\n      pop\n      pop\n      pop\n      swap1\n      pop\n        /* \"CeloSaver.sol\":5446:5570  function getUserGoals(address _user) external view returns (SavingsGoal[] memory) {... */\n      swap2\n      swap1\n      pop\n      jump\t// out\n        /* \"CeloSaver.sol\":3712:4486  function withdraw(uint256 _goalId, uint256 _amount) external {... */\n    tag_43:\n        /* \"CeloSaver.sol\":3802:3811  userGoals */\n      0x00\n        /* \"CeloSaver.sol\":3802:3823  userGoals[msg.sender] */\n      dup1\n        /* \"CeloSaver.sol\":3812:3822  msg.sender */\n      caller\n        /* \"CeloSaver.sol\":3802:3823  userGoals[msg.sender] */\n      0xffffffffffffffffffffffffffffffffffffffff\n      and\n      0xffffffffffffffffffffffffffffffffffffffff\n      and\n      dup2\n      mstore\n      0x20\n      add\n      swap1\n      dup2\n      mstore\n      0x20\n      add\n      0x00\n      keccak256\n        /* \"CeloSaver.sol\":3802:3830  userGoals[msg.sender].length */\n      dup1\n      sload\n      swap1\n      pop\n        /* \"CeloSaver.sol\":3792:3799  _goalId */\n      dup3\n        /* \"CeloSaver.sol\":3792:3830  _goalId < userGoals[msg.sender].length */\n      lt\n        /* \"CeloSaver.sol\":3784:3850  require(_goalId < userGoals[msg.sender].length, \"Invalid goal ID\") */\n      tag_131\n      jumpi\n      mload(0x40)\n      0x08c379a000000000000000000000000000000000000000000000000000000000\n      dup2\n      mstore\n      0x04\n      add\n      tag_132\n      swap1\n      tag_104\n      jump\t// in\n    tag_132:\n      mload(0x40)\n      dup1\n      swap2\n      sub\n      swap1\n      revert\n    tag_131:\n        /* \"CeloSaver.sol\":3879:3880  0 */\n      0x00\n        /* \"CeloSaver.sol\":3869:3876  _amount */\n      dup2\n        /* \"CeloSaver.sol\":3869:3880  _amount > 0 */\n      gt\n        /* \"CeloSaver.sol\":3861:3925  require(_amount > 0, \"Withdrawal amount must be greater than 0\") */\n      tag_133\n      jumpi\n      mload(0x40)\n      0x08c379a000000000000000000000000000000000000000000000000000000000\n      dup2\n      mstore\n      0x04\n      add\n      tag_134\n      swap1\n      tag_135\n      jump\t// in\n    tag_134:\n      mload(0x40)\n      dup1\n      swap2\n      sub\n      swap1\n      revert\n    tag_133:\n        /* \"CeloSaver.sol\":3946:3970  SavingsGoal storage goal */\n      0x00\n        /* \"CeloSaver.sol\":3973:3982  userGoals */\n      dup1\n        /* \"CeloSaver.sol\":3973:3994  userGoals[msg.sender] */\n      0x00\n        /* \"CeloSaver.sol\":3983:3993  msg.sender */\n      caller\n        /* \"CeloSaver.sol\":3973:3994  userGoals[msg.sender] */\n      0xffffffffffffffffffffffffffffffffffffffff\n      and\n      0xffffffffffffffffffffffffffffffffffffffff\n      and\n      dup2\n      mstore\n      0x20\n      add\n      swap1\n      dup2\n      mstore\n      0x20\n      add\n      0x00\n      keccak256\n        /* \"CeloSaver.sol\":3995:4002  _goalId */\n      dup4\n        /* \"CeloSaver.sol\":3973:4003  userGoals[msg.sender][_goalId] */\n      dup2\n      sload\n      dup2\n      lt\n      tag_136\n      jumpi\n      tag_137\n      tag_107\n      jump\t// in\n    tag_137:\n    tag_136:\n      swap1\n      0x00\n      mstore\n      keccak256(0x00, 0x20)\n      swap1\n      0x06\n      mul\n      add\n        /* \"CeloSaver.sol\":3946:4003  SavingsGoal storage goal = userGoals[msg.sender][_goalId] */\n      swap1\n      pop\n        /* \"CeloSaver.sol\":4022:4026  goal */\n      dup1\n        /* \"CeloSaver.sol\":4022:4035  goal.isActive */\n      0x04\n      add\n      0x00\n      swap1\n      sload\n      swap1\n      0x0100\n      exp\n      swap1\n      div\n      0xff\n      and\n        /* \"CeloSaver.sol\":4014:4058  require(goal.isActive, \"Goal is not active\") */\n      tag_139\n      jumpi\n      mload(0x40)\n      0x08c379a000000000000000000000000000000000000000000000000000000000\n      dup2\n      mstore\n      0x04\n      add\n      tag_140\n      swap1\n      tag_141\n      jump\t// in\n    tag_140:\n      mload(0x40)\n      dup1\n      swap2\n      sub\n      swap1\n      revert\n    tag_139:\n        /* \"CeloSaver.sol\":4099:4106  _amount */\n      dup2\n        /* \"CeloSaver.sol\":4077:4081  goal */\n      dup2\n        /* \"CeloSaver.sol\":4077:4095  goal.currentAmount */\n      0x02\n      add\n      sload\n        /* \"CeloSaver.sol\":4077:4106  goal.currentAmount >= _amount */\n      lt\n      iszero\n        /* \"CeloSaver.sol\":4069:4131  require(goal.currentAmount >= _amount, \"Insufficient balance\") */\n      tag_142\n      jumpi\n      mload(0x40)\n      0x08c379a000000000000000000000000000000000000000000000000000000000\n      dup2\n      mstore\n      0x04\n      add\n      tag_143\n      swap1\n      tag_144\n      jump\t// in\n    tag_143:\n      mload(0x40)\n      dup1\n      swap2\n      sub\n      swap1\n      revert\n    tag_142:\n        /* \"CeloSaver.sol\":4174:4181  _amount */\n      dup2\n        /* \"CeloSaver.sol\":4152:4156  goal */\n      dup2\n        /* \"CeloSaver.sol\":4152:4170  goal.currentAmount */\n      0x02\n      add\n      0x00\n        /* \"CeloSaver.sol\":4152:4181  goal.currentAmount -= _amount */\n      dup3\n      dup3\n      sload\n      tag_145\n      swap2\n      swap1\n      tag_98\n      jump\t// in\n    tag_145:\n      swap3\n      pop\n      pop\n      dup2\n      swap1\n      sstore\n      pop\n        /* \"CeloSaver.sol\":4220:4227  _amount */\n      dup2\n        /* \"CeloSaver.sol\":4192:4204  totalSavings */\n      0x01\n        /* \"CeloSaver.sol\":4192:4216  totalSavings[msg.sender] */\n      0x00\n        /* \"CeloSaver.sol\":4205:4215  msg.sender */\n      caller\n        /* \"CeloSaver.sol\":4192:4216  totalSavings[msg.sender] */\n      0xffffffffffffffffffffffffffffffffffffffff\n      and\n      0xffffffffffffffffffffffffffffffffffffffff\n      and\n      dup2\n      mstore\n      0x20\n      add\n      swap1\n      dup2\n      mstore\n      0x20\n      add\n      0x00\n      keccak256\n      0x00\n        /* \"CeloSaver.sol\":4192:4227  totalSavings[msg.sender] -= _amount */\n      dup3\n      dup3\n      sload\n      tag_146\n      swap2\n      swap1\n      tag_98\n      jump\t// in\n    tag_146:\n      swap3\n      pop\n      pop\n      dup2\n      swap1\n      sstore\n      pop\n        /* \"CeloSaver.sol\":4284:4296  bool success */\n      0x00\n        /* \"CeloSaver.sol\":4310:4320  msg.sender */\n      caller\n        /* \"CeloSaver.sol\":4302:4326  payable(msg.sender).call */\n      0xffffffffffffffffffffffffffffffffffffffff\n      and\n        /* \"CeloSaver.sol\":4334:4341  _amount */\n      dup4\n        /* \"CeloSaver.sol\":4302:4346  payable(msg.sender).call{value: _amount}(\"\") */\n      mload(0x40)\n      tag_147\n      swap1\n      tag_148\n      jump\t// in\n    tag_147:\n      0x00\n      mload(0x40)\n      dup1\n      dup4\n      sub\n      dup2\n      dup6\n      dup8\n      gas\n      call\n      swap3\n      pop\n      pop\n      pop\n      returndatasize\n      dup1\n      0x00\n      dup2\n      eq\n      tag_151\n      jumpi\n      mload(0x40)\n      swap2\n      pop\n      and(add(returndatasize, 0x3f), not(0x1f))\n      dup3\n      add\n      0x40\n      mstore\n      returndatasize\n      dup3\n      mstore\n      returndatasize\n      0x00\n      0x20\n      dup5\n      add\n      returndatacopy\n      jump(tag_150)\n    tag_151:\n      0x60\n      swap2\n      pop\n    tag_150:\n      pop\n        /* \"CeloSaver.sol\":4283:4346  (bool success, ) = payable(msg.sender).call{value: _amount}(\"\") */\n      pop\n      swap1\n      pop\n        /* \"CeloSaver.sol\":4365:4372  success */\n      dup1\n        /* \"CeloSaver.sol\":4357:4392  require(success, \"Transfer failed\") */\n      tag_152\n      jumpi\n      mload(0x40)\n      0x08c379a000000000000000000000000000000000000000000000000000000000\n      dup2\n      mstore\n      0x04\n      add\n      tag_153\n      swap1\n      tag_154\n      jump\t// in\n    tag_153:\n      mload(0x40)\n      dup1\n      swap2\n      sub\n      swap1\n      revert\n    tag_152:\n        /* \"CeloSaver.sol\":4441:4448  _goalId */\n      dup4\n        /* \"CeloSaver.sol\":4429:4439  msg.sender */\n      caller\n        /* \"CeloSaver.sol\":4418:4478  Withdrawal(msg.sender, _goalId, _amount, goal.currentAmount) */\n      0xffffffffffffffffffffffffffffffffffffffff\n      and\n      0x650fdf669e93aa6c8ff3defe2da9c12b64f1548e5e1e54e803f4c1beb6466c8e\n        /* \"CeloSaver.sol\":4450:4457  _amount */\n      dup6\n        /* \"CeloSaver.sol\":4459:4463  goal */\n      dup6\n        /* \"CeloSaver.sol\":4459:4477  goal.currentAmount */\n      0x02\n      add\n      sload\n        /* \"CeloSaver.sol\":4418:4478  Withdrawal(msg.sender, _goalId, _amount, goal.currentAmount) */\n      mload(0x40)\n      tag_155\n      swap3\n      swap2\n      swap1\n      tag_156\n      jump\t// in\n    tag_155:\n      mload(0x40)\n      dup1\n      swap2\n      sub\n      swap1\n      log3\n        /* \"CeloSaver.sol\":3773:4486  {... */\n      pop\n      pop\n        /* \"CeloSaver.sol\":3712:4486  function withdraw(uint256 _goalId, uint256 _amount) external {... */\n      pop\n      pop\n      jump\t// out\n        /* \"CeloSaver.sol\":6125:6243  function getGoalCount(address _user) external view returns (uint256) {... */\n    tag_47:\n        /* \"CeloSaver.sol\":6185:6192  uint256 */\n      0x00\n        /* \"CeloSaver.sol\":6212:6221  userGoals */\n      dup1\n        /* \"CeloSaver.sol\":6212:6228  userGoals[_user] */\n      0x00\n        /* \"CeloSaver.sol\":6222:6227  _user */\n      dup4\n        /* \"CeloSaver.sol\":6212:6228  userGoals[_user] */\n      0xffffffffffffffffffffffffffffffffffffffff\n      and\n      0xffffffffffffffffffffffffffffffffffffffff\n      and\n      dup2\n      mstore\n      0x20\n      add\n      swap1\n      dup2\n      mstore\n      0x20\n      add\n      0x00\n      keccak256\n        /* \"CeloSaver.sol\":6212:6235  userGoals[_user].length */\n      dup1\n      sload\n      swap1\n      pop\n        /* \"CeloSaver.sol\":6205:6235  return userGoals[_user].length */\n      swap1\n      pop\n        /* \"CeloSaver.sol\":6125:6243  function getGoalCount(address _user) external view returns (uint256) {... */\n      swap2\n      swap1\n      pop\n      jump\t// out\n        /* \"CeloSaver.sol\":6410:6527  function getTotalSavings(address _user) external view returns (uint256) {... */\n    tag_52:\n        /* \"CeloSaver.sol\":6473:6480  uint256 */\n      0x00\n        /* \"CeloSaver.sol\":6500:6512  totalSavings */\n      0x01\n        /* \"CeloSaver.sol\":6500:6519  totalSavings[_user] */\n      0x00\n        /* \"CeloSaver.sol\":6513:6518  _user */\n      dup4\n        /* \"CeloSaver.sol\":6500:6519  totalSavings[_user] */\n      0xffffffffffffffffffffffffffffffffffffffff\n      and\n      0xffffffffffffffffffffffffffffffffffffffff\n      and\n      dup2\n      mstore\n      0x20\n      add\n      swap1\n      dup2\n      mstore\n      0x20\n      add\n      0x00\n      keccak256\n      sload\n        /* \"CeloSaver.sol\":6493:6519  return totalSavings[_user] */\n      swap1\n      pop\n        /* \"CeloSaver.sol\":6410:6527  function getTotalSavings(address _user) external view returns (uint256) {... */\n      swap2\n      swap1\n      pop\n      jump\t// out\n        /* \"CeloSaver.sol\":593:643  mapping(address => SavingsGoal[]) public userGoals */\n    tag_57:\n      mstore(0x20, 0x00)\n      dup2\n      0x00\n      mstore\n      keccak256(0x00, 0x40)\n      dup2\n      dup2\n      sload\n      dup2\n      lt\n      tag_159\n      jumpi\n      0x00\n      dup1\n      revert\n    tag_159:\n      swap1\n      0x00\n      mstore\n      keccak256(0x00, 0x20)\n      swap1\n      0x06\n      mul\n      add\n      0x00\n      swap2\n      pop\n      swap2\n      pop\n      pop\n      dup1\n      0x00\n      add\n      dup1\n      sload\n      tag_161\n      swap1\n      tag_110\n      jump\t// in\n    tag_161:\n      dup1\n      0x1f\n      add\n      0x20\n      dup1\n      swap2\n      div\n      mul\n      0x20\n      add\n      mload(0x40)\n      swap1\n      dup2\n      add\n      0x40\n      mstore\n      dup1\n      swap3\n      swap2\n      swap1\n      dup2\n      dup2\n      mstore\n      0x20\n      add\n      dup3\n      dup1\n      sload\n      tag_162\n      swap1\n      tag_110\n      jump\t// in\n    tag_162:\n      dup1\n      iszero\n      tag_163\n      jumpi\n      dup1\n      0x1f\n      lt\n      tag_164\n      jumpi\n      0x0100\n      dup1\n      dup4\n      sload\n      div\n      mul\n      dup4\n      mstore\n      swap2\n      0x20\n      add\n      swap2\n      jump(tag_163)\n    tag_164:\n      dup3\n      add\n      swap2\n      swap1\n      0x00\n      mstore\n      keccak256(0x00, 0x20)\n      swap1\n    tag_165:\n      dup2\n      sload\n      dup2\n      mstore\n      swap1\n      0x01\n      add\n      swap1\n      0x20\n      add\n      dup1\n      dup4\n      gt\n      tag_165\n      jumpi\n      dup3\n      swap1\n      sub\n      0x1f\n      and\n      dup3\n      add\n      swap2\n    tag_163:\n      pop\n      pop\n      pop\n      pop\n      pop\n      swap1\n      dup1\n      0x01\n      add\n      sload\n      swap1\n      dup1\n      0x02\n      add\n      sload\n      swap1\n      dup1\n      0x03\n      add\n      sload\n      swap1\n      dup1\n      0x04\n      add\n      0x00\n      swap1\n      sload\n      swap1\n      0x0100\n      exp\n      swap1\n      div\n      0xff\n      and\n      swap1\n      dup1\n      0x05\n      add\n      sload\n      swap1\n      pop\n      dup7\n      jump\t// out\n        /* \"CeloSaver.sol\":2798:3516  function deposit(uint256 _goalId) external payable {... */\n    tag_63:\n        /* \"CeloSaver.sol\":2880:2881  0 */\n      0x00\n        /* \"CeloSaver.sol\":2868:2877  msg.value */\n      callvalue\n        /* \"CeloSaver.sol\":2868:2881  msg.value > 0 */\n      gt\n        /* \"CeloSaver.sol\":2860:2923  require(msg.value > 0, \"Deposit amount must be greater than 0\") */\n      tag_167\n      jumpi\n      mload(0x40)\n      0x08c379a000000000000000000000000000000000000000000000000000000000\n      dup2\n      mstore\n      0x04\n      add\n      tag_168\n      swap1\n      tag_169\n      jump\t// in\n    tag_168:\n      mload(0x40)\n      dup1\n      swap2\n      sub\n      swap1\n      revert\n    tag_167:\n        /* \"CeloSaver.sol\":2952:2961  userGoals */\n      0x00\n        /* \"CeloSaver.sol\":2952:2973  userGoals[msg.sender] */\n      dup1\n        /* \"CeloSaver.sol\":2962:2972  msg.sender */\n      caller\n        /* \"CeloSaver.sol\":2952:2973  userGoals[msg.sender] */\n      0xffffffffffffffffffffffffffffffffffffffff\n      and\n      0xffffffffffffffffffffffffffffffffffffffff\n      and\n      dup2\n      mstore\n      0x20\n      add\n      swap1\n      dup2\n      mstore\n      0x20\n      add\n      0x00\n      keccak256\n        /* \"CeloSaver.sol\":2952:2980  userGoals[msg.sender].length */\n      dup1\n      sload\n      swap1\n      pop\n        /* \"CeloSaver.sol\":2942:2949  _goalId */\n      dup2\n        /* \"CeloSaver.sol\":2942:2980  _goalId < userGoals[msg.sender].length */\n      lt\n        /* \"CeloSaver.sol\":2934:3000  require(_goalId < userGoals[msg.sender].length, \"Invalid goal ID\") */\n      tag_170\n      jumpi\n      mload(0x40)\n      0x08c379a000000000000000000000000000000000000000000000000000000000\n      dup2\n      mstore\n      0x04\n      add\n      tag_171\n      swap1\n      tag_104\n      jump\t// in\n    tag_171:\n      mload(0x40)\n      dup1\n      swap2\n      sub\n      swap1\n      revert\n    tag_170:\n        /* \"CeloSaver.sol\":3021:3045  SavingsGoal storage goal */\n      0x00\n        /* \"CeloSaver.sol\":3048:3057  userGoals */\n      dup1\n        /* \"CeloSaver.sol\":3048:3069  userGoals[msg.sender] */\n      0x00\n        /* \"CeloSaver.sol\":3058:3068  msg.sender */\n      caller\n        /* \"CeloSaver.sol\":3048:3069  userGoals[msg.sender] */\n      0xffffffffffffffffffffffffffffffffffffffff\n      and\n      0xffffffffffffffffffffffffffffffffffffffff\n      and\n      dup2\n      mstore\n      0x20\n      add\n      swap1\n      dup2\n      mstore\n      0x20\n      add\n      0x00\n      keccak256\n        /* \"CeloSaver.sol\":3070:3077  _goalId */\n      dup3\n        /* \"CeloSaver.sol\":3048:3078  userGoals[msg.sender][_goalId] */\n      dup2\n      sload\n      dup2\n      lt\n      tag_172\n      jumpi\n      tag_173\n      tag_107\n      jump\t// in\n    tag_173:\n    tag_172:\n      swap1\n      0x00\n      mstore\n      keccak256(0x00, 0x20)\n      swap1\n      0x06\n      mul\n      add\n        /* \"CeloSaver.sol\":3021:3078  SavingsGoal storage goal = userGoals[msg.sender][_goalId] */\n      swap1\n      pop\n        /* \"CeloSaver.sol\":3097:3101  goal */\n      dup1\n        /* \"CeloSaver.sol\":3097:3110  goal.isActive */\n      0x04\n      add\n      0x00\n      swap1\n      sload\n      swap1\n      0x0100\n      exp\n      swap1\n      div\n      0xff\n      and\n        /* \"CeloSaver.sol\":3089:3133  require(goal.isActive, \"Goal is not active\") */\n      tag_175\n      jumpi\n      mload(0x40)\n      0x08c379a000000000000000000000000000000000000000000000000000000000\n      dup2\n      mstore\n      0x04\n      add\n      tag_176\n      swap1\n      tag_141\n      jump\t// in\n    tag_176:\n      mload(0x40)\n      dup1\n      swap2\n      sub\n      swap1\n      revert\n    tag_175:\n        /* \"CeloSaver.sol\":3176:3185  msg.value */\n      callvalue\n        /* \"CeloSaver.sol\":3154:3158  goal */\n      dup2\n        /* \"CeloSaver.sol\":3154:3172  goal.currentAmount */\n      0x02\n      add\n      0x00\n        /* \"CeloSaver.sol\":3154:3185  goal.currentAmount += msg.value */\n      dup3\n      dup3\n      sload\n      tag_177\n      swap2\n      swap1\n      tag_93\n      jump\t// in\n    tag_177:\n      swap3\n      pop\n      pop\n      dup2\n      swap1\n      sstore\n      pop\n        /* \"CeloSaver.sol\":3224:3233  msg.value */\n      callvalue\n        /* \"CeloSaver.sol\":3196:3208  totalSavings */\n      0x01\n        /* \"CeloSaver.sol\":3196:3220  totalSavings[msg.sender] */\n      0x00\n        /* \"CeloSaver.sol\":3209:3219  msg.sender */\n      caller\n        /* \"CeloSaver.sol\":3196:3220  totalSavings[msg.sender] */\n      0xffffffffffffffffffffffffffffffffffffffff\n      and\n      0xffffffffffffffffffffffffffffffffffffffff\n      and\n      dup2\n      mstore\n      0x20\n      add\n      swap1\n      dup2\n      mstore\n      0x20\n      add\n      0x00\n      keccak256\n      0x00\n        /* \"CeloSaver.sol\":3196:3233  totalSavings[msg.sender] += msg.value */\n      dup3\n      dup3\n      sload\n      tag_178\n      swap2\n      swap1\n      tag_93\n      jump\t// in\n    tag_178:\n      swap3\n      pop\n      pop\n      dup2\n      swap1\n      sstore\n      pop\n        /* \"CeloSaver.sol\":3279:3286  _goalId */\n      dup2\n        /* \"CeloSaver.sol\":3267:3277  msg.sender */\n      caller\n        /* \"CeloSaver.sol\":3259:3318  Deposit(msg.sender, _goalId, msg.value, goal.currentAmount) */\n      0xffffffffffffffffffffffffffffffffffffffff\n      and\n      0x36af321ec8d3c75236829c5317affd40ddb308863a1236d2d277a4025cccee1e\n        /* \"CeloSaver.sol\":3288:3297  msg.value */\n      callvalue\n        /* \"CeloSaver.sol\":3299:3303  goal */\n      dup5\n        /* \"CeloSaver.sol\":3299:3317  goal.currentAmount */\n      0x02\n      add\n      sload\n        /* \"CeloSaver.sol\":3259:3318  Deposit(msg.sender, _goalId, msg.value, goal.currentAmount) */\n      mload(0x40)\n      tag_179\n      swap3\n      swap2\n      swap1\n      tag_156\n      jump\t// in\n    tag_179:\n      mload(0x40)\n      dup1\n      swap2\n      sub\n      swap1\n      log3\n        /* \"CeloSaver.sol\":3404:3408  goal */\n      dup1\n        /* \"CeloSaver.sol\":3404:3421  goal.targetAmount */\n      0x01\n      add\n      sload\n        /* \"CeloSaver.sol\":3382:3386  goal */\n      dup2\n        /* \"CeloSaver.sol\":3382:3400  goal.currentAmount */\n      0x02\n      add\n      sload\n        /* \"CeloSaver.sol\":3382:3421  goal.currentAmount >= goal.targetAmount */\n      lt\n        /* \"CeloSaver.sol\":3378:3509  if (goal.currentAmount >= goal.targetAmount) {... */\n      tag_180\n      jumpi\n        /* \"CeloSaver.sol\":3469:3476  _goalId */\n      dup2\n        /* \"CeloSaver.sol\":3457:3467  msg.sender */\n      caller\n        /* \"CeloSaver.sol\":3443:3497  GoalCompleted(msg.sender, _goalId, goal.currentAmount) */\n      0xffffffffffffffffffffffffffffffffffffffff\n      and\n      0x5fdb120e2225930f6b50914ed30f8f8b37a0a6c7b6df7b1f0f7f235791bfc341\n        /* \"CeloSaver.sol\":3478:3482  goal */\n      dup4\n        /* \"CeloSaver.sol\":3478:3496  goal.currentAmount */\n      0x02\n      add\n      sload\n        /* \"CeloSaver.sol\":3443:3497  GoalCompleted(msg.sender, _goalId, goal.currentAmount) */\n      mload(0x40)\n      tag_181\n      swap2\n      swap1\n      tag_26\n      jump\t// in\n    tag_181:\n      mload(0x40)\n      dup1\n      swap2\n      sub\n      swap1\n      log3\n        /* \"CeloSaver.sol\":3378:3509  if (goal.currentAmount >= goal.targetAmount) {... */\n    tag_180:\n        /* \"CeloSaver.sol\":2849:3516  {... */\n      pop\n        /* \"CeloSaver.sol\":2798:3516  function deposit(uint256 _goalId) external payable {... */\n      pop\n      jump\t// out\n        /* \"CeloSaver.sol\":5759:5974  function getGoal(address _user, uint256 _goalId) external view returns (SavingsGoal memory) {... */\n    tag_67:\n        /* \"CeloSaver.sol\":5831:5849  SavingsGoal memory */\n      tag_182\n      tag_183\n      jump\t// in\n    tag_182:\n        /* \"CeloSaver.sol\":5880:5889  userGoals */\n      0x00\n        /* \"CeloSaver.sol\":5880:5896  userGoals[_user] */\n      dup1\n        /* \"CeloSaver.sol\":5890:5895  _user */\n      dup5\n        /* \"CeloSaver.sol\":5880:5896  userGoals[_user] */\n      0xffffffffffffffffffffffffffffffffffffffff\n      and\n      0xffffffffffffffffffffffffffffffffffffffff\n      and\n      dup2\n      mstore\n      0x20\n      add\n      swap1\n      dup2\n      mstore\n      0x20\n      add\n      0x00\n      keccak256\n        /* \"CeloSaver.sol\":5880:5903  userGoals[_user].length */\n      dup1\n      sload\n      swap1\n      pop\n        /* \"CeloSaver.sol\":5870:5877  _goalId */\n      dup3\n        /* \"CeloSaver.sol\":5870:5903  _goalId < userGoals[_user].length */\n      lt\n        /* \"CeloSaver.sol\":5862:5923  require(_goalId < userGoals[_user].length, \"Invalid goal ID\") */\n      tag_185\n      jumpi\n      mload(0x40)\n      0x08c379a000000000000000000000000000000000000000000000000000000000\n      dup2\n      mstore\n      0x04\n      add\n      tag_186\n      swap1\n      tag_104\n      jump\t// in\n    tag_186:\n      mload(0x40)\n      dup1\n      swap2\n      sub\n      swap1\n      revert\n    tag_185:\n        /* \"CeloSaver.sol\":5941:5950  userGoals */\n      0x00\n        /* \"CeloSaver.sol\":5941:5957  userGoals[_user] */\n      dup1\n        /* \"CeloSaver.sol\":5951:5956  _user */\n      dup5\n        /* \"CeloSaver.sol\":5941:5957  userGoals[_user] */\n      0xffffffffffffffffffffffffffffffffffffffff\n      and\n      0xffffffffffffffffffffffffffffffffffffffff\n      and\n      dup2\n      mstore\n      0x20\n      add\n      swap1\n      dup2\n      mstore\n      0x20\n      add\n      0x00\n      keccak256\n        /* \"CeloSaver.sol\":5958:5965  _goalId */\n      dup3\n        /* \"CeloSaver.sol\":5941:5966  userGoals[_user][_goalId] */\n      dup2\n      sload\n      dup2\n      lt\n      tag_187\n      jumpi\n      tag_188\n      tag_107\n      jump\t// in\n    tag_188:\n    tag_187:\n      swap1\n      0x00\n      mstore\n      keccak256(0x00, 0x20)\n      swap1\n      0x06\n      mul\n      add\n        /* \"CeloSaver.sol\":5934:5966  return userGoals[_user][_goalId] */\n      mload(0x40)\n      dup1\n      0xc0\n      add\n      0x40\n      mstore\n      swap1\n      dup2\n      0x00\n      dup3\n      add\n      dup1\n      sload\n      tag_190\n      swap1\n      tag_110\n      jump\t// in\n    tag_190:\n      dup1\n      0x1f\n      add\n      0x20\n      dup1\n      swap2\n      div\n      mul\n      0x20\n      add\n      mload(0x40)\n      swap1\n      dup2\n      add\n      0x40\n      mstore\n      dup1\n      swap3\n      swap2\n      swap1\n      dup2\n      dup2\n      mstore\n      0x20\n      add\n      dup3\n      dup1\n      sload\n      tag_191\n      swap1\n      tag_110\n      jump\t// in\n    tag_191:\n      dup1\n      iszero\n      tag_192\n      jumpi\n      dup1\n      0x1f\n      lt\n      tag_193\n      jumpi\n      0x0100\n      dup1\n      dup4\n      sload\n      div\n      mul\n      dup4\n      mstore\n      swap2\n      0x20\n      add\n      swap2\n      jump(tag_192)\n    tag_193:\n      dup3\n      add\n      swap2\n      swap1\n      0x00\n      mstore\n      keccak256(0x00, 0x20)\n      swap1\n    tag_194:\n      dup2\n      sload\n      dup2\n      mstore\n      swap1\n      0x01\n      add\n      swap1\n      0x20\n      add\n      dup1\n      dup4\n      gt\n      tag_194\n      jumpi\n      dup3\n      swap1\n      sub\n      0x1f\n      and\n      dup3\n      add\n      swap2\n    tag_192:\n      pop\n      pop\n      pop\n      pop\n      pop\n      dup2\n      mstore\n      0x20\n      add\n      0x01\n      dup3\n      add\n      sload\n      dup2\n      mstore\n      0x20\n      add\n      0x02\n      dup3\n      add\n      sload\n      dup2\n      mstore\n      0x20\n      add\n      0x03\n      dup3\n      add\n      sload\n      dup2\n      mstore\n      0x20\n      add\n      0x04\n      dup3\n      add\n      0x00\n      swap1\n      sload\n      swap1\n      0x0100\n      exp\n      swap1\n      div\n      0xff\n      and\n      iszero\n      iszero\n      iszero\n      iszero\n      dup2\n      mstore\n      0x20\n      add\n      0x05\n      dup3\n      add\n      sload\n      dup2\n      mstore\n      pop\n      pop\n      swap1\n      pop\n        /* \"CeloSaver.sol\":5759:5974  function getGoal(address _user, uint256 _goalId) external view returns (SavingsGoal memory) {... */\n      swap3\n      swap2\n      pop\n      pop\n      jump\t// out\n        /* \"CeloSaver.sol\":6733:7018  function isGoalCompleted(address _user, uint256 _goalId) external view returns (bool) {... */\n    tag_73:\n        /* \"CeloSaver.sol\":6813:6817  bool */\n      0x00\n        /* \"CeloSaver.sol\":6848:6857  userGoals */\n      dup1\n        /* \"CeloSaver.sol\":6848:6864  userGoals[_user] */\n      0x00\n        /* \"CeloSaver.sol\":6858:6863  _user */\n      dup5\n        /* \"CeloSaver.sol\":6848:6864  userGoals[_user] */\n      0xffffffffffffffffffffffffffffffffffffffff\n      and\n      0xffffffffffffffffffffffffffffffffffffffff\n      and\n      dup2\n      mstore\n      0x20\n      add\n      swap1\n      dup2\n      mstore\n      0x20\n      add\n      0x00\n      keccak256\n        /* \"CeloSaver.sol\":6848:6871  userGoals[_user].length */\n      dup1\n      sload\n      swap1\n      pop\n        /* \"CeloSaver.sol\":6838:6845  _goalId */\n      dup3\n        /* \"CeloSaver.sol\":6838:6871  _goalId < userGoals[_user].length */\n      lt\n        /* \"CeloSaver.sol\":6830:6891  require(_goalId < userGoals[_user].length, \"Invalid goal ID\") */\n      tag_196\n      jumpi\n      mload(0x40)\n      0x08c379a000000000000000000000000000000000000000000000000000000000\n      dup2\n      mstore\n      0x04\n      add\n      tag_197\n      swap1\n      tag_104\n      jump\t// in\n    tag_197:\n      mload(0x40)\n      dup1\n      swap2\n      sub\n      swap1\n      revert\n    tag_196:\n        /* \"CeloSaver.sol\":6902:6925  SavingsGoal memory goal */\n      0x00\n        /* \"CeloSaver.sol\":6928:6937  userGoals */\n      dup1\n        /* \"CeloSaver.sol\":6928:6944  userGoals[_user] */\n      0x00\n        /* \"CeloSaver.sol\":6938:6943  _user */\n      dup6\n        /* \"CeloSaver.sol\":6928:6944  userGoals[_user] */\n      0xffffffffffffffffffffffffffffffffffffffff\n      and\n      0xffffffffffffffffffffffffffffffffffffffff\n      and\n      dup2\n      mstore\n      0x20\n      add\n      swap1\n      dup2\n      mstore\n      0x20\n      add\n      0x00\n      keccak256\n        /* \"CeloSaver.sol\":6945:6952  _goalId */\n      dup4\n        /* \"CeloSaver.sol\":6928:6953  userGoals[_user][_goalId] */\n      dup2\n      sload\n      dup2\n      lt\n      tag_198\n      jumpi\n      tag_199\n      tag_107\n      jump\t// in\n    tag_199:\n    tag_198:\n      swap1\n      0x00\n      mstore\n      keccak256(0x00, 0x20)\n      swap1\n      0x06\n      mul\n      add\n        /* \"CeloSaver.sol\":6902:6953  SavingsGoal memory goal = userGoals[_user][_goalId] */\n      mload(0x40)\n      dup1\n      0xc0\n      add\n      0x40\n      mstore\n      swap1\n      dup2\n      0x00\n      dup3\n      add\n      dup1\n      sload\n      tag_201\n      swap1\n      tag_110\n      jump\t// in\n    tag_201:\n      dup1\n      0x1f\n      add\n      0x20\n      dup1\n      swap2\n      div\n      mul\n      0x20\n      add\n      mload(0x40)\n      swap1\n      dup2\n      add\n      0x40\n      mstore\n      dup1\n      swap3\n      swap2\n      swap1\n      dup2\n      dup2\n      mstore\n      0x20\n      add\n      dup3\n      dup1\n      sload\n      tag_202\n      swap1\n      tag_110\n      jump\t// in\n    tag_202:\n      dup1\n      iszero\n      tag_203\n      jumpi\n      dup1\n      0x1f\n      lt\n      tag_204\n      jumpi\n      0x0100\n      dup1\n      dup4\n      sload\n      div\n      mul\n      dup4\n      mstore\n      swap2\n      0x20\n      add\n      swap2\n      jump(tag_203)\n    tag_204:\n      dup3\n      add\n      swap2\n      swap1\n      0x00\n      mstore\n      keccak256(0x00, 0x20)\n      swap1\n    tag_205:\n      dup2\n      sload\n      dup2\n      mstore\n      swap1\n      0x01\n      add\n      swap1\n      0x20\n      add\n      dup1\n      dup4\n      gt\n      tag_205\n      jumpi\n      dup3\n      swap1\n      sub\n      0x1f\n      and\n      dup3\n      add\n      swap2\n    tag_203:\n      pop\n      pop\n      pop\n      pop\n      pop\n      dup2\n      mstore\n      0x20\n      add\n      0x01\n      dup3\n      add\n      sload\n      dup2\n      mstore\n      0x20\n      add\n      0x02\n      dup3\n      add\n      sload\n      dup2\n      mstore\n      0x20\n      add\n      0x03\n      dup3\n      add\n      sload\n      dup2\n      mstore\n      0x20\n      add\n      0x04\n      dup3\n      add\n      0x00\n      swap1\n      sload\n      swap1\n      0x0100\n      exp\n      swap1\n      div\n      0xff\n      and\n      iszero\n      iszero\n      iszero\n      iszero\n      dup2\n      mstore\n      0x20\n      add\n      0x05\n      dup3\n      add\n      sload\n      dup2\n      mstore\n      pop\n      pop\n      swap1\n      pop\n        /* \"CeloSaver.sol\":6993:6997  goal */\n      dup1\n        /* \"CeloSaver.sol\":6993:7010  goal.targetAmount */\n      0x20\n      add\n      mload\n        /* \"CeloSaver.sol\":6971:6975  goal */\n      dup2\n        /* \"CeloSaver.sol\":6971:6989  goal.currentAmount */\n      0x40\n      add\n      mload\n        /* \"CeloSaver.sol\":6971:7010  goal.currentAmount >= goal.targetAmount */\n      lt\n      iszero\n        /* \"CeloSaver.sol\":6964:7010  return goal.currentAmount >= goal.targetAmount */\n      swap2\n      pop\n      pop\n        /* \"CeloSaver.sol\":6733:7018  function isGoalCompleted(address _user, uint256 _goalId) external view returns (bool) {... */\n      swap3\n      swap2\n      pop\n      pop\n      jump\t// out\n        /* \"CeloSaver.sol\":4623:5298  function closeGoal(uint256 _goalId) external {... */\n    tag_79:\n        /* \"CeloSaver.sol\":4697:4706  userGoals */\n      0x00\n        /* \"CeloSaver.sol\":4697:4718  userGoals[msg.sender] */\n      dup1\n        /* \"CeloSaver.sol\":4707:4717  msg.sender */\n      caller\n        /* \"CeloSaver.sol\":4697:4718  userGoals[msg.sender] */\n      0xffffffffffffffffffffffffffffffffffffffff\n      and\n      0xffffffffffffffffffffffffffffffffffffffff\n      and\n      dup2\n      mstore\n      0x20\n      add\n      swap1\n      dup2\n      mstore\n      0x20\n      add\n      0x00\n      keccak256\n        /* \"CeloSaver.sol\":4697:4725  userGoals[msg.sender].length */\n      dup1\n      sload\n      swap1\n      pop\n        /* \"CeloSaver.sol\":4687:4694  _goalId */\n      dup2\n        /* \"CeloSaver.sol\":4687:4725  _goalId < userGoals[msg.sender].length */\n      lt\n        /* \"CeloSaver.sol\":4679:4745  require(_goalId < userGoals[msg.sender].length, \"Invalid goal ID\") */\n      tag_207\n      jumpi\n      mload(0x40)\n      0x08c379a000000000000000000000000000000000000000000000000000000000\n      dup2\n      mstore\n      0x04\n      add\n      tag_208\n      swap1\n      tag_104\n      jump\t// in\n    tag_208:\n      mload(0x40)\n      dup1\n      swap2\n      sub\n      swap1\n      revert\n    tag_207:\n        /* \"CeloSaver.sol\":4766:4790  SavingsGoal storage goal */\n      0x00\n        /* \"CeloSaver.sol\":4793:4802  userGoals */\n      dup1\n        /* \"CeloSaver.sol\":4793:4814  userGoals[msg.sender] */\n      0x00\n        /* \"CeloSaver.sol\":4803:4813  msg.sender */\n      caller\n        /* \"CeloSaver.sol\":4793:4814  userGoals[msg.sender] */\n      0xffffffffffffffffffffffffffffffffffffffff\n      and\n      0xffffffffffffffffffffffffffffffffffffffff\n      and\n      dup2\n      mstore\n      0x20\n      add\n      swap1\n      dup2\n      mstore\n      0x20\n      add\n      0x00\n      keccak256\n        /* \"CeloSaver.sol\":4815:4822  _goalId */\n      dup3\n        /* \"CeloSaver.sol\":4793:4823  userGoals[msg.sender][_goalId] */\n      dup2\n      sload\n      dup2\n      lt\n      tag_209\n      jumpi\n      tag_210\n      tag_107\n      jump\t// in\n    tag_210:\n    tag_209:\n      swap1\n      0x00\n      mstore\n      keccak256(0x00, 0x20)\n      swap1\n      0x06\n      mul\n      add\n        /* \"CeloSaver.sol\":4766:4823  SavingsGoal storage goal = userGoals[msg.sender][_goalId] */\n      swap1\n      pop\n        /* \"CeloSaver.sol\":4842:4846  goal */\n      dup1\n        /* \"CeloSaver.sol\":4842:4855  goal.isActive */\n      0x04\n      add\n      0x00\n      swap1\n      sload\n      swap1\n      0x0100\n      exp\n      swap1\n      div\n      0xff\n      and\n        /* \"CeloSaver.sol\":4834:4882  require(goal.isActive, \"Goal is already closed\") */\n      tag_212\n      jumpi\n      mload(0x40)\n      0x08c379a000000000000000000000000000000000000000000000000000000000\n      dup2\n      mstore\n      0x04\n      add\n      tag_213\n      swap1\n      tag_214\n      jump\t// in\n    tag_213:\n      mload(0x40)\n      dup1\n      swap2\n      sub\n      swap1\n      revert\n    tag_212:\n        /* \"CeloSaver.sol\":4903:4917  uint256 amount */\n      0x00\n        /* \"CeloSaver.sol\":4920:4924  goal */\n      dup2\n        /* \"CeloSaver.sol\":4920:4938  goal.currentAmount */\n      0x02\n      add\n      sload\n        /* \"CeloSaver.sol\":4903:4938  uint256 amount = goal.currentAmount */\n      swap1\n      pop\n        /* \"CeloSaver.sol\":4975:4980  false */\n      0x00\n        /* \"CeloSaver.sol\":4959:4963  goal */\n      dup3\n        /* \"CeloSaver.sol\":4959:4972  goal.isActive */\n      0x04\n      add\n      0x00\n        /* \"CeloSaver.sol\":4959:4980  goal.isActive = false */\n      0x0100\n      exp\n      dup2\n      sload\n      dup2\n      0xff\n      mul\n      not\n      and\n      swap1\n      dup4\n      iszero\n      iszero\n      mul\n      or\n      swap1\n      sstore\n      pop\n        /* \"CeloSaver.sol\":5012:5013  0 */\n      0x00\n        /* \"CeloSaver.sol\":4991:4995  goal */\n      dup3\n        /* \"CeloSaver.sol\":4991:5009  goal.currentAmount */\n      0x02\n      add\n        /* \"CeloSaver.sol\":4991:5013  goal.currentAmount = 0 */\n      dup2\n      swap1\n      sstore\n      pop\n        /* \"CeloSaver.sol\":5052:5058  amount */\n      dup1\n        /* \"CeloSaver.sol\":5024:5036  totalSavings */\n      0x01\n        /* \"CeloSaver.sol\":5024:5048  totalSavings[msg.sender] */\n      0x00\n        /* \"CeloSaver.sol\":5037:5047  msg.sender */\n      caller\n        /* \"CeloSaver.sol\":5024:5048  totalSavings[msg.sender] */\n      0xffffffffffffffffffffffffffffffffffffffff\n      and\n      0xffffffffffffffffffffffffffffffffffffffff\n      and\n      dup2\n      mstore\n      0x20\n      add\n      swap1\n      dup2\n      mstore\n      0x20\n      add\n      0x00\n      keccak256\n      0x00\n        /* \"CeloSaver.sol\":5024:5058  totalSavings[msg.sender] -= amount */\n      dup3\n      dup3\n      sload\n      tag_215\n      swap2\n      swap1\n      tag_98\n      jump\t// in\n    tag_215:\n      swap3\n      pop\n      pop\n      dup2\n      swap1\n      sstore\n      pop\n        /* \"CeloSaver.sol\":5092:5093  0 */\n      0x00\n        /* \"CeloSaver.sol\":5083:5089  amount */\n      dup2\n        /* \"CeloSaver.sol\":5083:5093  amount > 0 */\n      gt\n        /* \"CeloSaver.sol\":5079:5234  if (amount > 0) {... */\n      iszero\n      tag_216\n      jumpi\n        /* \"CeloSaver.sol\":5111:5123  bool success */\n      0x00\n        /* \"CeloSaver.sol\":5137:5147  msg.sender */\n      caller\n        /* \"CeloSaver.sol\":5129:5153  payable(msg.sender).call */\n      0xffffffffffffffffffffffffffffffffffffffff\n      and\n        /* \"CeloSaver.sol\":5161:5167  amount */\n      dup3\n        /* \"CeloSaver.sol\":5129:5172  payable(msg.sender).call{value: amount}(\"\") */\n      mload(0x40)\n      tag_217\n      swap1\n      tag_148\n      jump\t// in\n    tag_217:\n      0x00\n      mload(0x40)\n      dup1\n      dup4\n      sub\n      dup2\n      dup6\n      dup8\n      gas\n      call\n      swap3\n      pop\n      pop\n      pop\n      returndatasize\n      dup1\n      0x00\n      dup2\n      eq\n      tag_220\n      jumpi\n      mload(0x40)\n      swap2\n      pop\n      and(add(returndatasize, 0x3f), not(0x1f))\n      dup3\n      add\n      0x40\n      mstore\n      returndatasize\n      dup3\n      mstore\n      returndatasize\n      0x00\n      0x20\n      dup5\n      add\n      returndatacopy\n      jump(tag_219)\n    tag_220:\n      0x60\n      swap2\n      pop\n    tag_219:\n      pop\n        /* \"CeloSaver.sol\":5110:5172  (bool success, ) = payable(msg.sender).call{value: amount}(\"\") */\n      pop\n      swap1\n      pop\n        /* \"CeloSaver.sol\":5195:5202  success */\n      dup1\n        /* \"CeloSaver.sol\":5187:5222  require(success, \"Transfer failed\") */\n      tag_221\n      jumpi\n      mload(0x40)\n      0x08c379a000000000000000000000000000000000000000000000000000000000\n      dup2\n      mstore\n      0x04\n      add\n      tag_222\n      swap1\n      tag_154\n      jump\t// in\n    tag_222:\n      mload(0x40)\n      dup1\n      swap2\n      sub\n      swap1\n      revert\n    tag_221:\n        /* \"CeloSaver.sol\":5095:5234  {... */\n      pop\n        /* \"CeloSaver.sol\":5079:5234  if (amount > 0) {... */\n    tag_216:\n        /* \"CeloSaver.sol\":5282:5289  _goalId */\n      dup3\n        /* \"CeloSaver.sol\":5270:5280  msg.sender */\n      caller\n        /* \"CeloSaver.sol\":5259:5290  GoalClosed(msg.sender, _goalId) */\n      0xffffffffffffffffffffffffffffffffffffffff\n      and\n      0xab8d6627d8bb77baea003f183a1fe533202e576795e8d416da359f07a44f3582\n      mload(0x40)\n      mload(0x40)\n      dup1\n      swap2\n      sub\n      swap1\n      log3\n        /* \"CeloSaver.sol\":4668:5298  {... */\n      pop\n      pop\n        /* \"CeloSaver.sol\":4623:5298  function closeGoal(uint256 _goalId) external {... */\n      pop\n      jump\t// out\n    tag_183:\n      mload(0x40)\n      dup1\n      0xc0\n      add\n      0x40\n      mstore\n      dup1\n      0x60\n      dup2\n      mstore\n      0x20\n      add\n      0x00\n      dup2\n      mstore\n      0x20\n      add\n      0x00\n      dup2\n      mstore\n      0x20\n      add\n      0x00\n      dup2\n      mstore\n      0x20\n      add\n      iszero(iszero(0x00))\n      dup2\n      mstore\n      0x20\n      add\n      0x00\n      dup2\n      mstore\n      pop\n      swap1\n      jump\t// out\n        /* \"#utility.yul\":7:82   */\n    tag_223:\n        /* \"#utility.yul\":40:46   */\n      0x00\n        /* \"#utility.yul\":73:75   */\n      0x40\n        /* \"#utility.yul\":67:76   */\n      mload\n        /* \"#utility.yul\":57:76   */\n      swap1\n      pop\n        /* \"#utility.yul\":7:82   */\n      swap1\n      jump\t// out\n        /* \"#utility.yul\":88:205   */\n    tag_224:\n        /* \"#utility.yul\":197:198   */\n      0x00\n        /* \"#utility.yul\":194:195   */\n      dup1\n        /* \"#utility.yul\":187:199   */\n      revert\n        /* \"#utility.yul\":211:328   */\n    tag_225:\n        /* \"#utility.yul\":320:321   */\n      0x00\n        /* \"#utility.yul\":317:318   */\n      dup1\n        /* \"#utility.yul\":310:322   */\n      revert\n        /* \"#utility.yul\":334:451   */\n    tag_226:\n        /* \"#utility.yul\":443:444   */\n      0x00\n        /* \"#utility.yul\":440:441   */\n      dup1\n        /* \"#utility.yul\":433:445   */\n      revert\n        /* \"#utility.yul\":457:574   */\n    tag_227:\n        /* \"#utility.yul\":566:567   */\n      0x00\n        /* \"#utility.yul\":563:564   */\n      dup1\n        /* \"#utility.yul\":556:568   */\n      revert\n        /* \"#utility.yul\":580:682   */\n    tag_228:\n        /* \"#utility.yul\":621:627   */\n      0x00\n        /* \"#utility.yul\":672:674   */\n      0x1f\n        /* \"#utility.yul\":668:675   */\n      not\n        /* \"#utility.yul\":663:665   */\n      0x1f\n        /* \"#utility.yul\":656:661   */\n      dup4\n        /* \"#utility.yul\":652:666   */\n      add\n        /* \"#utility.yul\":648:676   */\n      and\n        /* \"#utility.yul\":638:676   */\n      swap1\n      pop\n        /* \"#utility.yul\":580:682   */\n      swap2\n      swap1\n      pop\n      jump\t// out\n        /* \"#utility.yul\":688:868   */\n    tag_229:\n        /* \"#utility.yul\":736:813   */\n      0x4e487b7100000000000000000000000000000000000000000000000000000000\n        /* \"#utility.yul\":733:734   */\n      0x00\n        /* \"#utility.yul\":726:814   */\n      mstore\n        /* \"#utility.yul\":833:837   */\n      0x41\n        /* \"#utility.yul\":830:831   */\n      0x04\n        /* \"#utility.yul\":823:838   */\n      mstore\n        /* \"#utility.yul\":857:861   */\n      0x24\n        /* \"#utility.yul\":854:855   */\n      0x00\n        /* \"#utility.yul\":847:862   */\n      revert\n        /* \"#utility.yul\":874:1155   */\n    tag_230:\n        /* \"#utility.yul\":957:984   */\n      tag_312\n        /* \"#utility.yul\":979:983   */\n      dup3\n        /* \"#utility.yul\":957:984   */\n      tag_228\n      jump\t// in\n    tag_312:\n        /* \"#utility.yul\":949:955   */\n      dup2\n        /* \"#utility.yul\":945:985   */\n      add\n        /* \"#utility.yul\":1087:1093   */\n      dup2\n        /* \"#utility.yul\":1075:1085   */\n      dup2\n        /* \"#utility.yul\":1072:1094   */\n      lt\n        /* \"#utility.yul\":1051:1069   */\n      0xffffffffffffffff\n        /* \"#utility.yul\":1039:1049   */\n      dup3\n        /* \"#utility.yul\":1036:1070   */\n      gt\n        /* \"#utility.yul\":1033:1095   */\n      or\n        /* \"#utility.yul\":1030:1118   */\n      iszero\n      tag_313\n      jumpi\n        /* \"#utility.yul\":1098:1116   */\n      tag_314\n      tag_229\n      jump\t// in\n    tag_314:\n        /* \"#utility.yul\":1030:1118   */\n    tag_313:\n        /* \"#utility.yul\":1138:1148   */\n      dup1\n        /* \"#utility.yul\":1134:1136   */\n      0x40\n        /* \"#utility.yul\":1127:1149   */\n      mstore\n        /* \"#utility.yul\":917:1155   */\n      pop\n        /* \"#utility.yul\":874:1155   */\n      pop\n      pop\n      jump\t// out\n        /* \"#utility.yul\":1161:1290   */\n    tag_231:\n        /* \"#utility.yul\":1195:1201   */\n      0x00\n        /* \"#utility.yul\":1222:1242   */\n      tag_316\n      tag_223\n      jump\t// in\n    tag_316:\n        /* \"#utility.yul\":1212:1242   */\n      swap1\n      pop\n        /* \"#utility.yul\":1251:1284   */\n      tag_317\n        /* \"#utility.yul\":1279:1283   */\n      dup3\n        /* \"#utility.yul\":1271:1277   */\n      dup3\n        /* \"#utility.yul\":1251:1284   */\n      tag_230\n      jump\t// in\n    tag_317:\n        /* \"#utility.yul\":1161:1290   */\n      swap2\n      swap1\n      pop\n      jump\t// out\n        /* \"#utility.yul\":1296:1604   */\n    tag_232:\n        /* \"#utility.yul\":1358:1362   */\n      0x00\n        /* \"#utility.yul\":1448:1466   */\n      0xffffffffffffffff\n        /* \"#utility.yul\":1440:1446   */\n      dup3\n        /* \"#utility.yul\":1437:1467   */\n      gt\n        /* \"#utility.yul\":1434:1490   */\n      iszero\n      tag_319\n      jumpi\n        /* \"#utility.yul\":1470:1488   */\n      tag_320\n      tag_229\n      jump\t// in\n    tag_320:\n        /* \"#utility.yul\":1434:1490   */\n    tag_319:\n        /* \"#utility.yul\":1508:1537   */\n      tag_321\n        /* \"#utility.yul\":1530:1536   */\n      dup3\n        /* \"#utility.yul\":1508:1537   */\n      tag_228\n      jump\t// in\n    tag_321:\n        /* \"#utility.yul\":1500:1537   */\n      swap1\n      pop\n        /* \"#utility.yul\":1592:1596   */\n      0x20\n        /* \"#utility.yul\":1586:1590   */\n      dup2\n        /* \"#utility.yul\":1582:1597   */\n      add\n        /* \"#utility.yul\":1574:1597   */\n      swap1\n      pop\n        /* \"#utility.yul\":1296:1604   */\n      swap2\n      swap1\n      pop\n      jump\t// out\n        /* \"#utility.yul\":1610:1756   */\n    tag_233:\n        /* \"#utility.yul\":1707:1713   */\n      dup3\n        /* \"#utility.yul\":1702:1705   */\n      dup2\n        /* \"#utility.yul\":1697:1700   */\n      dup4\n        /* \"#utility.yul\":1684:1714   */\n      calldatacopy\n        /* \"#utility.yul\":1748:1749   */\n      0x00\n        /* \"#utility.yul\":1739:1745   */\n      dup4\n        /* \"#utility.yul\":1734:1737   */\n      dup4\n        /* \"#utility.yul\":1730:1746   */\n      add\n        /* \"#utility.yul\":1723:1750   */\n      mstore\n        /* \"#utility.yul\":1610:1756   */\n      pop\n      pop\n      pop\n      jump\t// out\n        /* \"#utility.yul\":1762:2187   */\n    tag_234:\n        /* \"#utility.yul\":1840:1845   */\n      0x00\n        /* \"#utility.yul\":1865:1931   */\n      tag_324\n        /* \"#utility.yul\":1881:1930   */\n      tag_325\n        /* \"#utility.yul\":1923:1929   */\n      dup5\n        /* \"#utility.yul\":1881:1930   */\n      tag_232\n      jump\t// in\n    tag_325:\n        /* \"#utility.yul\":1865:1931   */\n      tag_231\n      jump\t// in\n    tag_324:\n        /* \"#utility.yul\":1856:1931   */\n      swap1\n      pop\n        /* \"#utility.yul\":1954:1960   */\n      dup3\n        /* \"#utility.yul\":1947:1952   */\n      dup2\n        /* \"#utility.yul\":1940:1961   */\n      mstore\n        /* \"#utility.yul\":1992:1996   */\n      0x20\n        /* \"#utility.yul\":1985:1990   */\n      dup2\n        /* \"#utility.yul\":1981:1997   */\n      add\n        /* \"#utility.yul\":2030:2033   */\n      dup5\n        /* \"#utility.yul\":2021:2027   */\n      dup5\n        /* \"#utility.yul\":2016:2019   */\n      dup5\n        /* \"#utility.yul\":2012:2028   */\n      add\n        /* \"#utility.yul\":2009:2034   */\n      gt\n        /* \"#utility.yul\":2006:2118   */\n      iszero\n      tag_326\n      jumpi\n        /* \"#utility.yul\":2037:2116   */\n      tag_327\n      tag_227\n      jump\t// in\n    tag_327:\n        /* \"#utility.yul\":2006:2118   */\n    tag_326:\n        /* \"#utility.yul\":2127:2181   */\n      tag_328\n        /* \"#utility.yul\":2174:2180   */\n      dup5\n        /* \"#utility.yul\":2169:2172   */\n      dup3\n        /* \"#utility.yul\":2164:2167   */\n      dup6\n        /* \"#utility.yul\":2127:2181   */\n      tag_233\n      jump\t// in\n    tag_328:\n        /* \"#utility.yul\":1846:2187   */\n      pop\n        /* \"#utility.yul\":1762:2187   */\n      swap4\n      swap3\n      pop\n      pop\n      pop\n      jump\t// out\n        /* \"#utility.yul\":2207:2547   */\n    tag_235:\n        /* \"#utility.yul\":2263:2268   */\n      0x00\n        /* \"#utility.yul\":2312:2315   */\n      dup3\n        /* \"#utility.yul\":2305:2309   */\n      0x1f\n        /* \"#utility.yul\":2297:2303   */\n      dup4\n        /* \"#utility.yul\":2293:2310   */\n      add\n        /* \"#utility.yul\":2289:2316   */\n      slt\n        /* \"#utility.yul\":2279:2401   */\n      tag_330\n      jumpi\n        /* \"#utility.yul\":2320:2399   */\n      tag_331\n      tag_226\n      jump\t// in\n    tag_331:\n        /* \"#utility.yul\":2279:2401   */\n    tag_330:\n        /* \"#utility.yul\":2437:2443   */\n      dup2\n        /* \"#utility.yul\":2424:2444   */\n      calldataload\n        /* \"#utility.yul\":2462:2541   */\n      tag_332\n        /* \"#utility.yul\":2537:2540   */\n      dup5\n        /* \"#utility.yul\":2529:2535   */\n      dup3\n        /* \"#utility.yul\":2522:2526   */\n      0x20\n        /* \"#utility.yul\":2514:2520   */\n      dup7\n        /* \"#utility.yul\":2510:2527   */\n      add\n        /* \"#utility.yul\":2462:2541   */\n      tag_234\n      jump\t// in\n    tag_332:\n        /* \"#utility.yul\":2453:2541   */\n      swap2\n      pop\n        /* \"#utility.yul\":2269:2547   */\n      pop\n        /* \"#utility.yul\":2207:2547   */\n      swap3\n      swap2\n      pop\n      pop\n      jump\t// out\n        /* \"#utility.yul\":2553:2630   */\n    tag_236:\n        /* \"#utility.yul\":2590:2597   */\n      0x00\n        /* \"#utility.yul\":2619:2624   */\n      dup2\n        /* \"#utility.yul\":2608:2624   */\n      swap1\n      pop\n        /* \"#utility.yul\":2553:2630   */\n      swap2\n      swap1\n      pop\n      jump\t// out\n        /* \"#utility.yul\":2636:2758   */\n    tag_237:\n        /* \"#utility.yul\":2709:2733   */\n      tag_335\n        /* \"#utility.yul\":2727:2732   */\n      dup2\n        /* \"#utility.yul\":2709:2733   */\n      tag_236\n      jump\t// in\n    tag_335:\n        /* \"#utility.yul\":2702:2707   */\n      dup2\n        /* \"#utility.yul\":2699:2734   */\n      eq\n        /* \"#utility.yul\":2689:2752   */\n      tag_336\n      jumpi\n        /* \"#utility.yul\":2748:2749   */\n      0x00\n        /* \"#utility.yul\":2745:2746   */\n      dup1\n        /* \"#utility.yul\":2738:2750   */\n      revert\n        /* \"#utility.yul\":2689:2752   */\n    tag_336:\n        /* \"#utility.yul\":2636:2758   */\n      pop\n      jump\t// out\n        /* \"#utility.yul\":2764:2903   */\n    tag_238:\n        /* \"#utility.yul\":2810:2815   */\n      0x00\n        /* \"#utility.yul\":2848:2854   */\n      dup2\n        /* \"#utility.yul\":2835:2855   */\n      calldataload\n        /* \"#utility.yul\":2826:2855   */\n      swap1\n      pop\n        /* \"#utility.yul\":2864:2897   */\n      tag_338\n        /* \"#utility.yul\":2891:2896   */\n      dup2\n        /* \"#utility.yul\":2864:2897   */\n      tag_237\n      jump\t// in\n    tag_338:\n        /* \"#utility.yul\":2764:2903   */\n      swap3\n      swap2\n      pop\n      pop\n      jump\t// out\n        /* \"#utility.yul\":2909:3708   */\n    tag_18:\n        /* \"#utility.yul\":2996:3002   */\n      0x00\n        /* \"#utility.yul\":3004:3010   */\n      dup1\n        /* \"#utility.yul\":3012:3018   */\n      0x00\n        /* \"#utility.yul\":3061:3063   */\n      0x60\n        /* \"#utility.yul\":3049:3058   */\n      dup5\n        /* \"#utility.yul\":3040:3047   */\n      dup7\n        /* \"#utility.yul\":3036:3059   */\n      sub\n        /* \"#utility.yul\":3032:3064   */\n      slt\n        /* \"#utility.yul\":3029:3148   */\n      iszero\n      tag_340\n      jumpi\n        /* \"#utility.yul\":3067:3146   */\n      tag_341\n      tag_224\n      jump\t// in\n    tag_341:\n        /* \"#utility.yul\":3029:3148   */\n    tag_340:\n        /* \"#utility.yul\":3215:3216   */\n      0x00\n        /* \"#utility.yul\":3204:3213   */\n      dup5\n        /* \"#utility.yul\":3200:3217   */\n      add\n        /* \"#utility.yul\":3187:3218   */\n      calldataload\n        /* \"#utility.yul\":3245:3263   */\n      0xffffffffffffffff\n        /* \"#utility.yul\":3237:3243   */\n      dup2\n        /* \"#utility.yul\":3234:3264   */\n      gt\n        /* \"#utility.yul\":3231:3348   */\n      iszero\n      tag_342\n      jumpi\n        /* \"#utility.yul\":3267:3346   */\n      tag_343\n      tag_225\n      jump\t// in\n    tag_343:\n        /* \"#utility.yul\":3231:3348   */\n    tag_342:\n        /* \"#utility.yul\":3372:3435   */\n      tag_344\n        /* \"#utility.yul\":3427:3434   */\n      dup7\n        /* \"#utility.yul\":3418:3424   */\n      dup3\n        /* \"#utility.yul\":3407:3416   */\n      dup8\n        /* \"#utility.yul\":3403:3425   */\n      add\n        /* \"#utility.yul\":3372:3435   */\n      tag_235\n      jump\t// in\n    tag_344:\n        /* \"#utility.yul\":3362:3435   */\n      swap4\n      pop\n        /* \"#utility.yul\":3158:3445   */\n      pop\n        /* \"#utility.yul\":3484:3486   */\n      0x20\n        /* \"#utility.yul\":3510:3563   */\n      tag_345\n        /* \"#utility.yul\":3555:3562   */\n      dup7\n        /* \"#utility.yul\":3546:3552   */\n      dup3\n        /* \"#utility.yul\":3535:3544   */\n      dup8\n        /* \"#utility.yul\":3531:3553   */\n      add\n        /* \"#utility.yul\":3510:3563   */\n      tag_238\n      jump\t// in\n    tag_345:\n        /* \"#utility.yul\":3500:3563   */\n      swap3\n      pop\n        /* \"#utility.yul\":3455:3573   */\n      pop\n        /* \"#utility.yul\":3612:3614   */\n      0x40\n        /* \"#utility.yul\":3638:3691   */\n      tag_346\n        /* \"#utility.yul\":3683:3690   */\n      dup7\n        /* \"#utility.yul\":3674:3680   */\n      dup3\n        /* \"#utility.yul\":3663:3672   */\n      dup8\n        /* \"#utility.yul\":3659:3681   */\n      add\n        /* \"#utility.yul\":3638:3691   */\n      tag_238\n      jump\t// in\n    tag_346:\n        /* \"#utility.yul\":3628:3691   */\n      swap2\n      pop\n        /* \"#utility.yul\":3583:3701   */\n      pop\n        /* \"#utility.yul\":2909:3708   */\n      swap3\n      pop\n      swap3\n      pop\n      swap3\n      jump\t// out\n        /* \"#utility.yul\":3714:3840   */\n    tag_239:\n        /* \"#utility.yul\":3751:3758   */\n      0x00\n        /* \"#utility.yul\":3791:3833   */\n      0xffffffffffffffffffffffffffffffffffffffff\n        /* \"#utility.yul\":3784:3789   */\n      dup3\n        /* \"#utility.yul\":3780:3834   */\n      and\n        /* \"#utility.yul\":3769:3834   */\n      swap1\n      pop\n        /* \"#utility.yul\":3714:3840   */\n      swap2\n      swap1\n      pop\n      jump\t// out\n        /* \"#utility.yul\":3846:3942   */\n    tag_240:\n        /* \"#utility.yul\":3883:3890   */\n      0x00\n        /* \"#utility.yul\":3912:3936   */\n      tag_349\n        /* \"#utility.yul\":3930:3935   */\n      dup3\n        /* \"#utility.yul\":3912:3936   */\n      tag_239\n      jump\t// in\n    tag_349:\n        /* \"#utility.yul\":3901:3936   */\n      swap1\n      pop\n        /* \"#utility.yul\":3846:3942   */\n      swap2\n      swap1\n      pop\n      jump\t// out\n        /* \"#utility.yul\":3948:4070   */\n    tag_241:\n        /* \"#utility.yul\":4021:4045   */\n      tag_351\n        /* \"#utility.yul\":4039:4044   */\n      dup2\n        /* \"#utility.yul\":4021:4045   */\n      tag_240\n      jump\t// in\n    tag_351:\n        /* \"#utility.yul\":4014:4019   */\n      dup2\n        /* \"#utility.yul\":4011:4046   */\n      eq\n        /* \"#utility.yul\":4001:4064   */\n      tag_352\n      jumpi\n        /* \"#utility.yul\":4060:4061   */\n      0x00\n        /* \"#utility.yul\":4057:4058   */\n      dup1\n        /* \"#utility.yul\":4050:4062   */\n      revert\n        /* \"#utility.yul\":4001:4064   */\n    tag_352:\n        /* \"#utility.yul\":3948:4070   */\n      pop\n      jump\t// out\n        /* \"#utility.yul\":4076:4215   */\n    tag_242:\n        /* \"#utility.yul\":4122:4127   */\n      0x00\n        /* \"#utility.yul\":4160:4166   */\n      dup2\n        /* \"#utility.yul\":4147:4167   */\n      calldataload\n        /* \"#utility.yul\":4138:4167   */\n      swap1\n      pop\n        /* \"#utility.yul\":4176:4209   */\n      tag_354\n        /* \"#utility.yul\":4203:4208   */\n      dup2\n        /* \"#utility.yul\":4176:4209   */\n      tag_241\n      jump\t// in\n    tag_354:\n        /* \"#utility.yul\":4076:4215   */\n      swap3\n      swap2\n      pop\n      pop\n      jump\t// out\n        /* \"#utility.yul\":4221:4550   */\n    tag_23:\n        /* \"#utility.yul\":4280:4286   */\n      0x00\n        /* \"#utility.yul\":4329:4331   */\n      0x20\n        /* \"#utility.yul\":4317:4326   */\n      dup3\n        /* \"#utility.yul\":4308:4315   */\n      dup5\n        /* \"#utility.yul\":4304:4327   */\n      sub\n        /* \"#utility.yul\":4300:4332   */\n      slt\n        /* \"#utility.yul\":4297:4416   */\n      iszero\n      tag_356\n      jumpi\n        /* \"#utility.yul\":4335:4414   */\n      tag_357\n      tag_224\n      jump\t// in\n    tag_357:\n        /* \"#utility.yul\":4297:4416   */\n    tag_356:\n        /* \"#utility.yul\":4455:4456   */\n      0x00\n        /* \"#utility.yul\":4480:4533   */\n      tag_358\n        /* \"#utility.yul\":4525:4532   */\n      dup5\n        /* \"#utility.yul\":4516:4522   */\n      dup3\n        /* \"#utility.yul\":4505:4514   */\n      dup6\n        /* \"#utility.yul\":4501:4523   */\n      add\n        /* \"#utility.yul\":4480:4533   */\n      tag_242\n      jump\t// in\n    tag_358:\n        /* \"#utility.yul\":4470:4533   */\n      swap2\n      pop\n        /* \"#utility.yul\":4426:4543   */\n      pop\n        /* \"#utility.yul\":4221:4550   */\n      swap3\n      swap2\n      pop\n      pop\n      jump\t// out\n        /* \"#utility.yul\":4556:4674   */\n    tag_243:\n        /* \"#utility.yul\":4643:4667   */\n      tag_360\n        /* \"#utility.yul\":4661:4666   */\n      dup2\n        /* \"#utility.yul\":4643:4667   */\n      tag_236\n      jump\t// in\n    tag_360:\n        /* \"#utility.yul\":4638:4641   */\n      dup3\n        /* \"#utility.yul\":4631:4668   */\n      mstore\n        /* \"#utility.yul\":4556:4674   */\n      pop\n      pop\n      jump\t// out\n        /* \"#utility.yul\":4680:4902   */\n    tag_26:\n        /* \"#utility.yul\":4773:4777   */\n      0x00\n        /* \"#utility.yul\":4811:4813   */\n      0x20\n        /* \"#utility.yul\":4800:4809   */\n      dup3\n        /* \"#utility.yul\":4796:4814   */\n      add\n        /* \"#utility.yul\":4788:4814   */\n      swap1\n      pop\n        /* \"#utility.yul\":4824:4895   */\n      tag_362\n        /* \"#utility.yul\":4892:4893   */\n      0x00\n        /* \"#utility.yul\":4881:4890   */\n      dup4\n        /* \"#utility.yul\":4877:4894   */\n      add\n        /* \"#utility.yul\":4868:4874   */\n      dup5\n        /* \"#utility.yul\":4824:4895   */\n      tag_243\n      jump\t// in\n    tag_362:\n        /* \"#utility.yul\":4680:4902   */\n      swap3\n      swap2\n      pop\n      pop\n      jump\t// out\n        /* \"#utility.yul\":4908:5382   */\n    tag_30:\n        /* \"#utility.yul\":4976:4982   */\n      0x00\n        /* \"#utility.yul\":4984:4990   */\n      dup1\n        /* \"#utility.yul\":5033:5035   */\n      0x40\n        /* \"#utility.yul\":5021:5030   */\n      dup4\n        /* \"#utility.yul\":5012:5019   */\n      dup6\n        /* \"#utility.yul\":5008:5031   */\n      sub\n        /* \"#utility.yul\":5004:5036   */\n      slt\n        /* \"#utility.yul\":5001:5120   */\n      iszero\n      tag_364\n      jumpi\n        /* \"#utility.yul\":5039:5118   */\n      tag_365\n      tag_224\n      jump\t// in\n    tag_365:\n        /* \"#utility.yul\":5001:5120   */\n    tag_364:\n        /* \"#utility.yul\":5159:5160   */\n      0x00\n        /* \"#utility.yul\":5184:5237   */\n      tag_366\n        /* \"#utility.yul\":5229:5236   */\n      dup6\n        /* \"#utility.yul\":5220:5226   */\n      dup3\n        /* \"#utility.yul\":5209:5218   */\n      dup7\n        /* \"#utility.yul\":5205:5227   */\n      add\n        /* \"#utility.yul\":5184:5237   */\n      tag_242\n      jump\t// in\n    tag_366:\n        /* \"#utility.yul\":5174:5237   */\n      swap3\n      pop\n        /* \"#utility.yul\":5130:5247   */\n      pop\n        /* \"#utility.yul\":5286:5288   */\n      0x20\n        /* \"#utility.yul\":5312:5365   */\n      tag_367\n        /* \"#utility.yul\":5357:5364   */\n      dup6\n        /* \"#utility.yul\":5348:5354   */\n      dup3\n        /* \"#utility.yul\":5337:5346   */\n      dup7\n        /* \"#utility.yul\":5333:5355   */\n      add\n        /* \"#utility.yul\":5312:5365   */\n      tag_238\n      jump\t// in\n    tag_367:\n        /* \"#utility.yul\":5302:5365   */\n      swap2\n      pop\n        /* \"#utility.yul\":5257:5375   */\n      pop\n        /* \"#utility.yul\":4908:5382   */\n      swap3\n      pop\n      swap3\n      swap1\n      pop\n      jump\t// out\n        /* \"#utility.yul\":5388:5529   */\n    tag_244:\n        /* \"#utility.yul\":5482:5488   */\n      0x00\n        /* \"#utility.yul\":5516:5521   */\n      dup2\n        /* \"#utility.yul\":5510:5522   */\n      mload\n        /* \"#utility.yul\":5500:5522   */\n      swap1\n      pop\n        /* \"#utility.yul\":5388:5529   */\n      swap2\n      swap1\n      pop\n      jump\t// out\n        /* \"#utility.yul\":5535:5746   */\n    tag_245:\n        /* \"#utility.yul\":5661:5672   */\n      0x00\n        /* \"#utility.yul\":5695:5701   */\n      dup3\n        /* \"#utility.yul\":5690:5693   */\n      dup3\n        /* \"#utility.yul\":5683:5702   */\n      mstore\n        /* \"#utility.yul\":5735:5739   */\n      0x20\n        /* \"#utility.yul\":5730:5733   */\n      dup3\n        /* \"#utility.yul\":5726:5740   */\n      add\n        /* \"#utility.yul\":5711:5740   */\n      swap1\n      pop\n        /* \"#utility.yul\":5535:5746   */\n      swap3\n      swap2\n      pop\n      pop\n      jump\t// out\n        /* \"#utility.yul\":5752:5911   */\n    tag_246:\n        /* \"#utility.yul\":5846:5850   */\n      0x00\n        /* \"#utility.yul\":5869:5872   */\n      dup2\n        /* \"#utility.yul\":5861:5872   */\n      swap1\n      pop\n        /* \"#utility.yul\":5899:5903   */\n      0x20\n        /* \"#utility.yul\":5894:5897   */\n      dup3\n        /* \"#utility.yul\":5890:5904   */\n      add\n        /* \"#utility.yul\":5882:5904   */\n      swap1\n      pop\n        /* \"#utility.yul\":5752:5911   */\n      swap2\n      swap1\n      pop\n      jump\t// out\n        /* \"#utility.yul\":5917:6016   */\n    tag_247:\n        /* \"#utility.yul\":5969:5975   */\n      0x00\n        /* \"#utility.yul\":6003:6008   */\n      dup2\n        /* \"#utility.yul\":5997:6009   */\n      mload\n        /* \"#utility.yul\":5987:6009   */\n      swap1\n      pop\n        /* \"#utility.yul\":5917:6016   */\n      swap2\n      swap1\n      pop\n      jump\t// out\n        /* \"#utility.yul\":6022:6181   */\n    tag_248:\n        /* \"#utility.yul\":6096:6107   */\n      0x00\n        /* \"#utility.yul\":6130:6136   */\n      dup3\n        /* \"#utility.yul\":6125:6128   */\n      dup3\n        /* \"#utility.yul\":6118:6137   */\n      mstore\n        /* \"#utility.yul\":6170:6174   */\n      0x20\n        /* \"#utility.yul\":6165:6168   */\n      dup3\n        /* \"#utility.yul\":6161:6175   */\n      add\n        /* \"#utility.yul\":6146:6175   */\n      swap1\n      pop\n        /* \"#utility.yul\":6022:6181   */\n      swap3\n      swap2\n      pop\n      pop\n      jump\t// out\n        /* \"#utility.yul\":6187:6433   */\n    tag_249:\n        /* \"#utility.yul\":6268:6269   */\n      0x00\n        /* \"#utility.yul\":6278:6391   */\n    tag_374:\n        /* \"#utility.yul\":6292:6298   */\n      dup4\n        /* \"#utility.yul\":6289:6290   */\n      dup2\n        /* \"#utility.yul\":6286:6299   */\n      lt\n        /* \"#utility.yul\":6278:6391   */\n      iszero\n      tag_376\n      jumpi\n        /* \"#utility.yul\":6377:6378   */\n      dup1\n        /* \"#utility.yul\":6372:6375   */\n      dup3\n        /* \"#utility.yul\":6368:6379   */\n      add\n        /* \"#utility.yul\":6362:6380   */\n      mload\n        /* \"#utility.yul\":6358:6359   */\n      dup2\n        /* \"#utility.yul\":6353:6356   */\n      dup5\n        /* \"#utility.yul\":6349:6360   */\n      add\n        /* \"#utility.yul\":6342:6381   */\n      mstore\n        /* \"#utility.yul\":6314:6316   */\n      0x20\n        /* \"#utility.yul\":6311:6312   */\n      dup2\n        /* \"#utility.yul\":6307:6317   */\n      add\n        /* \"#utility.yul\":6302:6317   */\n      swap1\n      pop\n        /* \"#utility.yul\":6278:6391   */\n      jump(tag_374)\n    tag_376:\n        /* \"#utility.yul\":6425:6426   */\n      0x00\n        /* \"#utility.yul\":6416:6422   */\n      dup5\n        /* \"#utility.yul\":6411:6414   */\n      dup5\n        /* \"#utility.yul\":6407:6423   */\n      add\n        /* \"#utility.yul\":6400:6427   */\n      mstore\n        /* \"#utility.yul\":6249:6433   */\n      pop\n        /* \"#utility.yul\":6187:6433   */\n      pop\n      pop\n      pop\n      jump\t// out\n        /* \"#utility.yul\":6439:6796   */\n    tag_250:\n        /* \"#utility.yul\":6517:6520   */\n      0x00\n        /* \"#utility.yul\":6545:6584   */\n      tag_378\n        /* \"#utility.yul\":6578:6583   */\n      dup3\n        /* \"#utility.yul\":6545:6584   */\n      tag_247\n      jump\t// in\n    tag_378:\n        /* \"#utility.yul\":6600:6661   */\n      tag_379\n        /* \"#utility.yul\":6654:6660   */\n      dup2\n        /* \"#utility.yul\":6649:6652   */\n      dup6\n        /* \"#utility.yul\":6600:6661   */\n      tag_248\n      jump\t// in\n    tag_379:\n        /* \"#utility.yul\":6593:6661   */\n      swap4\n      pop\n        /* \"#utility.yul\":6670:6735   */\n      tag_380\n        /* \"#utility.yul\":6728:6734   */\n      dup2\n        /* \"#utility.yul\":6723:6726   */\n      dup6\n        /* \"#utility.yul\":6716:6720   */\n      0x20\n        /* \"#utility.yul\":6709:6714   */\n      dup7\n        /* \"#utility.yul\":6705:6721   */\n      add\n        /* \"#utility.yul\":6670:6735   */\n      tag_249\n      jump\t// in\n    tag_380:\n        /* \"#utility.yul\":6760:6789   */\n      tag_381\n        /* \"#utility.yul\":6782:6788   */\n      dup2\n        /* \"#utility.yul\":6760:6789   */\n      tag_228\n      jump\t// in\n    tag_381:\n        /* \"#utility.yul\":6755:6758   */\n      dup5\n        /* \"#utility.yul\":6751:6790   */\n      add\n        /* \"#utility.yul\":6744:6790   */\n      swap2\n      pop\n        /* \"#utility.yul\":6521:6796   */\n      pop\n        /* \"#utility.yul\":6439:6796   */\n      swap3\n      swap2\n      pop\n      pop\n      jump\t// out\n        /* \"#utility.yul\":6802:6910   */\n    tag_251:\n        /* \"#utility.yul\":6879:6903   */\n      tag_383\n        /* \"#utility.yul\":6897:6902   */\n      dup2\n        /* \"#utility.yul\":6879:6903   */\n      tag_236\n      jump\t// in\n    tag_383:\n        /* \"#utility.yul\":6874:6877   */\n      dup3\n        /* \"#utility.yul\":6867:6904   */\n      mstore\n        /* \"#utility.yul\":6802:6910   */\n      pop\n      pop\n      jump\t// out\n        /* \"#utility.yul\":6916:7006   */\n    tag_252:\n        /* \"#utility.yul\":6950:6957   */\n      0x00\n        /* \"#utility.yul\":6993:6998   */\n      dup2\n        /* \"#utility.yul\":6986:6999   */\n      iszero\n        /* \"#utility.yul\":6979:7000   */\n      iszero\n        /* \"#utility.yul\":6968:7000   */\n      swap1\n      pop\n        /* \"#utility.yul\":6916:7006   */\n      swap2\n      swap1\n      pop\n      jump\t// out\n        /* \"#utility.yul\":7012:7111   */\n    tag_253:\n        /* \"#utility.yul\":7083:7104   */\n      tag_386\n        /* \"#utility.yul\":7098:7103   */\n      dup2\n        /* \"#utility.yul\":7083:7104   */\n      tag_252\n      jump\t// in\n    tag_386:\n        /* \"#utility.yul\":7078:7081   */\n      dup3\n        /* \"#utility.yul\":7071:7105   */\n      mstore\n        /* \"#utility.yul\":7012:7111   */\n      pop\n      pop\n      jump\t// out\n        /* \"#utility.yul\":7185:8505   */\n    tag_254:\n        /* \"#utility.yul\":7298:7301   */\n      0x00\n        /* \"#utility.yul\":7334:7338   */\n      0xc0\n        /* \"#utility.yul\":7329:7332   */\n      dup4\n        /* \"#utility.yul\":7325:7339   */\n      add\n        /* \"#utility.yul\":7421:7425   */\n      0x00\n        /* \"#utility.yul\":7414:7419   */\n      dup4\n        /* \"#utility.yul\":7410:7426   */\n      add\n        /* \"#utility.yul\":7404:7427   */\n      mload\n        /* \"#utility.yul\":7474:7477   */\n      dup5\n        /* \"#utility.yul\":7468:7472   */\n      dup3\n        /* \"#utility.yul\":7464:7478   */\n      sub\n        /* \"#utility.yul\":7457:7461   */\n      0x00\n        /* \"#utility.yul\":7452:7455   */\n      dup7\n        /* \"#utility.yul\":7448:7462   */\n      add\n        /* \"#utility.yul\":7441:7479   */\n      mstore\n        /* \"#utility.yul\":7500:7573   */\n      tag_388\n        /* \"#utility.yul\":7568:7572   */\n      dup3\n        /* \"#utility.yul\":7554:7566   */\n      dup3\n        /* \"#utility.yul\":7500:7573   */\n      tag_250\n      jump\t// in\n    tag_388:\n        /* \"#utility.yul\":7492:7573   */\n      swap2\n      pop\n        /* \"#utility.yul\":7349:7584   */\n      pop\n        /* \"#utility.yul\":7674:7678   */\n      0x20\n        /* \"#utility.yul\":7667:7672   */\n      dup4\n        /* \"#utility.yul\":7663:7679   */\n      add\n        /* \"#utility.yul\":7657:7680   */\n      mload\n        /* \"#utility.yul\":7693:7756   */\n      tag_389\n        /* \"#utility.yul\":7750:7754   */\n      0x20\n        /* \"#utility.yul\":7745:7748   */\n      dup7\n        /* \"#utility.yul\":7741:7755   */\n      add\n        /* \"#utility.yul\":7727:7739   */\n      dup3\n        /* \"#utility.yul\":7693:7756   */\n      tag_251\n      jump\t// in\n    tag_389:\n        /* \"#utility.yul\":7594:7766   */\n      pop\n        /* \"#utility.yul\":7857:7861   */\n      0x40\n        /* \"#utility.yul\":7850:7855   */\n      dup4\n        /* \"#utility.yul\":7846:7862   */\n      add\n        /* \"#utility.yul\":7840:7863   */\n      mload\n        /* \"#utility.yul\":7876:7939   */\n      tag_390\n        /* \"#utility.yul\":7933:7937   */\n      0x40\n        /* \"#utility.yul\":7928:7931   */\n      dup7\n        /* \"#utility.yul\":7924:7938   */\n      add\n        /* \"#utility.yul\":7910:7922   */\n      dup3\n        /* \"#utility.yul\":7876:7939   */\n      tag_251\n      jump\t// in\n    tag_390:\n        /* \"#utility.yul\":7776:7949   */\n      pop\n        /* \"#utility.yul\":8035:8039   */\n      0x60\n        /* \"#utility.yul\":8028:8033   */\n      dup4\n        /* \"#utility.yul\":8024:8040   */\n      add\n        /* \"#utility.yul\":8018:8041   */\n      mload\n        /* \"#utility.yul\":8054:8117   */\n      tag_391\n        /* \"#utility.yul\":8111:8115   */\n      0x60\n        /* \"#utility.yul\":8106:8109   */\n      dup7\n        /* \"#utility.yul\":8102:8116   */\n      add\n        /* \"#utility.yul\":8088:8100   */\n      dup3\n        /* \"#utility.yul\":8054:8117   */\n      tag_251\n      jump\t// in\n    tag_391:\n        /* \"#utility.yul\":7959:8127   */\n      pop\n        /* \"#utility.yul\":8213:8217   */\n      0x80\n        /* \"#utility.yul\":8206:8211   */\n      dup4\n        /* \"#utility.yul\":8202:8218   */\n      add\n        /* \"#utility.yul\":8196:8219   */\n      mload\n        /* \"#utility.yul\":8232:8289   */\n      tag_392\n        /* \"#utility.yul\":8283:8287   */\n      0x80\n        /* \"#utility.yul\":8278:8281   */\n      dup7\n        /* \"#utility.yul\":8274:8288   */\n      add\n        /* \"#utility.yul\":8260:8272   */\n      dup3\n        /* \"#utility.yul\":8232:8289   */\n      tag_253\n      jump\t// in\n    tag_392:\n        /* \"#utility.yul\":8137:8299   */\n      pop\n        /* \"#utility.yul\":8386:8390   */\n      0xa0\n        /* \"#utility.yul\":8379:8384   */\n      dup4\n        /* \"#utility.yul\":8375:8391   */\n      add\n        /* \"#utility.yul\":8369:8392   */\n      mload\n        /* \"#utility.yul\":8405:8468   */\n      tag_393\n        /* \"#utility.yul\":8462:8466   */\n      0xa0\n        /* \"#utility.yul\":8457:8460   */\n      dup7\n        /* \"#utility.yul\":8453:8467   */\n      add\n        /* \"#utility.yul\":8439:8451   */\n      dup3\n        /* \"#utility.yul\":8405:8468   */\n      tag_251\n      jump\t// in\n    tag_393:\n        /* \"#utility.yul\":8309:8478   */\n      pop\n        /* \"#utility.yul\":8495:8499   */\n      dup1\n        /* \"#utility.yul\":8488:8499   */\n      swap2\n      pop\n        /* \"#utility.yul\":7303:8505   */\n      pop\n        /* \"#utility.yul\":7185:8505   */\n      swap3\n      swap2\n      pop\n      pop\n      jump\t// out\n        /* \"#utility.yul\":8511:8775   */\n    tag_255:\n        /* \"#utility.yul\":8634:8644   */\n      0x00\n        /* \"#utility.yul\":8669:8769   */\n      tag_395\n        /* \"#utility.yul\":8765:8768   */\n      dup4\n        /* \"#utility.yul\":8757:8763   */\n      dup4\n        /* \"#utility.yul\":8669:8769   */\n      tag_254\n      jump\t// in\n    tag_395:\n        /* \"#utility.yul\":8655:8769   */\n      swap1\n      pop\n        /* \"#utility.yul\":8511:8775   */\n      swap3\n      swap2\n      pop\n      pop\n      jump\t// out\n        /* \"#utility.yul\":8781:8921   */\n    tag_256:\n        /* \"#utility.yul\":8878:8882   */\n      0x00\n        /* \"#utility.yul\":8910:8914   */\n      0x20\n        /* \"#utility.yul\":8905:8908   */\n      dup3\n        /* \"#utility.yul\":8901:8915   */\n      add\n        /* \"#utility.yul\":8893:8915   */\n      swap1\n      pop\n        /* \"#utility.yul\":8781:8921   */\n      swap2\n      swap1\n      pop\n      jump\t// out\n        /* \"#utility.yul\":8999:10126   */\n    tag_257:\n        /* \"#utility.yul\":9172:9175   */\n      0x00\n        /* \"#utility.yul\":9201:9282   */\n      tag_398\n        /* \"#utility.yul\":9276:9281   */\n      dup3\n        /* \"#utility.yul\":9201:9282   */\n      tag_244\n      jump\t// in\n    tag_398:\n        /* \"#utility.yul\":9298:9411   */\n      tag_399\n        /* \"#utility.yul\":9404:9410   */\n      dup2\n        /* \"#utility.yul\":9399:9402   */\n      dup6\n        /* \"#utility.yul\":9298:9411   */\n      tag_245\n      jump\t// in\n    tag_399:\n        /* \"#utility.yul\":9291:9411   */\n      swap4\n      pop\n        /* \"#utility.yul\":9437:9440   */\n      dup4\n        /* \"#utility.yul\":9482:9486   */\n      0x20\n        /* \"#utility.yul\":9474:9480   */\n      dup3\n        /* \"#utility.yul\":9470:9487   */\n      mul\n        /* \"#utility.yul\":9465:9468   */\n      dup6\n        /* \"#utility.yul\":9461:9488   */\n      add\n        /* \"#utility.yul\":9512:9595   */\n      tag_400\n        /* \"#utility.yul\":9589:9594   */\n      dup6\n        /* \"#utility.yul\":9512:9595   */\n      tag_246\n      jump\t// in\n    tag_400:\n        /* \"#utility.yul\":9618:9625   */\n      dup1\n        /* \"#utility.yul\":9649:9650   */\n      0x00\n        /* \"#utility.yul\":9634:10081   */\n    tag_401:\n        /* \"#utility.yul\":9659:9665   */\n      dup6\n        /* \"#utility.yul\":9656:9657   */\n      dup2\n        /* \"#utility.yul\":9653:9666   */\n      lt\n        /* \"#utility.yul\":9634:10081   */\n      iszero\n      tag_403\n      jumpi\n        /* \"#utility.yul\":9730:9739   */\n      dup5\n        /* \"#utility.yul\":9724:9728   */\n      dup5\n        /* \"#utility.yul\":9720:9740   */\n      sub\n        /* \"#utility.yul\":9715:9718   */\n      dup10\n        /* \"#utility.yul\":9708:9741   */\n      mstore\n        /* \"#utility.yul\":9781:9787   */\n      dup2\n        /* \"#utility.yul\":9775:9788   */\n      mload\n        /* \"#utility.yul\":9809:9927   */\n      tag_404\n        /* \"#utility.yul\":9922:9926   */\n      dup6\n        /* \"#utility.yul\":9907:9920   */\n      dup3\n        /* \"#utility.yul\":9809:9927   */\n      tag_255\n      jump\t// in\n    tag_404:\n        /* \"#utility.yul\":9801:9927   */\n      swap5\n      pop\n        /* \"#utility.yul\":9950:10037   */\n      tag_405\n        /* \"#utility.yul\":10030:10036   */\n      dup4\n        /* \"#utility.yul\":9950:10037   */\n      tag_256\n      jump\t// in\n    tag_405:\n        /* \"#utility.yul\":9940:10037   */\n      swap3\n      pop\n        /* \"#utility.yul\":10066:10070   */\n      0x20\n        /* \"#utility.yul\":10061:10064   */\n      dup11\n        /* \"#utility.yul\":10057:10071   */\n      add\n        /* \"#utility.yul\":10050:10071   */\n      swap10\n      pop\n        /* \"#utility.yul\":9694:10081   */\n      pop\n        /* \"#utility.yul\":9681:9682   */\n      0x01\n        /* \"#utility.yul\":9678:9679   */\n      dup2\n        /* \"#utility.yul\":9674:9683   */\n      add\n        /* \"#utility.yul\":9669:9683   */\n      swap1\n      pop\n        /* \"#utility.yul\":9634:10081   */\n      jump(tag_401)\n    tag_403:\n        /* \"#utility.yul\":9638:9652   */\n      pop\n        /* \"#utility.yul\":10097:10101   */\n      dup3\n        /* \"#utility.yul\":10090:10101   */\n      swap8\n      pop\n        /* \"#utility.yul\":10117:10120   */\n      dup8\n        /* \"#utility.yul\":10110:10120   */\n      swap6\n      pop\n        /* \"#utility.yul\":9177:10126   */\n      pop\n      pop\n      pop\n      pop\n      pop\n        /* \"#utility.yul\":8999:10126   */\n      swap3\n      swap2\n      pop\n      pop\n      jump\t// out\n        /* \"#utility.yul\":10132:10613   */\n    tag_38:\n        /* \"#utility.yul\":10329:10333   */\n      0x00\n        /* \"#utility.yul\":10367:10369   */\n      0x20\n        /* \"#utility.yul\":10356:10365   */\n      dup3\n        /* \"#utility.yul\":10352:10370   */\n      add\n        /* \"#utility.yul\":10344:10370   */\n      swap1\n      pop\n        /* \"#utility.yul\":10416:10425   */\n      dup2\n        /* \"#utility.yul\":10410:10414   */\n      dup2\n        /* \"#utility.yul\":10406:10426   */\n      sub\n        /* \"#utility.yul\":10402:10403   */\n      0x00\n        /* \"#utility.yul\":10391:10400   */\n      dup4\n        /* \"#utility.yul\":10387:10404   */\n      add\n        /* \"#utility.yul\":10380:10427   */\n      mstore\n        /* \"#utility.yul\":10444:10606   */\n      tag_407\n        /* \"#utility.yul\":10601:10605   */\n      dup2\n        /* \"#utility.yul\":10592:10598   */\n      dup5\n        /* \"#utility.yul\":10444:10606   */\n      tag_257\n      jump\t// in\n    tag_407:\n        /* \"#utility.yul\":10436:10606   */\n      swap1\n      pop\n        /* \"#utility.yul\":10132:10613   */\n      swap3\n      swap2\n      pop\n      pop\n      jump\t// out\n        /* \"#utility.yul\":10619:11093   */\n    tag_42:\n        /* \"#utility.yul\":10687:10693   */\n      0x00\n        /* \"#utility.yul\":10695:10701   */\n      dup1\n        /* \"#utility.yul\":10744:10746   */\n      0x40\n        /* \"#utility.yul\":10732:10741   */\n      dup4\n        /* \"#utility.yul\":10723:10730   */\n      dup6\n        /* \"#utility.yul\":10719:10742   */\n      sub\n        /* \"#utility.yul\":10715:10747   */\n      slt\n        /* \"#utility.yul\":10712:10831   */\n      iszero\n      tag_409\n      jumpi\n        /* \"#utility.yul\":10750:10829   */\n      tag_410\n      tag_224\n      jump\t// in\n    tag_410:\n        /* \"#utility.yul\":10712:10831   */\n    tag_409:\n        /* \"#utility.yul\":10870:10871   */\n      0x00\n        /* \"#utility.yul\":10895:10948   */\n      tag_411\n        /* \"#utility.yul\":10940:10947   */\n      dup6\n        /* \"#utility.yul\":10931:10937   */\n      dup3\n        /* \"#utility.yul\":10920:10929   */\n      dup7\n        /* \"#utility.yul\":10916:10938   */\n      add\n        /* \"#utility.yul\":10895:10948   */\n      tag_238\n      jump\t// in\n    tag_411:\n        /* \"#utility.yul\":10885:10948   */\n      swap3\n      pop\n        /* \"#utility.yul\":10841:10958   */\n      pop\n        /* \"#utility.yul\":10997:10999   */\n      0x20\n        /* \"#utility.yul\":11023:11076   */\n      tag_412\n        /* \"#utility.yul\":11068:11075   */\n      dup6\n        /* \"#utility.yul\":11059:11065   */\n      dup3\n        /* \"#utility.yul\":11048:11057   */\n      dup7\n        /* \"#utility.yul\":11044:11066   */\n      add\n        /* \"#utility.yul\":11023:11076   */\n      tag_238\n      jump\t// in\n    tag_412:\n        /* \"#utility.yul\":11013:11076   */\n      swap2\n      pop\n        /* \"#utility.yul\":10968:11086   */\n      pop\n        /* \"#utility.yul\":10619:11093   */\n      swap3\n      pop\n      swap3\n      swap1\n      pop\n      jump\t// out\n        /* \"#utility.yul\":11099:11268   */\n    tag_258:\n        /* \"#utility.yul\":11183:11194   */\n      0x00\n        /* \"#utility.yul\":11217:11223   */\n      dup3\n        /* \"#utility.yul\":11212:11215   */\n      dup3\n        /* \"#utility.yul\":11205:11224   */\n      mstore\n        /* \"#utility.yul\":11257:11261   */\n      0x20\n        /* \"#utility.yul\":11252:11255   */\n      dup3\n        /* \"#utility.yul\":11248:11262   */\n      add\n        /* \"#utility.yul\":11233:11262   */\n      swap1\n      pop\n        /* \"#utility.yul\":11099:11268   */\n      swap3\n      swap2\n      pop\n      pop\n      jump\t// out\n        /* \"#utility.yul\":11274:11651   */\n    tag_259:\n        /* \"#utility.yul\":11362:11365   */\n      0x00\n        /* \"#utility.yul\":11390:11429   */\n      tag_415\n        /* \"#utility.yul\":11423:11428   */\n      dup3\n        /* \"#utility.yul\":11390:11429   */\n      tag_247\n      jump\t// in\n    tag_415:\n        /* \"#utility.yul\":11445:11516   */\n      tag_416\n        /* \"#utility.yul\":11509:11515   */\n      dup2\n        /* \"#utility.yul\":11504:11507   */\n      dup6\n        /* \"#utility.yul\":11445:11516   */\n      tag_258\n      jump\t// in\n    tag_416:\n        /* \"#utility.yul\":11438:11516   */\n      swap4\n      pop\n        /* \"#utility.yul\":11525:11590   */\n      tag_417\n        /* \"#utility.yul\":11583:11589   */\n      dup2\n        /* \"#utility.yul\":11578:11581   */\n      dup6\n        /* \"#utility.yul\":11571:11575   */\n      0x20\n        /* \"#utility.yul\":11564:11569   */\n      dup7\n        /* \"#utility.yul\":11560:11576   */\n      add\n        /* \"#utility.yul\":11525:11590   */\n      tag_249\n      jump\t// in\n    tag_417:\n        /* \"#utility.yul\":11615:11644   */\n      tag_418\n        /* \"#utility.yul\":11637:11643   */\n      dup2\n        /* \"#utility.yul\":11615:11644   */\n      tag_228\n      jump\t// in\n    tag_418:\n        /* \"#utility.yul\":11610:11613   */\n      dup5\n        /* \"#utility.yul\":11606:11645   */\n      add\n        /* \"#utility.yul\":11599:11645   */\n      swap2\n      pop\n        /* \"#utility.yul\":11366:11651   */\n      pop\n        /* \"#utility.yul\":11274:11651   */\n      swap3\n      swap2\n      pop\n      pop\n      jump\t// out\n        /* \"#utility.yul\":11657:11766   */\n    tag_260:\n        /* \"#utility.yul\":11738:11759   */\n      tag_420\n        /* \"#utility.yul\":11753:11758   */\n      dup2\n        /* \"#utility.yul\":11738:11759   */\n      tag_252\n      jump\t// in\n    tag_420:\n        /* \"#utility.yul\":11733:11736   */\n      dup3\n        /* \"#utility.yul\":11726:11760   */\n      mstore\n        /* \"#utility.yul\":11657:11766   */\n      pop\n      pop\n      jump\t// out\n        /* \"#utility.yul\":11772:12626   */\n    tag_59:\n        /* \"#utility.yul\":12019:12023   */\n      0x00\n        /* \"#utility.yul\":12057:12060   */\n      0xc0\n        /* \"#utility.yul\":12046:12055   */\n      dup3\n        /* \"#utility.yul\":12042:12061   */\n      add\n        /* \"#utility.yul\":12034:12061   */\n      swap1\n      pop\n        /* \"#utility.yul\":12107:12116   */\n      dup2\n        /* \"#utility.yul\":12101:12105   */\n      dup2\n        /* \"#utility.yul\":12097:12117   */\n      sub\n        /* \"#utility.yul\":12093:12094   */\n      0x00\n        /* \"#utility.yul\":12082:12091   */\n      dup4\n        /* \"#utility.yul\":12078:12095   */\n      add\n        /* \"#utility.yul\":12071:12118   */\n      mstore\n        /* \"#utility.yul\":12135:12213   */\n      tag_422\n        /* \"#utility.yul\":12208:12212   */\n      dup2\n        /* \"#utility.yul\":12199:12205   */\n      dup10\n        /* \"#utility.yul\":12135:12213   */\n      tag_259\n      jump\t// in\n    tag_422:\n        /* \"#utility.yul\":12127:12213   */\n      swap1\n      pop\n        /* \"#utility.yul\":12223:12295   */\n      tag_423\n        /* \"#utility.yul\":12291:12293   */\n      0x20\n        /* \"#utility.yul\":12280:12289   */\n      dup4\n        /* \"#utility.yul\":12276:12294   */\n      add\n        /* \"#utility.yul\":12267:12273   */\n      dup9\n        /* \"#utility.yul\":12223:12295   */\n      tag_243\n      jump\t// in\n    tag_423:\n        /* \"#utility.yul\":12305:12377   */\n      tag_424\n        /* \"#utility.yul\":12373:12375   */\n      0x40\n        /* \"#utility.yul\":12362:12371   */\n      dup4\n        /* \"#utility.yul\":12358:12376   */\n      add\n        /* \"#utility.yul\":12349:12355   */\n      dup8\n        /* \"#utility.yul\":12305:12377   */\n      tag_243\n      jump\t// in\n    tag_424:\n        /* \"#utility.yul\":12387:12459   */\n      tag_425\n        /* \"#utility.yul\":12455:12457   */\n      0x60\n        /* \"#utility.yul\":12444:12453   */\n      dup4\n        /* \"#utility.yul\":12440:12458   */\n      add\n        /* \"#utility.yul\":12431:12437   */\n      dup7\n        /* \"#utility.yul\":12387:12459   */\n      tag_243\n      jump\t// in\n    tag_425:\n        /* \"#utility.yul\":12469:12536   */\n      tag_426\n        /* \"#utility.yul\":12531:12534   */\n      0x80\n        /* \"#utility.yul\":12520:12529   */\n      dup4\n        /* \"#utility.yul\":12516:12535   */\n      add\n        /* \"#utility.yul\":12507:12513   */\n      dup6\n        /* \"#utility.yul\":12469:12536   */\n      tag_260\n      jump\t// in\n    tag_426:\n        /* \"#utility.yul\":12546:12619   */\n      tag_427\n        /* \"#utility.yul\":12614:12617   */\n      0xa0\n        /* \"#utility.yul\":12603:12612   */\n      dup4\n        /* \"#utility.yul\":12599:12618   */\n      add\n        /* \"#utility.yul\":12590:12596   */\n      dup5\n        /* \"#utility.yul\":12546:12619   */\n      tag_243\n      jump\t// in\n    tag_427:\n        /* \"#utility.yul\":11772:12626   */\n      swap8\n      swap7\n      pop\n      pop\n      pop\n      pop\n      pop\n      pop\n      pop\n      jump\t// out\n        /* \"#utility.yul\":12632:12961   */\n    tag_62:\n        /* \"#utility.yul\":12691:12697   */\n      0x00\n        /* \"#utility.yul\":12740:12742   */\n      0x20\n        /* \"#utility.yul\":12728:12737   */\n      dup3\n        /* \"#utility.yul\":12719:12726   */\n      dup5\n        /* \"#utility.yul\":12715:12738   */\n      sub\n        /* \"#utility.yul\":12711:12743   */\n      slt\n        /* \"#utility.yul\":12708:12827   */\n      iszero\n      tag_429\n      jumpi\n        /* \"#utility.yul\":12746:12825   */\n      tag_430\n      tag_224\n      jump\t// in\n    tag_430:\n        /* \"#utility.yul\":12708:12827   */\n    tag_429:\n        /* \"#utility.yul\":12866:12867   */\n      0x00\n        /* \"#utility.yul\":12891:12944   */\n      tag_431\n        /* \"#utility.yul\":12936:12943   */\n      dup5\n        /* \"#utility.yul\":12927:12933   */\n      dup3\n        /* \"#utility.yul\":12916:12925   */\n      dup6\n        /* \"#utility.yul\":12912:12934   */\n      add\n        /* \"#utility.yul\":12891:12944   */\n      tag_238\n      jump\t// in\n    tag_431:\n        /* \"#utility.yul\":12881:12944   */\n      swap2\n      pop\n        /* \"#utility.yul\":12837:12954   */\n      pop\n        /* \"#utility.yul\":12632:12961   */\n      swap3\n      swap2\n      pop\n      pop\n      jump\t// out\n        /* \"#utility.yul\":13035:14365   */\n    tag_261:\n        /* \"#utility.yul\":13158:13161   */\n      0x00\n        /* \"#utility.yul\":13194:13198   */\n      0xc0\n        /* \"#utility.yul\":13189:13192   */\n      dup4\n        /* \"#utility.yul\":13185:13199   */\n      add\n        /* \"#utility.yul\":13281:13285   */\n      0x00\n        /* \"#utility.yul\":13274:13279   */\n      dup4\n        /* \"#utility.yul\":13270:13286   */\n      add\n        /* \"#utility.yul\":13264:13287   */\n      mload\n        /* \"#utility.yul\":13334:13337   */\n      dup5\n        /* \"#utility.yul\":13328:13332   */\n      dup3\n        /* \"#utility.yul\":13324:13338   */\n      sub\n        /* \"#utility.yul\":13317:13321   */\n      0x00\n        /* \"#utility.yul\":13312:13315   */\n      dup7\n        /* \"#utility.yul\":13308:13322   */\n      add\n        /* \"#utility.yul\":13301:13339   */\n      mstore\n        /* \"#utility.yul\":13360:13433   */\n      tag_433\n        /* \"#utility.yul\":13428:13432   */\n      dup3\n        /* \"#utility.yul\":13414:13426   */\n      dup3\n        /* \"#utility.yul\":13360:13433   */\n      tag_250\n      jump\t// in\n    tag_433:\n        /* \"#utility.yul\":13352:13433   */\n      swap2\n      pop\n        /* \"#utility.yul\":13209:13444   */\n      pop\n        /* \"#utility.yul\":13534:13538   */\n      0x20\n        /* \"#utility.yul\":13527:13532   */\n      dup4\n        /* \"#utility.yul\":13523:13539   */\n      add\n        /* \"#utility.yul\":13517:13540   */\n      mload\n        /* \"#utility.yul\":13553:13616   */\n      tag_434\n        /* \"#utility.yul\":13610:13614   */\n      0x20\n        /* \"#utility.yul\":13605:13608   */\n      dup7\n        /* \"#utility.yul\":13601:13615   */\n      add\n        /* \"#utility.yul\":13587:13599   */\n      dup3\n        /* \"#utility.yul\":13553:13616   */\n      tag_251\n      jump\t// in\n    tag_434:\n        /* \"#utility.yul\":13454:13626   */\n      pop\n        /* \"#utility.yul\":13717:13721   */\n      0x40\n        /* \"#utility.yul\":13710:13715   */\n      dup4\n        /* \"#utility.yul\":13706:13722   */\n      add\n        /* \"#utility.yul\":13700:13723   */\n      mload\n        /* \"#utility.yul\":13736:13799   */\n      tag_435\n        /* \"#utility.yul\":13793:13797   */\n      0x40\n        /* \"#utility.yul\":13788:13791   */\n      dup7\n        /* \"#utility.yul\":13784:13798   */\n      add\n        /* \"#utility.yul\":13770:13782   */\n      dup3\n        /* \"#utility.yul\":13736:13799   */\n      tag_251\n      jump\t// in\n    tag_435:\n        /* \"#utility.yul\":13636:13809   */\n      pop\n        /* \"#utility.yul\":13895:13899   */\n      0x60\n        /* \"#utility.yul\":13888:13893   */\n      dup4\n        /* \"#utility.yul\":13884:13900   */\n      add\n        /* \"#utility.yul\":13878:13901   */\n      mload\n        /* \"#utility.yul\":13914:13977   */\n      tag_436\n        /* \"#utility.yul\":13971:13975   */\n      0x60\n        /* \"#utility.yul\":13966:13969   */\n      dup7\n        /* \"#utility.yul\":13962:13976   */\n      add\n        /* \"#utility.yul\":13948:13960   */\n      dup3\n        /* \"#utility.yul\":13914:13977   */\n      tag_251\n      jump\t// in\n    tag_436:\n        /* \"#utility.yul\":13819:13987   */\n      pop\n        /* \"#utility.yul\":14073:14077   */\n      0x80\n        /* \"#utility.yul\":14066:14071   */\n      dup4\n        /* \"#utility.yul\":14062:14078   */\n      add\n        /* \"#utility.yul\":14056:14079   */\n      mload\n        /* \"#utility.yul\":14092:14149   */\n      tag_437\n        /* \"#utility.yul\":14143:14147   */\n      0x80\n        /* \"#utility.yul\":14138:14141   */\n      dup7\n        /* \"#utility.yul\":14134:14148   */\n      add\n        /* \"#utility.yul\":14120:14132   */\n      dup3\n        /* \"#utility.yul\":14092:14149   */\n      tag_253\n      jump\t// in\n    tag_437:\n        /* \"#utility.yul\":13997:14159   */\n      pop\n        /* \"#utility.yul\":14246:14250   */\n      0xa0\n        /* \"#utility.yul\":14239:14244   */\n      dup4\n        /* \"#utility.yul\":14235:14251   */\n      add\n        /* \"#utility.yul\":14229:14252   */\n      mload\n        /* \"#utility.yul\":14265:14328   */\n      tag_438\n        /* \"#utility.yul\":14322:14326   */\n      0xa0\n        /* \"#utility.yul\":14317:14320   */\n      dup7\n        /* \"#utility.yul\":14313:14327   */\n      add\n        /* \"#utility.yul\":14299:14311   */\n      dup3\n        /* \"#utility.yul\":14265:14328   */\n      tag_251\n      jump\t// in\n    tag_438:\n        /* \"#utility.yul\":14169:14338   */\n      pop\n        /* \"#utility.yul\":14355:14359   */\n      dup1\n        /* \"#utility.yul\":14348:14359   */\n      swap2\n      pop\n        /* \"#utility.yul\":13163:14365   */\n      pop\n        /* \"#utility.yul\":13035:14365   */\n      swap3\n      swap2\n      pop\n      pop\n      jump\t// out\n        /* \"#utility.yul\":14371:14752   */\n    tag_69:\n        /* \"#utility.yul\":14518:14522   */\n      0x00\n        /* \"#utility.yul\":14556:14558   */\n      0x20\n        /* \"#utility.yul\":14545:14554   */\n      dup3\n        /* \"#utility.yul\":14541:14559   */\n      add\n        /* \"#utility.yul\":14533:14559   */\n      swap1\n      pop\n        /* \"#utility.yul\":14605:14614   */\n      dup2\n        /* \"#utility.yul\":14599:14603   */\n      dup2\n        /* \"#utility.yul\":14595:14615   */\n      sub\n        /* \"#utility.yul\":14591:14592   */\n      0x00\n        /* \"#utility.yul\":14580:14589   */\n      dup4\n        /* \"#utility.yul\":14576:14593   */\n      add\n        /* \"#utility.yul\":14569:14616   */\n      mstore\n        /* \"#utility.yul\":14633:14745   */\n      tag_440\n        /* \"#utility.yul\":14740:14744   */\n      dup2\n        /* \"#utility.yul\":14731:14737   */\n      dup5\n        /* \"#utility.yul\":14633:14745   */\n      tag_261\n      jump\t// in\n    tag_440:\n        /* \"#utility.yul\":14625:14745   */\n      swap1\n      pop\n        /* \"#utility.yul\":14371:14752   */\n      swap3\n      swap2\n      pop\n      pop\n      jump\t// out\n        /* \"#utility.yul\":14758:14968   */\n    tag_75:\n        /* \"#utility.yul\":14845:14849   */\n      0x00\n        /* \"#utility.yul\":14883:14885   */\n      0x20\n        /* \"#utility.yul\":14872:14881   */\n      dup3\n        /* \"#utility.yul\":14868:14886   */\n      add\n        /* \"#utility.yul\":14860:14886   */\n      swap1\n      pop\n        /* \"#utility.yul\":14896:14961   */\n      tag_442\n        /* \"#utility.yul\":14958:14959   */\n      0x00\n        /* \"#utility.yul\":14947:14956   */\n      dup4\n        /* \"#utility.yul\":14943:14960   */\n      add\n        /* \"#utility.yul\":14934:14940   */\n      dup5\n        /* \"#utility.yul\":14896:14961   */\n      tag_260\n      jump\t// in\n    tag_442:\n        /* \"#utility.yul\":14758:14968   */\n      swap3\n      swap2\n      pop\n      pop\n      jump\t// out\n        /* \"#utility.yul\":14974:15197   */\n    tag_262:\n        /* \"#utility.yul\":15114:15148   */\n      0x54617267657420616d6f756e74206d7573742062652067726561746572207468\n        /* \"#utility.yul\":15110:15111   */\n      0x00\n        /* \"#utility.yul\":15102:15108   */\n      dup3\n        /* \"#utility.yul\":15098:15112   */\n      add\n        /* \"#utility.yul\":15091:15149   */\n      mstore\n        /* \"#utility.yul\":15183:15189   */\n      0x616e203000000000000000000000000000000000000000000000000000000000\n        /* \"#utility.yul\":15178:15180   */\n      0x20\n        /* \"#utility.yul\":15170:15176   */\n      dup3\n        /* \"#utility.yul\":15166:15181   */\n      add\n        /* \"#utility.yul\":15159:15190   */\n      mstore\n        /* \"#utility.yul\":14974:15197   */\n      pop\n      jump\t// out\n        /* \"#utility.yul\":15203:15569   */\n    tag_263:\n        /* \"#utility.yul\":15345:15348   */\n      0x00\n        /* \"#utility.yul\":15366:15433   */\n      tag_445\n        /* \"#utility.yul\":15430:15432   */\n      0x24\n        /* \"#utility.yul\":15425:15428   */\n      dup4\n        /* \"#utility.yul\":15366:15433   */\n      tag_258\n      jump\t// in\n    tag_445:\n        /* \"#utility.yul\":15359:15433   */\n      swap2\n      pop\n        /* \"#utility.yul\":15442:15535   */\n      tag_446\n        /* \"#utility.yul\":15531:15534   */\n      dup3\n        /* \"#utility.yul\":15442:15535   */\n      tag_262\n      jump\t// in\n    tag_446:\n        /* \"#utility.yul\":15560:15562   */\n      0x40\n        /* \"#utility.yul\":15555:15558   */\n      dup3\n        /* \"#utility.yul\":15551:15563   */\n      add\n        /* \"#utility.yul\":15544:15563   */\n      swap1\n      pop\n        /* \"#utility.yul\":15203:15569   */\n      swap2\n      swap1\n      pop\n      jump\t// out\n        /* \"#utility.yul\":15575:15994   */\n    tag_83:\n        /* \"#utility.yul\":15741:15745   */\n      0x00\n        /* \"#utility.yul\":15779:15781   */\n      0x20\n        /* \"#utility.yul\":15768:15777   */\n      dup3\n        /* \"#utility.yul\":15764:15782   */\n      add\n        /* \"#utility.yul\":15756:15782   */\n      swap1\n      pop\n        /* \"#utility.yul\":15828:15837   */\n      dup2\n        /* \"#utility.yul\":15822:15826   */\n      dup2\n        /* \"#utility.yul\":15818:15838   */\n      sub\n        /* \"#utility.yul\":15814:15815   */\n      0x00\n        /* \"#utility.yul\":15803:15812   */\n      dup4\n        /* \"#utility.yul\":15799:15816   */\n      add\n        /* \"#utility.yul\":15792:15839   */\n      mstore\n        /* \"#utility.yul\":15856:15987   */\n      tag_448\n        /* \"#utility.yul\":15982:15986   */\n      dup2\n        /* \"#utility.yul\":15856:15987   */\n      tag_263\n      jump\t// in\n    tag_448:\n        /* \"#utility.yul\":15848:15987   */\n      swap1\n      pop\n        /* \"#utility.yul\":15575:15994   */\n      swap2\n      swap1\n      pop\n      jump\t// out\n        /* \"#utility.yul\":16000:16181   */\n    tag_264:\n        /* \"#utility.yul\":16140:16173   */\n      0x4475726174696f6e206d7573742062652067726561746572207468616e203000\n        /* \"#utility.yul\":16136:16137   */\n      0x00\n        /* \"#utility.yul\":16128:16134   */\n      dup3\n        /* \"#utility.yul\":16124:16138   */\n      add\n        /* \"#utility.yul\":16117:16174   */\n      mstore\n        /* \"#utility.yul\":16000:16181   */\n      pop\n      jump\t// out\n        /* \"#utility.yul\":16187:16553   */\n    tag_265:\n        /* \"#utility.yul\":16329:16332   */\n      0x00\n        /* \"#utility.yul\":16350:16417   */\n      tag_451\n        /* \"#utility.yul\":16414:16416   */\n      0x1f\n        /* \"#utility.yul\":16409:16412   */\n      dup4\n        /* \"#utility.yul\":16350:16417   */\n      tag_258\n      jump\t// in\n    tag_451:\n        /* \"#utility.yul\":16343:16417   */\n      swap2\n      pop\n        /* \"#utility.yul\":16426:16519   */\n      tag_452\n        /* \"#utility.yul\":16515:16518   */\n      dup3\n        /* \"#utility.yul\":16426:16519   */\n      tag_264\n      jump\t// in\n    tag_452:\n        /* \"#utility.yul\":16544:16546   */\n      0x20\n        /* \"#utility.yul\":16539:16542   */\n      dup3\n        /* \"#utility.yul\":16535:16547   */\n      add\n        /* \"#utility.yul\":16528:16547   */\n      swap1\n      pop\n        /* \"#utility.yul\":16187:16553   */\n      swap2\n      swap1\n      pop\n      jump\t// out\n        /* \"#utility.yul\":16559:16978   */\n    tag_86:\n        /* \"#utility.yul\":16725:16729   */\n      0x00\n        /* \"#utility.yul\":16763:16765   */\n      0x20\n        /* \"#utility.yul\":16752:16761   */\n      dup3\n        /* \"#utility.yul\":16748:16766   */\n      add\n        /* \"#utility.yul\":16740:16766   */\n      swap1\n      pop\n        /* \"#utility.yul\":16812:16821   */\n      dup2\n        /* \"#utility.yul\":16806:16810   */\n      dup2\n        /* \"#utility.yul\":16802:16822   */\n      sub\n        /* \"#utility.yul\":16798:16799   */\n      0x00\n        /* \"#utility.yul\":16787:16796   */\n      dup4\n        /* \"#utility.yul\":16783:16800   */\n      add\n        /* \"#utility.yul\":16776:16823   */\n      mstore\n        /* \"#utility.yul\":16840:16971   */\n      tag_454\n        /* \"#utility.yul\":16966:16970   */\n      dup2\n        /* \"#utility.yul\":16840:16971   */\n      tag_265\n      jump\t// in\n    tag_454:\n        /* \"#utility.yul\":16832:16971   */\n      swap1\n      pop\n        /* \"#utility.yul\":16559:16978   */\n      swap2\n      swap1\n      pop\n      jump\t// out\n        /* \"#utility.yul\":16984:17159   */\n    tag_266:\n        /* \"#utility.yul\":17124:17151   */\n      0x476f616c206e616d652063616e6e6f7420626520656d70747900000000000000\n        /* \"#utility.yul\":17120:17121   */\n      0x00\n        /* \"#utility.yul\":17112:17118   */\n      dup3\n        /* \"#utility.yul\":17108:17122   */\n      add\n        /* \"#utility.yul\":17101:17152   */\n      mstore\n        /* \"#utility.yul\":16984:17159   */\n      pop\n      jump\t// out\n        /* \"#utility.yul\":17165:17531   */\n    tag_267:\n        /* \"#utility.yul\":17307:17310   */\n      0x00\n        /* \"#utility.yul\":17328:17395   */\n      tag_457\n        /* \"#utility.yul\":17392:17394   */\n      0x19\n        /* \"#utility.yul\":17387:17390   */\n      dup4\n        /* \"#utility.yul\":17328:17395   */\n      tag_258\n      jump\t// in\n    tag_457:\n        /* \"#utility.yul\":17321:17395   */\n      swap2\n      pop\n        /* \"#utility.yul\":17404:17497   */\n      tag_458\n        /* \"#utility.yul\":17493:17496   */\n      dup3\n        /* \"#utility.yul\":17404:17497   */\n      tag_266\n      jump\t// in\n    tag_458:\n        /* \"#utility.yul\":17522:17524   */\n      0x20\n        /* \"#utility.yul\":17517:17520   */\n      dup3\n        /* \"#utility.yul\":17513:17525   */\n      add\n        /* \"#utility.yul\":17506:17525   */\n      swap1\n      pop\n        /* \"#utility.yul\":17165:17531   */\n      swap2\n      swap1\n      pop\n      jump\t// out\n        /* \"#utility.yul\":17537:17956   */\n    tag_89:\n        /* \"#utility.yul\":17703:17707   */\n      0x00\n        /* \"#utility.yul\":17741:17743   */\n      0x20\n        /* \"#utility.yul\":17730:17739   */\n      dup3\n        /* \"#utility.yul\":17726:17744   */\n      add\n        /* \"#utility.yul\":17718:17744   */\n      swap1\n      pop\n        /* \"#utility.yul\":17790:17799   */\n      dup2\n        /* \"#utility.yul\":17784:17788   */\n      dup2\n        /* \"#utility.yul\":17780:17800   */\n      sub\n        /* \"#utility.yul\":17776:17777   */\n      0x00\n        /* \"#utility.yul\":17765:17774   */\n      dup4\n        /* \"#utility.yul\":17761:17778   */\n      add\n        /* \"#utility.yul\":17754:17801   */\n      mstore\n        /* \"#utility.yul\":17818:17949   */\n      tag_460\n        /* \"#utility.yul\":17944:17948   */\n      dup2\n        /* \"#utility.yul\":17818:17949   */\n      tag_267\n      jump\t// in\n    tag_460:\n        /* \"#utility.yul\":17810:17949   */\n      swap1\n      pop\n        /* \"#utility.yul\":17537:17956   */\n      swap2\n      swap1\n      pop\n      jump\t// out\n        /* \"#utility.yul\":17962:18142   */\n    tag_268:\n        /* \"#utility.yul\":18010:18087   */\n      0x4e487b7100000000000000000000000000000000000000000000000000000000\n        /* \"#utility.yul\":18007:18008   */\n      0x00\n        /* \"#utility.yul\":18000:18088   */\n      mstore\n        /* \"#utility.yul\":18107:18111   */\n      0x11\n        /* \"#utility.yul\":18104:18105   */\n      0x04\n        /* \"#utility.yul\":18097:18112   */\n      mstore\n        /* \"#utility.yul\":18131:18135   */\n      0x24\n        /* \"#utility.yul\":18128:18129   */\n      0x00\n        /* \"#utility.yul\":18121:18136   */\n      revert\n        /* \"#utility.yul\":18148:18558   */\n    tag_91:\n        /* \"#utility.yul\":18188:18195   */\n      0x00\n        /* \"#utility.yul\":18211:18231   */\n      tag_463\n        /* \"#utility.yul\":18229:18230   */\n      dup3\n        /* \"#utility.yul\":18211:18231   */\n      tag_236\n      jump\t// in\n    tag_463:\n        /* \"#utility.yul\":18206:18231   */\n      swap2\n      pop\n        /* \"#utility.yul\":18245:18265   */\n      tag_464\n        /* \"#utility.yul\":18263:18264   */\n      dup4\n        /* \"#utility.yul\":18245:18265   */\n      tag_236\n      jump\t// in\n    tag_464:\n        /* \"#utility.yul\":18240:18265   */\n      swap3\n      pop\n        /* \"#utility.yul\":18300:18301   */\n      dup3\n        /* \"#utility.yul\":18297:18298   */\n      dup3\n        /* \"#utility.yul\":18293:18302   */\n      mul\n        /* \"#utility.yul\":18322:18352   */\n      tag_465\n        /* \"#utility.yul\":18340:18351   */\n      dup2\n        /* \"#utility.yul\":18322:18352   */\n      tag_236\n      jump\t// in\n    tag_465:\n        /* \"#utility.yul\":18311:18352   */\n      swap2\n      pop\n        /* \"#utility.yul\":18501:18502   */\n      dup3\n        /* \"#utility.yul\":18492:18499   */\n      dup3\n        /* \"#utility.yul\":18488:18503   */\n      div\n        /* \"#utility.yul\":18485:18486   */\n      dup5\n        /* \"#utility.yul\":18482:18504   */\n      eq\n        /* \"#utility.yul\":18462:18463   */\n      dup4\n        /* \"#utility.yul\":18455:18464   */\n      iszero\n        /* \"#utility.yul\":18435:18518   */\n      or\n        /* \"#utility.yul\":18412:18551   */\n      tag_466\n      jumpi\n        /* \"#utility.yul\":18531:18549   */\n      tag_467\n      tag_268\n      jump\t// in\n    tag_467:\n        /* \"#utility.yul\":18412:18551   */\n    tag_466:\n        /* \"#utility.yul\":18196:18558   */\n      pop\n        /* \"#utility.yul\":18148:18558   */\n      swap3\n      swap2\n      pop\n      pop\n      jump\t// out\n        /* \"#utility.yul\":18564:18755   */\n    tag_93:\n        /* \"#utility.yul\":18604:18607   */\n      0x00\n        /* \"#utility.yul\":18623:18643   */\n      tag_469\n        /* \"#utility.yul\":18641:18642   */\n      dup3\n        /* \"#utility.yul\":18623:18643   */\n      tag_236\n      jump\t// in\n    tag_469:\n        /* \"#utility.yul\":18618:18643   */\n      swap2\n      pop\n        /* \"#utility.yul\":18657:18677   */\n      tag_470\n        /* \"#utility.yul\":18675:18676   */\n      dup4\n        /* \"#utility.yul\":18657:18677   */\n      tag_236\n      jump\t// in\n    tag_470:\n        /* \"#utility.yul\":18652:18677   */\n      swap3\n      pop\n        /* \"#utility.yul\":18700:18701   */\n      dup3\n        /* \"#utility.yul\":18697:18698   */\n      dup3\n        /* \"#utility.yul\":18693:18702   */\n      add\n        /* \"#utility.yul\":18686:18702   */\n      swap1\n      pop\n        /* \"#utility.yul\":18721:18724   */\n      dup1\n        /* \"#utility.yul\":18718:18719   */\n      dup3\n        /* \"#utility.yul\":18715:18725   */\n      gt\n        /* \"#utility.yul\":18712:18748   */\n      iszero\n      tag_471\n      jumpi\n        /* \"#utility.yul\":18728:18746   */\n      tag_472\n      tag_268\n      jump\t// in\n    tag_472:\n        /* \"#utility.yul\":18712:18748   */\n    tag_471:\n        /* \"#utility.yul\":18564:18755   */\n      swap3\n      swap2\n      pop\n      pop\n      jump\t// out\n        /* \"#utility.yul\":18761:18941   */\n    tag_269:\n        /* \"#utility.yul\":18809:18886   */\n      0x4e487b7100000000000000000000000000000000000000000000000000000000\n        /* \"#utility.yul\":18806:18807   */\n      0x00\n        /* \"#utility.yul\":18799:18887   */\n      mstore\n        /* \"#utility.yul\":18906:18910   */\n      0x22\n        /* \"#utility.yul\":18903:18904   */\n      0x04\n        /* \"#utility.yul\":18896:18911   */\n      mstore\n        /* \"#utility.yul\":18930:18934   */\n      0x24\n        /* \"#utility.yul\":18927:18928   */\n      0x00\n        /* \"#utility.yul\":18920:18935   */\n      revert\n        /* \"#utility.yul\":18947:19267   */\n    tag_110:\n        /* \"#utility.yul\":18991:18997   */\n      0x00\n        /* \"#utility.yul\":19028:19029   */\n      0x02\n        /* \"#utility.yul\":19022:19026   */\n      dup3\n        /* \"#utility.yul\":19018:19030   */\n      div\n        /* \"#utility.yul\":19008:19030   */\n      swap1\n      pop\n        /* \"#utility.yul\":19075:19076   */\n      0x01\n        /* \"#utility.yul\":19069:19073   */\n      dup3\n        /* \"#utility.yul\":19065:19077   */\n      and\n        /* \"#utility.yul\":19096:19114   */\n      dup1\n        /* \"#utility.yul\":19086:19167   */\n      tag_475\n      jumpi\n        /* \"#utility.yul\":19152:19156   */\n      0x7f\n        /* \"#utility.yul\":19144:19150   */\n      dup3\n        /* \"#utility.yul\":19140:19157   */\n      and\n        /* \"#utility.yul\":19130:19157   */\n      swap2\n      pop\n        /* \"#utility.yul\":19086:19167   */\n    tag_475:\n        /* \"#utility.yul\":19214:19216   */\n      0x20\n        /* \"#utility.yul\":19206:19212   */\n      dup3\n        /* \"#utility.yul\":19203:19217   */\n      lt\n        /* \"#utility.yul\":19183:19201   */\n      dup2\n        /* \"#utility.yul\":19180:19218   */\n      sub\n        /* \"#utility.yul\":19177:19261   */\n      tag_476\n      jumpi\n        /* \"#utility.yul\":19233:19251   */\n      tag_477\n      tag_269\n      jump\t// in\n    tag_477:\n        /* \"#utility.yul\":19177:19261   */\n    tag_476:\n        /* \"#utility.yul\":18998:19267   */\n      pop\n        /* \"#utility.yul\":18947:19267   */\n      swap2\n      swap1\n      pop\n      jump\t// out\n        /* \"#utility.yul\":19273:19414   */\n    tag_270:\n        /* \"#utility.yul\":19322:19326   */\n      0x00\n        /* \"#utility.yul\":19345:19348   */\n      dup2\n        /* \"#utility.yul\":19337:19348   */\n      swap1\n      pop\n        /* \"#utility.yul\":19368:19371   */\n      dup2\n        /* \"#utility.yul\":19365:19366   */\n      0x00\n        /* \"#utility.yul\":19358:19372   */\n      mstore\n        /* \"#utility.yul\":19402:19406   */\n      0x20\n        /* \"#utility.yul\":19399:19400   */\n      0x00\n        /* \"#utility.yul\":19389:19407   */\n      keccak256\n        /* \"#utility.yul\":19381:19407   */\n      swap1\n      pop\n        /* \"#utility.yul\":19273:19414   */\n      swap2\n      swap1\n      pop\n      jump\t// out\n        /* \"#utility.yul\":19420:19513   */\n    tag_271:\n        /* \"#utility.yul\":19457:19463   */\n      0x00\n        /* \"#utility.yul\":19504:19506   */\n      0x20\n        /* \"#utility.yul\":19499:19501   */\n      0x1f\n        /* \"#utility.yul\":19492:19497   */\n      dup4\n        /* \"#utility.yul\":19488:19502   */\n      add\n        /* \"#utility.yul\":19484:19507   */\n      div\n        /* \"#utility.yul\":19474:19507   */\n      swap1\n      pop\n        /* \"#utility.yul\":19420:19513   */\n      swap2\n      swap1\n      pop\n      jump\t// out\n        /* \"#utility.yul\":19519:19626   */\n    tag_272:\n        /* \"#utility.yul\":19563:19571   */\n      0x00\n        /* \"#utility.yul\":19613:19618   */\n      dup3\n        /* \"#utility.yul\":19607:19611   */\n      dup3\n        /* \"#utility.yul\":19603:19619   */\n      shl\n        /* \"#utility.yul\":19582:19619   */\n      swap1\n      pop\n        /* \"#utility.yul\":19519:19626   */\n      swap3\n      swap2\n      pop\n      pop\n      jump\t// out\n        /* \"#utility.yul\":19632:20025   */\n    tag_273:\n        /* \"#utility.yul\":19701:19707   */\n      0x00\n        /* \"#utility.yul\":19751:19752   */\n      0x08\n        /* \"#utility.yul\":19739:19749   */\n      dup4\n        /* \"#utility.yul\":19735:19753   */\n      mul\n        /* \"#utility.yul\":19774:19871   */\n      tag_482\n        /* \"#utility.yul\":19804:19870   */\n      0xffffffffffffffffffffffffffffffffffffffffffffffffffffffffffffffff\n        /* \"#utility.yul\":19793:19802   */\n      dup3\n        /* \"#utility.yul\":19774:19871   */\n      tag_272\n      jump\t// in\n    tag_482:\n        /* \"#utility.yul\":19892:19931   */\n      tag_483\n        /* \"#utility.yul\":19922:19930   */\n      dup7\n        /* \"#utility.yul\":19911:19920   */\n      dup4\n        /* \"#utility.yul\":19892:19931   */\n      tag_272\n      jump\t// in\n    tag_483:\n        /* \"#utility.yul\":19880:19931   */\n      swap6\n      pop\n        /* \"#utility.yul\":19964:19968   */\n      dup1\n        /* \"#utility.yul\":19960:19969   */\n      not\n        /* \"#utility.yul\":19953:19958   */\n      dup5\n        /* \"#utility.yul\":19949:19970   */\n      and\n        /* \"#utility.yul\":19940:19970   */\n      swap4\n      pop\n        /* \"#utility.yul\":20013:20017   */\n      dup1\n        /* \"#utility.yul\":20003:20011   */\n      dup7\n        /* \"#utility.yul\":19999:20018   */\n      and\n        /* \"#utility.yul\":19992:19997   */\n      dup5\n        /* \"#utility.yul\":19989:20019   */\n      or\n        /* \"#utility.yul\":19979:20019   */\n      swap3\n      pop\n        /* \"#utility.yul\":19708:20025   */\n      pop\n      pop\n        /* \"#utility.yul\":19632:20025   */\n      swap4\n      swap3\n      pop\n      pop\n      pop\n      jump\t// out\n        /* \"#utility.yul\":20031:20091   */\n    tag_274:\n        /* \"#utility.yul\":20059:20062   */\n      0x00\n        /* \"#utility.yul\":20080:20085   */\n      dup2\n        /* \"#utility.yul\":20073:20085   */\n      swap1\n      pop\n        /* \"#utility.yul\":20031:20091   */\n      swap2\n      swap1\n      pop\n      jump\t// out\n        /* \"#utility.yul\":20097:20239   */\n    tag_275:\n        /* \"#utility.yul\":20147:20156   */\n      0x00\n        /* \"#utility.yul\":20180:20233   */\n      tag_486\n        /* \"#utility.yul\":20198:20232   */\n      tag_487\n        /* \"#utility.yul\":20207:20231   */\n      tag_488\n        /* \"#utility.yul\":20225:20230   */\n      dup5\n        /* \"#utility.yul\":20207:20231   */\n      tag_236\n      jump\t// in\n    tag_488:\n        /* \"#utility.yul\":20198:20232   */\n      tag_274\n      jump\t// in\n    tag_487:\n        /* \"#utility.yul\":20180:20233   */\n      tag_236\n      jump\t// in\n    tag_486:\n        /* \"#utility.yul\":20167:20233   */\n      swap1\n      pop\n        /* \"#utility.yul\":20097:20239   */\n      swap2\n      swap1\n      pop\n      jump\t// out\n        /* \"#utility.yul\":20245:20320   */\n    tag_276:\n        /* \"#utility.yul\":20288:20291   */\n      0x00\n        /* \"#utility.yul\":20309:20314   */\n      dup2\n        /* \"#utility.yul\":20302:20314   */\n      swap1\n      pop\n        /* \"#utility.yul\":20245:20320   */\n      swap2\n      swap1\n      pop\n      jump\t// out\n        /* \"#utility.yul\":20326:20595   */\n    tag_277:\n        /* \"#utility.yul\":20436:20475   */\n      tag_491\n        /* \"#utility.yul\":20467:20474   */\n      dup4\n        /* \"#utility.yul\":20436:20475   */\n      tag_275\n      jump\t// in\n    tag_491:\n        /* \"#utility.yul\":20497:20588   */\n      tag_492\n        /* \"#utility.yul\":20546:20587   */\n      tag_493\n        /* \"#utility.yul\":20570:20586   */\n      dup3\n        /* \"#utility.yul\":20546:20587   */\n      tag_276\n      jump\t// in\n    tag_493:\n        /* \"#utility.yul\":20538:20544   */\n      dup5\n        /* \"#utility.yul\":20531:20535   */\n      dup5\n        /* \"#utility.yul\":20525:20536   */\n      sload\n        /* \"#utility.yul\":20497:20588   */\n      tag_273\n      jump\t// in\n    tag_492:\n        /* \"#utility.yul\":20491:20495   */\n      dup3\n        /* \"#utility.yul\":20484:20589   */\n      sstore\n        /* \"#utility.yul\":20402:20595   */\n      pop\n        /* \"#utility.yul\":20326:20595   */\n      pop\n      pop\n      pop\n      jump\t// out\n        /* \"#utility.yul\":20601:20674   */\n    tag_278:\n        /* \"#utility.yul\":20646:20649   */\n      0x00\n        /* \"#utility.yul\":20601:20674   */\n      swap1\n      jump\t// out\n        /* \"#utility.yul\":20680:20869   */\n    tag_279:\n        /* \"#utility.yul\":20757:20789   */\n      tag_496\n      tag_278\n      jump\t// in\n    tag_496:\n        /* \"#utility.yul\":20798:20863   */\n      tag_497\n        /* \"#utility.yul\":20856:20862   */\n      dup2\n        /* \"#utility.yul\":20848:20854   */\n      dup5\n        /* \"#utility.yul\":20842:20846   */\n      dup5\n        /* \"#utility.yul\":20798:20863   */\n      tag_277\n      jump\t// in\n    tag_497:\n        /* \"#utility.yul\":20733:20869   */\n      pop\n        /* \"#utility.yul\":20680:20869   */\n      pop\n      pop\n      jump\t// out\n        /* \"#utility.yul\":20875:21061   */\n    tag_280:\n        /* \"#utility.yul\":20935:21055   */\n    tag_499:\n        /* \"#utility.yul\":20952:20955   */\n      dup2\n        /* \"#utility.yul\":20945:20950   */\n      dup2\n        /* \"#utility.yul\":20942:20956   */\n      lt\n        /* \"#utility.yul\":20935:21055   */\n      iszero\n      tag_501\n      jumpi\n        /* \"#utility.yul\":21006:21045   */\n      tag_502\n        /* \"#utility.yul\":21043:21044   */\n      0x00\n        /* \"#utility.yul\":21036:21041   */\n      dup3\n        /* \"#utility.yul\":21006:21045   */\n      tag_279\n      jump\t// in\n    tag_502:\n        /* \"#utility.yul\":20979:20980   */\n      0x01\n        /* \"#utility.yul\":20972:20977   */\n      dup2\n        /* \"#utility.yul\":20968:20981   */\n      add\n        /* \"#utility.yul\":20959:20981   */\n      swap1\n      pop\n        /* \"#utility.yul\":20935:21055   */\n      jump(tag_499)\n    tag_501:\n        /* \"#utility.yul\":20875:21061   */\n      pop\n      pop\n      jump\t// out\n        /* \"#utility.yul\":21067:21610   */\n    tag_281:\n        /* \"#utility.yul\":21168:21170   */\n      0x1f\n        /* \"#utility.yul\":21163:21166   */\n      dup3\n        /* \"#utility.yul\":21160:21171   */\n      gt\n        /* \"#utility.yul\":21157:21603   */\n      iszero\n      tag_504\n      jumpi\n        /* \"#utility.yul\":21202:21240   */\n      tag_505\n        /* \"#utility.yul\":21234:21239   */\n      dup2\n        /* \"#utility.yul\":21202:21240   */\n      tag_270\n      jump\t// in\n    tag_505:\n        /* \"#utility.yul\":21286:21315   */\n      tag_506\n        /* \"#utility.yul\":21304:21314   */\n      dup5\n        /* \"#utility.yul\":21286:21315   */\n      tag_271\n      jump\t// in\n    tag_506:\n        /* \"#utility.yul\":21276:21284   */\n      dup2\n        /* \"#utility.yul\":21272:21316   */\n      add\n        /* \"#utility.yul\":21469:21471   */\n      0x20\n        /* \"#utility.yul\":21457:21467   */\n      dup6\n        /* \"#utility.yul\":21454:21472   */\n      lt\n        /* \"#utility.yul\":21451:21500   */\n      iszero\n      tag_507\n      jumpi\n        /* \"#utility.yul\":21490:21498   */\n      dup2\n        /* \"#utility.yul\":21475:21498   */\n      swap1\n      pop\n        /* \"#utility.yul\":21451:21500   */\n    tag_507:\n        /* \"#utility.yul\":21513:21593   */\n      tag_508\n        /* \"#utility.yul\":21569:21591   */\n      tag_509\n        /* \"#utility.yul\":21587:21590   */\n      dup6\n        /* \"#utility.yul\":21569:21591   */\n      tag_271\n      jump\t// in\n    tag_509:\n        /* \"#utility.yul\":21559:21567   */\n      dup4\n        /* \"#utility.yul\":21555:21592   */\n      add\n        /* \"#utility.yul\":21542:21553   */\n      dup3\n        /* \"#utility.yul\":21513:21593   */\n      tag_280\n      jump\t// in\n    tag_508:\n        /* \"#utility.yul\":21172:21603   */\n      pop\n      pop\n        /* \"#utility.yul\":21157:21603   */\n    tag_504:\n        /* \"#utility.yul\":21067:21610   */\n      pop\n      pop\n      pop\n      jump\t// out\n        /* \"#utility.yul\":21616:21733   */\n    tag_282:\n        /* \"#utility.yul\":21670:21678   */\n      0x00\n        /* \"#utility.yul\":21720:21725   */\n      dup3\n        /* \"#utility.yul\":21714:21718   */\n      dup3\n        /* \"#utility.yul\":21710:21726   */\n      shr\n        /* \"#utility.yul\":21689:21726   */\n      swap1\n      pop\n        /* \"#utility.yul\":21616:21733   */\n      swap3\n      swap2\n      pop\n      pop\n      jump\t// out\n        /* \"#utility.yul\":21739:21908   */\n    tag_283:\n        /* \"#utility.yul\":21783:21789   */\n      0x00\n        /* \"#utility.yul\":21816:21867   */\n      tag_512\n        /* \"#utility.yul\":21864:21865   */\n      0x00\n        /* \"#utility.yul\":21860:21866   */\n      not\n        /* \"#utility.yul\":21852:21857   */\n      dup5\n        /* \"#utility.yul\":21849:21850   */\n      0x08\n        /* \"#utility.yul\":21845:21858   */\n      mul\n        /* \"#utility.yul\":21816:21867   */\n      tag_282\n      jump\t// in\n    tag_512:\n        /* \"#utility.yul\":21812:21868   */\n      not\n        /* \"#utility.yul\":21897:21901   */\n      dup1\n        /* \"#utility.yul\":21891:21895   */\n      dup4\n        /* \"#utility.yul\":21887:21902   */\n      and\n        /* \"#utility.yul\":21877:21902   */\n      swap2\n      pop\n        /* \"#utility.yul\":21790:21908   */\n      pop\n        /* \"#utility.yul\":21739:21908   */\n      swap3\n      swap2\n      pop\n      pop\n      jump\t// out\n        /* \"#utility.yul\":21913:22208   */\n    tag_284:\n        /* \"#utility.yul\":21989:21993   */\n      0x00\n        /* \"#utility.yul\":22135:22164   */\n      tag_514\n        /* \"#utility.yul\":22160:22163   */\n      dup4\n        /* \"#utility.yul\":22154:22158   */\n      dup4\n        /* \"#utility.yul\":22135:22164   */\n      tag_283\n      jump\t// in\n    tag_514:\n        /* \"#utility.yul\":22127:22164   */\n      swap2\n      pop\n        /* \"#utility.yul\":22197:22200   */\n      dup3\n        /* \"#utility.yul\":22194:22195   */\n      0x02\n        /* \"#utility.yul\":22190:22201   */\n      mul\n        /* \"#utility.yul\":22184:22188   */\n      dup3\n        /* \"#utility.yul\":22181:22202   */\n      or\n        /* \"#utility.yul\":22173:22202   */\n      swap1\n      pop\n        /* \"#utility.yul\":21913:22208   */\n      swap3\n      swap2\n      pop\n      pop\n      jump\t// out\n        /* \"#utility.yul\":22213:23608   */\n    tag_96:\n        /* \"#utility.yul\":22330:22367   */\n      tag_516\n        /* \"#utility.yul\":22363:22366   */\n      dup3\n        /* \"#utility.yul\":22330:22367   */\n      tag_247\n      jump\t// in\n    tag_516:\n        /* \"#utility.yul\":22432:22450   */\n      0xffffffffffffffff\n        /* \"#utility.yul\":22424:22430   */\n      dup2\n        /* \"#utility.yul\":22421:22451   */\n      gt\n        /* \"#utility.yul\":22418:22474   */\n      iszero\n      tag_517\n      jumpi\n        /* \"#utility.yul\":22454:22472   */\n      tag_518\n      tag_229\n      jump\t// in\n    tag_518:\n        /* \"#utility.yul\":22418:22474   */\n    tag_517:\n        /* \"#utility.yul\":22498:22536   */\n      tag_519\n        /* \"#utility.yul\":22530:22534   */\n      dup3\n        /* \"#utility.yul\":22524:22535   */\n      sload\n        /* \"#utility.yul\":22498:22536   */\n      tag_110\n      jump\t// in\n    tag_519:\n        /* \"#utility.yul\":22583:22650   */\n      tag_520\n        /* \"#utility.yul\":22643:22649   */\n      dup3\n        /* \"#utility.yul\":22635:22641   */\n      dup3\n        /* \"#utility.yul\":22629:22633   */\n      dup6\n        /* \"#utility.yul\":22583:22650   */\n      tag_281\n      jump\t// in\n    tag_520:\n        /* \"#utility.yul\":22677:22678   */\n      0x00\n        /* \"#utility.yul\":22701:22705   */\n      0x20\n        /* \"#utility.yul\":22688:22705   */\n      swap1\n      pop\n        /* \"#utility.yul\":22733:22735   */\n      0x1f\n        /* \"#utility.yul\":22725:22731   */\n      dup4\n        /* \"#utility.yul\":22722:22736   */\n      gt\n        /* \"#utility.yul\":22750:22751   */\n      0x01\n        /* \"#utility.yul\":22745:23363   */\n      dup2\n      eq\n      tag_522\n      jumpi\n        /* \"#utility.yul\":23407:23408   */\n      0x00\n        /* \"#utility.yul\":23424:23430   */\n      dup5\n        /* \"#utility.yul\":23421:23498   */\n      iszero\n      tag_523\n      jumpi\n        /* \"#utility.yul\":23473:23482   */\n      dup3\n        /* \"#utility.yul\":23468:23471   */\n      dup8\n        /* \"#utility.yul\":23464:23483   */\n      add\n        /* \"#utility.yul\":23458:23484   */\n      mload\n        /* \"#utility.yul\":23449:23484   */\n      swap1\n      pop\n        /* \"#utility.yul\":23421:23498   */\n    tag_523:\n        /* \"#utility.yul\":23524:23591   */\n      tag_524\n        /* \"#utility.yul\":23584:23590   */\n      dup6\n        /* \"#utility.yul\":23577:23582   */\n      dup3\n        /* \"#utility.yul\":23524:23591   */\n      tag_284\n      jump\t// in\n    tag_524:\n        /* \"#utility.yul\":23518:23522   */\n      dup7\n        /* \"#utility.yul\":23511:23592   */\n      sstore\n        /* \"#utility.yul\":23380:23602   */\n      pop\n        /* \"#utility.yul\":22715:23602   */\n      jump(tag_521)\n        /* \"#utility.yul\":22745:23363   */\n    tag_522:\n        /* \"#utility.yul\":22797:22801   */\n      0x1f\n        /* \"#utility.yul\":22793:22802   */\n      not\n        /* \"#utility.yul\":22785:22791   */\n      dup5\n        /* \"#utility.yul\":22781:22803   */\n      and\n        /* \"#utility.yul\":22831:22868   */\n      tag_525\n        /* \"#utility.yul\":22863:22867   */\n      dup7\n        /* \"#utility.yul\":22831:22868   */\n      tag_270\n      jump\t// in\n    tag_525:\n        /* \"#utility.yul\":22890:22891   */\n      0x00\n        /* \"#utility.yul\":22904:23112   */\n    tag_526:\n        /* \"#utility.yul\":22918:22925   */\n      dup3\n        /* \"#utility.yul\":22915:22916   */\n      dup2\n        /* \"#utility.yul\":22912:22926   */\n      lt\n        /* \"#utility.yul\":22904:23112   */\n      iszero\n      tag_528\n      jumpi\n        /* \"#utility.yul\":22997:23006   */\n      dup5\n        /* \"#utility.yul\":22992:22995   */\n      dup10\n        /* \"#utility.yul\":22988:23007   */\n      add\n        /* \"#utility.yul\":22982:23008   */\n      mload\n        /* \"#utility.yul\":22974:22980   */\n      dup3\n        /* \"#utility.yul\":22967:23009   */\n      sstore\n        /* \"#utility.yul\":23048:23049   */\n      0x01\n        /* \"#utility.yul\":23040:23046   */\n      dup3\n        /* \"#utility.yul\":23036:23050   */\n      add\n        /* \"#utility.yul\":23026:23050   */\n      swap2\n      pop\n        /* \"#utility.yul\":23095:23097   */\n      0x20\n        /* \"#utility.yul\":23084:23093   */\n      dup6\n        /* \"#utility.yul\":23080:23098   */\n      add\n        /* \"#utility.yul\":23067:23098   */\n      swap5\n      pop\n        /* \"#utility.yul\":22941:22945   */\n      0x20\n        /* \"#utility.yul\":22938:22939   */\n      dup2\n        /* \"#utility.yul\":22934:22946   */\n      add\n        /* \"#utility.yul\":22929:22946   */\n      swap1\n      pop\n        /* \"#utility.yul\":22904:23112   */\n      jump(tag_526)\n    tag_528:\n        /* \"#utility.yul\":23140:23146   */\n      dup7\n        /* \"#utility.yul\":23131:23138   */\n      dup4\n        /* \"#utility.yul\":23128:23147   */\n      lt\n        /* \"#utility.yul\":23125:23304   */\n      iszero\n      tag_529\n      jumpi\n        /* \"#utility.yul\":23198:23207   */\n      dup5\n        /* \"#utility.yul\":23193:23196   */\n      dup10\n        /* \"#utility.yul\":23189:23208   */\n      add\n        /* \"#utility.yul\":23183:23209   */\n      mload\n        /* \"#utility.yul\":23241:23289   */\n      tag_530\n        /* \"#utility.yul\":23283:23287   */\n      0x1f\n        /* \"#utility.yul\":23275:23281   */\n      dup10\n        /* \"#utility.yul\":23271:23288   */\n      and\n        /* \"#utility.yul\":23260:23269   */\n      dup3\n        /* \"#utility.yul\":23241:23289   */\n      tag_283\n      jump\t// in\n    tag_530:\n        /* \"#utility.yul\":23233:23239   */\n      dup4\n        /* \"#utility.yul\":23226:23290   */\n      sstore\n        /* \"#utility.yul\":23148:23304   */\n      pop\n        /* \"#utility.yul\":23125:23304   */\n    tag_529:\n        /* \"#utility.yul\":23350:23351   */\n      0x01\n        /* \"#utility.yul\":23346:23347   */\n      0x02\n        /* \"#utility.yul\":23338:23344   */\n      dup9\n        /* \"#utility.yul\":23334:23348   */\n      mul\n        /* \"#utility.yul\":23330:23352   */\n      add\n        /* \"#utility.yul\":23324:23328   */\n      dup9\n        /* \"#utility.yul\":23317:23353   */\n      sstore\n        /* \"#utility.yul\":22752:23363   */\n      pop\n      pop\n      pop\n        /* \"#utility.yul\":22715:23602   */\n    tag_521:\n      pop\n        /* \"#utility.yul\":22305:23608   */\n      pop\n      pop\n      pop\n        /* \"#utility.yul\":22213:23608   */\n      pop\n      pop\n      jump\t// out\n        /* \"#utility.yul\":23614:23808   */\n    tag_98:\n        /* \"#utility.yul\":23654:23658   */\n      0x00\n        /* \"#utility.yul\":23674:23694   */\n      tag_532\n        /* \"#utility.yul\":23692:23693   */\n      dup3\n        /* \"#utility.yul\":23674:23694   */\n      tag_236\n      jump\t// in\n    tag_532:\n        /* \"#utility.yul\":23669:23694   */\n      swap2\n      pop\n        /* \"#utility.yul\":23708:23728   */\n      tag_533\n        /* \"#utility.yul\":23726:23727   */\n      dup4\n        /* \"#utility.yul\":23708:23728   */\n      tag_236\n      jump\t// in\n    tag_533:\n        /* \"#utility.yul\":23703:23728   */\n      swap3\n      pop\n        /* \"#utility.yul\":23752:23753   */\n      dup3\n        /* \"#utility.yul\":23749:23750   */\n      dup3\n        /* \"#utility.yul\":23745:23754   */\n      sub\n        /* \"#utility.yul\":23737:23754   */\n      swap1\n      pop\n        /* \"#utility.yul\":23776:23777   */\n      dup2\n        /* \"#utility.yul\":23770:23774   */\n      dup2\n        /* \"#utility.yul\":23767:23778   */\n      gt\n        /* \"#utility.yul\":23764:23801   */\n      iszero\n      tag_534\n      jumpi\n        /* \"#utility.yul\":23781:23799   */\n      tag_535\n      tag_268\n      jump\t// in\n    tag_535:\n        /* \"#utility.yul\":23764:23801   */\n    tag_534:\n        /* \"#utility.yul\":23614:23808   */\n      swap3\n      swap2\n      pop\n      pop\n      jump\t// out\n        /* \"#utility.yul\":23814:24347   */\n    tag_100:\n        /* \"#utility.yul\":23983:23987   */\n      0x00\n        /* \"#utility.yul\":24021:24023   */\n      0x60\n        /* \"#utility.yul\":24010:24019   */\n      dup3\n        /* \"#utility.yul\":24006:24024   */\n      add\n        /* \"#utility.yul\":23998:24024   */\n      swap1\n      pop\n        /* \"#utility.yul\":24070:24079   */\n      dup2\n        /* \"#utility.yul\":24064:24068   */\n      dup2\n        /* \"#utility.yul\":24060:24080   */\n      sub\n        /* \"#utility.yul\":24056:24057   */\n      0x00\n        /* \"#utility.yul\":24045:24054   */\n      dup4\n        /* \"#utility.yul\":24041:24058   */\n      add\n        /* \"#utility.yul\":24034:24081   */\n      mstore\n        /* \"#utility.yul\":24098:24176   */\n      tag_537\n        /* \"#utility.yul\":24171:24175   */\n      dup2\n        /* \"#utility.yul\":24162:24168   */\n      dup7\n        /* \"#utility.yul\":24098:24176   */\n      tag_259\n      jump\t// in\n    tag_537:\n        /* \"#utility.yul\":24090:24176   */\n      swap1\n      pop\n        /* \"#utility.yul\":24186:24258   */\n      tag_538\n        /* \"#utility.yul\":24254:24256   */\n      0x20\n        /* \"#utility.yul\":24243:24252   */\n      dup4\n        /* \"#utility.yul\":24239:24257   */\n      add\n        /* \"#utility.yul\":24230:24236   */\n      dup6\n        /* \"#utility.yul\":24186:24258   */\n      tag_243\n      jump\t// in\n    tag_538:\n        /* \"#utility.yul\":24268:24340   */\n      tag_539\n        /* \"#utility.yul\":24336:24338   */\n      0x40\n        /* \"#utility.yul\":24325:24334   */\n      dup4\n        /* \"#utility.yul\":24321:24339   */\n      add\n        /* \"#utility.yul\":24312:24318   */\n      dup5\n        /* \"#utility.yul\":24268:24340   */\n      tag_243\n      jump\t// in\n    tag_539:\n        /* \"#utility.yul\":23814:24347   */\n      swap5\n      swap4\n      pop\n      pop\n      pop\n      pop\n      jump\t// out\n        /* \"#utility.yul\":24353:24518   */\n    tag_285:\n        /* \"#utility.yul\":24493:24510   */\n      0x496e76616c696420676f616c2049440000000000000000000000000000000000\n        /* \"#utility.yul\":24489:24490   */\n      0x00\n        /* \"#utility.yul\":24481:24487   */\n      dup3\n        /* \"#utility.yul\":24477:24491   */\n      add\n        /* \"#utility.yul\":24470:24511   */\n      mstore\n        /* \"#utility.yul\":24353:24518   */\n      pop\n      jump\t// out\n        /* \"#utility.yul\":24524:24890   */\n    tag_286:\n        /* \"#utility.yul\":24666:24669   */\n      0x00\n        /* \"#utility.yul\":24687:24754   */\n      tag_542\n        /* \"#utility.yul\":24751:24753   */\n      0x0f\n        /* \"#utility.yul\":24746:24749   */\n      dup4\n        /* \"#utility.yul\":24687:24754   */\n      tag_258\n      jump\t// in\n    tag_542:\n        /* \"#utility.yul\":24680:24754   */\n      swap2\n      pop\n        /* \"#utility.yul\":24763:24856   */\n      tag_543\n        /* \"#utility.yul\":24852:24855   */\n      dup3\n        /* \"#utility.yul\":24763:24856   */\n      tag_285\n      jump\t// in\n    tag_543:\n        /* \"#utility.yul\":24881:24883   */\n      0x20\n        /* \"#utility.yul\":24876:24879   */\n      dup3\n        /* \"#utility.yul\":24872:24884   */\n      add\n        /* \"#utility.yul\":24865:24884   */\n      swap1\n      pop\n        /* \"#utility.yul\":24524:24890   */\n      swap2\n      swap1\n      pop\n      jump\t// out\n        /* \"#utility.yul\":24896:25315   */\n    tag_104:\n        /* \"#utility.yul\":25062:25066   */\n      0x00\n        /* \"#utility.yul\":25100:25102   */\n      0x20\n        /* \"#utility.yul\":25089:25098   */\n      dup3\n        /* \"#utility.yul\":25085:25103   */\n      add\n        /* \"#utility.yul\":25077:25103   */\n      swap1\n      pop\n        /* \"#utility.yul\":25149:25158   */\n      dup2\n        /* \"#utility.yul\":25143:25147   */\n      dup2\n        /* \"#utility.yul\":25139:25159   */\n      sub\n        /* \"#utility.yul\":25135:25136   */\n      0x00\n        /* \"#utility.yul\":25124:25133   */\n      dup4\n        /* \"#utility.yul\":25120:25137   */\n      add\n        /* \"#utility.yul\":25113:25160   */\n      mstore\n        /* \"#utility.yul\":25177:25308   */\n      tag_545\n        /* \"#utility.yul\":25303:25307   */\n      dup2\n        /* \"#utility.yul\":25177:25308   */\n      tag_286\n      jump\t// in\n    tag_545:\n        /* \"#utility.yul\":25169:25308   */\n      swap1\n      pop\n        /* \"#utility.yul\":24896:25315   */\n      swap2\n      swap1\n      pop\n      jump\t// out\n        /* \"#utility.yul\":25321:25501   */\n    tag_107:\n        /* \"#utility.yul\":25369:25446   */\n      0x4e487b7100000000000000000000000000000000000000000000000000000000\n        /* \"#utility.yul\":25366:25367   */\n      0x00\n        /* \"#utility.yul\":25359:25447   */\n      mstore\n        /* \"#utility.yul\":25466:25470   */\n      0x32\n        /* \"#utility.yul\":25463:25464   */\n      0x04\n        /* \"#utility.yul\":25456:25471   */\n      mstore\n        /* \"#utility.yul\":25490:25494   */\n      0x24\n        /* \"#utility.yul\":25487:25488   */\n      0x00\n        /* \"#utility.yul\":25480:25495   */\n      revert\n        /* \"#utility.yul\":25507:25687   */\n    tag_287:\n        /* \"#utility.yul\":25555:25632   */\n      0x4e487b7100000000000000000000000000000000000000000000000000000000\n        /* \"#utility.yul\":25552:25553   */\n      0x00\n        /* \"#utility.yul\":25545:25633   */\n      mstore\n        /* \"#utility.yul\":25652:25656   */\n      0x12\n        /* \"#utility.yul\":25649:25650   */\n      0x04\n        /* \"#utility.yul\":25642:25657   */\n      mstore\n        /* \"#utility.yul\":25676:25680   */\n      0x24\n        /* \"#utility.yul\":25673:25674   */\n      0x00\n        /* \"#utility.yul\":25666:25681   */\n      revert\n        /* \"#utility.yul\":25693:25878   */\n    tag_118:\n        /* \"#utility.yul\":25733:25734   */\n      0x00\n        /* \"#utility.yul\":25750:25770   */\n      tag_549\n        /* \"#utility.yul\":25768:25769   */\n      dup3\n        /* \"#utility.yul\":25750:25770   */\n      tag_236\n      jump\t// in\n    tag_549:\n        /* \"#utility.yul\":25745:25770   */\n      swap2\n      pop\n        /* \"#utility.yul\":25784:25804   */\n      tag_550\n        /* \"#utility.yul\":25802:25803   */\n      dup4\n        /* \"#utility.yul\":25784:25804   */\n      tag_236\n      jump\t// in\n    tag_550:\n        /* \"#utility.yul\":25779:25804   */\n      swap3\n      pop\n        /* \"#utility.yul\":25823:25824   */\n      dup3\n        /* \"#utility.yul\":25813:25848   */\n      tag_551\n      jumpi\n        /* \"#utility.yul\":25828:25846   */\n      tag_552\n      tag_287\n      jump\t// in\n    tag_552:\n        /* \"#utility.yul\":25813:25848   */\n    tag_551:\n        /* \"#utility.yul\":25870:25871   */\n      dup3\n        /* \"#utility.yul\":25867:25868   */\n      dup3\n        /* \"#utility.yul\":25863:25872   */\n      div\n        /* \"#utility.yul\":25858:25872   */\n      swap1\n      pop\n        /* \"#utility.yul\":25693:25878   */\n      swap3\n      swap2\n      pop\n      pop\n      jump\t// out\n        /* \"#utility.yul\":25884:26111   */\n    tag_288:\n        /* \"#utility.yul\":26024:26058   */\n      0x5769746864726177616c20616d6f756e74206d75737420626520677265617465\n        /* \"#utility.yul\":26020:26021   */\n      0x00\n        /* \"#utility.yul\":26012:26018   */\n      dup3\n        /* \"#utility.yul\":26008:26022   */\n      add\n        /* \"#utility.yul\":26001:26059   */\n      mstore\n        /* \"#utility.yul\":26093:26103   */\n      0x72207468616e2030000000000000000000000000000000000000000000000000\n        /* \"#utility.yul\":26088:26090   */\n      0x20\n        /* \"#utility.yul\":26080:26086   */\n      dup3\n        /* \"#utility.yul\":26076:26091   */\n      add\n        /* \"#utility.yul\":26069:26104   */\n      mstore\n        /* \"#utility.yul\":25884:26111   */\n      pop\n      jump\t// out\n        /* \"#utility.yul\":26117:26483   */\n    tag_289:\n        /* \"#utility.yul\":26259:26262   */\n      0x00\n        /* \"#utility.yul\":26280:26347   */\n      tag_555\n        /* \"#utility.yul\":26344:26346   */\n      0x28\n        /* \"#utility.yul\":26339:26342   */\n      dup4\n        /* \"#utility.yul\":26280:26347   */\n      tag_258\n      jump\t// in\n    tag_555:\n        /* \"#utility.yul\":26273:26347   */\n      swap2\n      pop\n        /* \"#utility.yul\":26356:26449   */\n      tag_556\n        /* \"#utility.yul\":26445:26448   */\n      dup3\n        /* \"#utility.yul\":26356:26449   */\n      tag_288\n      jump\t// in\n    tag_556:\n        /* \"#utility.yul\":26474:26476   */\n      0x40\n        /* \"#utility.yul\":26469:26472   */\n      dup3\n        /* \"#utility.yul\":26465:26477   */\n      add\n        /* \"#utility.yul\":26458:26477   */\n      swap1\n      pop\n        /* \"#utility.yul\":26117:26483   */\n      swap2\n      swap1\n      pop\n      jump\t// out\n        /* \"#utility.yul\":26489:26908   */\n    tag_135:\n        /* \"#utility.yul\":26655:26659   */\n      0x00\n        /* \"#utility.yul\":26693:26695   */\n      0x20\n        /* \"#utility.yul\":26682:26691   */\n      dup3\n        /* \"#utility.yul\":26678:26696   */\n      add\n        /* \"#utility.yul\":26670:26696   */\n      swap1\n      pop\n        /* \"#utility.yul\":26742:26751   */\n      dup2\n        /* \"#utility.yul\":26736:26740   */\n      dup2\n        /* \"#utility.yul\":26732:26752   */\n      sub\n        /* \"#utility.yul\":26728:26729   */\n      0x00\n        /* \"#utility.yul\":26717:26726   */\n      dup4\n        /* \"#utility.yul\":26713:26730   */\n      add\n        /* \"#utility.yul\":26706:26753   */\n      mstore\n        /* \"#utility.yul\":26770:26901   */\n      tag_558\n        /* \"#utility.yul\":26896:26900   */\n      dup2\n        /* \"#utility.yul\":26770:26901   */\n      tag_289\n      jump\t// in\n    tag_558:\n        /* \"#utility.yul\":26762:26901   */\n      swap1\n      pop\n        /* \"#utility.yul\":26489:26908   */\n      swap2\n      swap1\n      pop\n      jump\t// out\n        /* \"#utility.yul\":26914:27082   */\n    tag_290:\n        /* \"#utility.yul\":27054:27074   */\n      0x476f616c206973206e6f74206163746976650000000000000000000000000000\n        /* \"#utility.yul\":27050:27051   */\n      0x00\n        /* \"#utility.yul\":27042:27048   */\n      dup3\n        /* \"#utility.yul\":27038:27052   */\n      add\n        /* \"#utility.yul\":27031:27075   */\n      mstore\n        /* \"#utility.yul\":26914:27082   */\n      pop\n      jump\t// out\n        /* \"#utility.yul\":27088:27454   */\n    tag_291:\n        /* \"#utility.yul\":27230:27233   */\n      0x00\n        /* \"#utility.yul\":27251:27318   */\n      tag_561\n        /* \"#utility.yul\":27315:27317   */\n      0x12\n        /* \"#utility.yul\":27310:27313   */\n      dup4\n        /* \"#utility.yul\":27251:27318   */\n      tag_258\n      jump\t// in\n    tag_561:\n        /* \"#utility.yul\":27244:27318   */\n      swap2\n      pop\n        /* \"#utility.yul\":27327:27420   */\n      tag_562\n        /* \"#utility.yul\":27416:27419   */\n      dup3\n        /* \"#utility.yul\":27327:27420   */\n      tag_290\n      jump\t// in\n    tag_562:\n        /* \"#utility.yul\":27445:27447   */\n      0x20\n        /* \"#utility.yul\":27440:27443   */\n      dup3\n        /* \"#utility.yul\":27436:27448   */\n      add\n        /* \"#utility.yul\":27429:27448   */\n      swap1\n      pop\n        /* \"#utility.yul\":27088:27454   */\n      swap2\n      swap1\n      pop\n      jump\t// out\n        /* \"#utility.yul\":27460:27879   */\n    tag_141:\n        /* \"#utility.yul\":27626:27630   */\n      0x00\n        /* \"#utility.yul\":27664:27666   */\n      0x20\n        /* \"#utility.yul\":27653:27662   */\n      dup3\n        /* \"#utility.yul\":27649:27667   */\n      add\n        /* \"#utility.yul\":27641:27667   */\n      swap1\n      pop\n        /* \"#utility.yul\":27713:27722   */\n      dup2\n        /* \"#utility.yul\":27707:27711   */\n      dup2\n        /* \"#utility.yul\":27703:27723   */\n      sub\n        /* \"#utility.yul\":27699:27700   */\n      0x00\n        /* \"#utility.yul\":27688:27697   */\n      dup4\n        /* \"#utility.yul\":27684:27701   */\n      add\n        /* \"#utility.yul\":27677:27724   */\n      mstore\n        /* \"#utility.yul\":27741:27872   */\n      tag_564\n        /* \"#utility.yul\":27867:27871   */\n      dup2\n        /* \"#utility.yul\":27741:27872   */\n      tag_291\n      jump\t// in\n    tag_564:\n        /* \"#utility.yul\":27733:27872   */\n      swap1\n      pop\n        /* \"#utility.yul\":27460:27879   */\n      swap2\n      swap1\n      pop\n      jump\t// out\n        /* \"#utility.yul\":27885:28055   */\n    tag_292:\n        /* \"#utility.yul\":28025:28047   */\n      0x496e73756666696369656e742062616c616e6365000000000000000000000000\n        /* \"#utility.yul\":28021:28022   */\n      0x00\n        /* \"#utility.yul\":28013:28019   */\n      dup3\n        /* \"#utility.yul\":28009:28023   */\n      add\n        /* \"#utility.yul\":28002:28048   */\n      mstore\n        /* \"#utility.yul\":27885:28055   */\n      pop\n      jump\t// out\n        /* \"#utility.yul\":28061:28427   */\n    tag_293:\n        /* \"#utility.yul\":28203:28206   */\n      0x00\n        /* \"#utility.yul\":28224:28291   */\n      tag_567\n        /* \"#utility.yul\":28288:28290   */\n      0x14\n        /* \"#utility.yul\":28283:28286   */\n      dup4\n        /* \"#utility.yul\":28224:28291   */\n      tag_258\n      jump\t// in\n    tag_567:\n        /* \"#utility.yul\":28217:28291   */\n      swap2\n      pop\n        /* \"#utility.yul\":28300:28393   */\n      tag_568\n        /* \"#utility.yul\":28389:28392   */\n      dup3\n        /* \"#utility.yul\":28300:28393   */\n      tag_292\n      jump\t// in\n    tag_568:\n        /* \"#utility.yul\":28418:28420   */\n      0x20\n        /* \"#utility.yul\":28413:28416   */\n      dup3\n        /* \"#utility.yul\":28409:28421   */\n      add\n        /* \"#utility.yul\":28402:28421   */\n      swap1\n      pop\n        /* \"#utility.yul\":28061:28427   */\n      swap2\n      swap1\n      pop\n      jump\t// out\n        /* \"#utility.yul\":28433:28852   */\n    tag_144:\n        /* \"#utility.yul\":28599:28603   */\n      0x00\n        /* \"#utility.yul\":28637:28639   */\n      0x20\n        /* \"#utility.yul\":28626:28635   */\n      dup3\n        /* \"#utility.yul\":28622:28640   */\n      add\n        /* \"#utility.yul\":28614:28640   */\n      swap1\n      pop\n        /* \"#utility.yul\":28686:28695   */\n      dup2\n        /* \"#utility.yul\":28680:28684   */\n      dup2\n        /* \"#utility.yul\":28676:28696   */\n      sub\n        /* \"#utility.yul\":28672:28673   */\n      0x00\n        /* \"#utility.yul\":28661:28670   */\n      dup4\n        /* \"#utility.yul\":28657:28674   */\n      add\n        /* \"#utility.yul\":28650:28697   */\n      mstore\n        /* \"#utility.yul\":28714:28845   */\n      tag_570\n        /* \"#utility.yul\":28840:28844   */\n      dup2\n        /* \"#utility.yul\":28714:28845   */\n      tag_293\n      jump\t// in\n    tag_570:\n        /* \"#utility.yul\":28706:28845   */\n      swap1\n      pop\n        /* \"#utility.yul\":28433:28852   */\n      swap2\n      swap1\n      pop\n      jump\t// out\n        /* \"#utility.yul\":28858:29005   */\n    tag_294:\n        /* \"#utility.yul\":28959:28970   */\n      0x00\n        /* \"#utility.yul\":28996:28999   */\n      dup2\n        /* \"#utility.yul\":28981:28999   */\n      swap1\n      pop\n        /* \"#utility.yul\":28858:29005   */\n      swap3\n      swap2\n      pop\n      pop\n      jump\t// out\n        /* \"#utility.yul\":29011:29125   */\n    tag_295:\n      pop\n      jump\t// out\n        /* \"#utility.yul\":29131:29529   */\n    tag_296:\n        /* \"#utility.yul\":29290:29293   */\n      0x00\n        /* \"#utility.yul\":29311:29394   */\n      tag_574\n        /* \"#utility.yul\":29392:29393   */\n      0x00\n        /* \"#utility.yul\":29387:29390   */\n      dup4\n        /* \"#utility.yul\":29311:29394   */\n      tag_294\n      jump\t// in\n    tag_574:\n        /* \"#utility.yul\":29304:29394   */\n      swap2\n      pop\n        /* \"#utility.yul\":29403:29496   */\n      tag_575\n        /* \"#utility.yul\":29492:29495   */\n      dup3\n        /* \"#utility.yul\":29403:29496   */\n      tag_295\n      jump\t// in\n    tag_575:\n        /* \"#utility.yul\":29521:29522   */\n      0x00\n        /* \"#utility.yul\":29516:29519   */\n      dup3\n        /* \"#utility.yul\":29512:29523   */\n      add\n        /* \"#utility.yul\":29505:29523   */\n      swap1\n      pop\n        /* \"#utility.yul\":29131:29529   */\n      swap2\n      swap1\n      pop\n      jump\t// out\n        /* \"#utility.yul\":29535:29914   */\n    tag_148:\n        /* \"#utility.yul\":29719:29722   */\n      0x00\n        /* \"#utility.yul\":29741:29888   */\n      tag_577\n        /* \"#utility.yul\":29884:29887   */\n      dup3\n        /* \"#utility.yul\":29741:29888   */\n      tag_296\n      jump\t// in\n    tag_577:\n        /* \"#utility.yul\":29734:29888   */\n      swap2\n      pop\n        /* \"#utility.yul\":29905:29908   */\n      dup2\n        /* \"#utility.yul\":29898:29908   */\n      swap1\n      pop\n        /* \"#utility.yul\":29535:29914   */\n      swap2\n      swap1\n      pop\n      jump\t// out\n        /* \"#utility.yul\":29920:30085   */\n    tag_297:\n        /* \"#utility.yul\":30060:30077   */\n      0x5472616e73666572206661696c65640000000000000000000000000000000000\n        /* \"#utility.yul\":30056:30057   */\n      0x00\n        /* \"#utility.yul\":30048:30054   */\n      dup3\n        /* \"#utility.yul\":30044:30058   */\n      add\n        /* \"#utility.yul\":30037:30078   */\n      mstore\n        /* \"#utility.yul\":29920:30085   */\n      pop\n      jump\t// out\n        /* \"#utility.yul\":30091:30457   */\n    tag_298:\n        /* \"#utility.yul\":30233:30236   */\n      0x00\n        /* \"#utility.yul\":30254:30321   */\n      tag_580\n        /* \"#utility.yul\":30318:30320   */\n      0x0f\n        /* \"#utility.yul\":30313:30316   */\n      dup4\n        /* \"#utility.yul\":30254:30321   */\n      tag_258\n      jump\t// in\n    tag_580:\n        /* \"#utility.yul\":30247:30321   */\n      swap2\n      pop\n        /* \"#utility.yul\":30330:30423   */\n      tag_581\n        /* \"#utility.yul\":30419:30422   */\n      dup3\n        /* \"#utility.yul\":30330:30423   */\n      tag_297\n      jump\t// in\n    tag_581:\n        /* \"#utility.yul\":30448:30450   */\n      0x20\n        /* \"#utility.yul\":30443:30446   */\n      dup3\n        /* \"#utility.yul\":30439:30451   */\n      add\n        /* \"#utility.yul\":30432:30451   */\n      swap1\n      pop\n        /* \"#utility.yul\":30091:30457   */\n      swap2\n      swap1\n      pop\n      jump\t// out\n        /* \"#utility.yul\":30463:30882   */\n    tag_154:\n        /* \"#utility.yul\":30629:30633   */\n      0x00\n        /* \"#utility.yul\":30667:30669   */\n      0x20\n        /* \"#utility.yul\":30656:30665   */\n      dup3\n        /* \"#utility.yul\":30652:30670   */\n      add\n        /* \"#utility.yul\":30644:30670   */\n      swap1\n      pop\n        /* \"#utility.yul\":30716:30725   */\n      dup2\n        /* \"#utility.yul\":30710:30714   */\n      dup2\n        /* \"#utility.yul\":30706:30726   */\n      sub\n        /* \"#utility.yul\":30702:30703   */\n      0x00\n        /* \"#utility.yul\":30691:30700   */\n      dup4\n        /* \"#utility.yul\":30687:30704   */\n      add\n        /* \"#utility.yul\":30680:30727   */\n      mstore\n        /* \"#utility.yul\":30744:30875   */\n      tag_583\n        /* \"#utility.yul\":30870:30874   */\n      dup2\n        /* \"#utility.yul\":30744:30875   */\n      tag_298\n      jump\t// in\n    tag_583:\n        /* \"#utility.yul\":30736:30875   */\n      swap1\n      pop\n        /* \"#utility.yul\":30463:30882   */\n      swap2\n      swap1\n      pop\n      jump\t// out\n        /* \"#utility.yul\":30888:31220   */\n    tag_156:\n        /* \"#utility.yul\":31009:31013   */\n      0x00\n        /* \"#utility.yul\":31047:31049   */\n      0x40\n        /* \"#utility.yul\":31036:31045   */\n      dup3\n        /* \"#utility.yul\":31032:31050   */\n      add\n        /* \"#utility.yul\":31024:31050   */\n      swap1\n      pop\n        /* \"#utility.yul\":31060:31131   */\n      tag_585\n        /* \"#utility.yul\":31128:31129   */\n      0x00\n        /* \"#utility.yul\":31117:31126   */\n      dup4\n        /* \"#utility.yul\":31113:31130   */\n      add\n        /* \"#utility.yul\":31104:31110   */\n      dup6\n        /* \"#utility.yul\":31060:31131   */\n      tag_243\n      jump\t// in\n    tag_585:\n        /* \"#utility.yul\":31141:31213   */\n      tag_586\n        /* \"#utility.yul\":31209:31211   */\n      0x20\n        /* \"#utility.yul\":31198:31207   */\n      dup4\n        /* \"#utility.yul\":31194:31212   */\n      add\n        /* \"#utility.yul\":31185:31191   */\n      dup5\n        /* \"#utility.yul\":31141:31213   */\n      tag_243\n      jump\t// in\n    tag_586:\n        /* \"#utility.yul\":30888:31220   */\n      swap4\n      swap3\n      pop\n      pop\n      pop\n      jump\t// out\n        /* \"#utility.yul\":31226:31450   */\n    tag_299:\n        /* \"#utility.yul\":31366:31400   */\n      0x4465706f73697420616d6f756e74206d75737420626520677265617465722074\n        /* \"#utility.yul\":31362:31363   */\n      0x00\n        /* \"#utility.yul\":31354:31360   */\n      dup3\n        /* \"#utility.yul\":31350:31364   */\n      add\n        /* \"#utility.yul\":31343:31401   */\n      mstore\n        /* \"#utility.yul\":31435:31442   */\n      0x68616e2030000000000000000000000000000000000000000000000000000000\n        /* \"#utility.yul\":31430:31432   */\n      0x20\n        /* \"#utility.yul\":31422:31428   */\n      dup3\n        /* \"#utility.yul\":31418:31433   */\n      add\n        /* \"#utility.yul\":31411:31443   */\n      mstore\n        /* \"#utility.yul\":31226:31450   */\n      pop\n      jump\t// out\n        /* \"#utility.yul\":31456:31822   */\n    tag_300:\n        /* \"#utility.yul\":31598:31601   */\n      0x00\n        /* \"#utility.yul\":31619:31686   */\n      tag_589\n        /* \"#utility.yul\":31683:31685   */\n      0x25\n        /* \"#utility.yul\":31678:31681   */\n      dup4\n        /* \"#utility.yul\":31619:31686   */\n      tag_258\n      jump\t// in\n    tag_589:\n        /* \"#utility.yul\":31612:31686   */\n      swap2\n      pop\n        /* \"#utility.yul\":31695:31788   */\n      tag_590\n        /* \"#utility.yul\":31784:31787   */\n      dup3\n        /* \"#utility.yul\":31695:31788   */\n      tag_299\n      jump\t// in\n    tag_590:\n        /* \"#utility.yul\":31813:31815   */\n      0x40\n        /* \"#utility.yul\":31808:31811   */\n      dup3\n        /* \"#utility.yul\":31804:31816   */\n      add\n        /* \"#utility.yul\":31797:31816   */\n      swap1\n      pop\n        /* \"#utility.yul\":31456:31822   */\n      swap2\n      swap1\n      pop\n      jump\t// out\n        /* \"#utility.yul\":31828:32247   */\n    tag_169:\n        /* \"#utility.yul\":31994:31998   */\n      0x00\n        /* \"#utility.yul\":32032:32034   */\n      0x20\n        /* \"#utility.yul\":32021:32030   */\n      dup3\n        /* \"#utility.yul\":32017:32035   */\n      add\n        /* \"#utility.yul\":32009:32035   */\n      swap1\n      pop\n        /* \"#utility.yul\":32081:32090   */\n      dup2\n        /* \"#utility.yul\":32075:32079   */\n      dup2\n        /* \"#utility.yul\":32071:32091   */\n      sub\n        /* \"#utility.yul\":32067:32068   */\n      0x00\n        /* \"#utility.yul\":32056:32065   */\n      dup4\n        /* \"#utility.yul\":32052:32069   */\n      add\n        /* \"#utility.yul\":32045:32092   */\n      mstore\n        /* \"#utility.yul\":32109:32240   */\n      tag_592\n        /* \"#utility.yul\":32235:32239   */\n      dup2\n        /* \"#utility.yul\":32109:32240   */\n      tag_300\n      jump\t// in\n    tag_592:\n        /* \"#utility.yul\":32101:32240   */\n      swap1\n      pop\n        /* \"#utility.yul\":31828:32247   */\n      swap2\n      swap1\n      pop\n      jump\t// out\n        /* \"#utility.yul\":32253:32425   */\n    tag_301:\n        /* \"#utility.yul\":32393:32417   */\n      0x476f616c20697320616c726561647920636c6f73656400000000000000000000\n        /* \"#utility.yul\":32389:32390   */\n      0x00\n        /* \"#utility.yul\":32381:32387   */\n      dup3\n        /* \"#utility.yul\":32377:32391   */\n      add\n        /* \"#utility.yul\":32370:32418   */\n      mstore\n        /* \"#utility.yul\":32253:32425   */\n      pop\n      jump\t// out\n        /* \"#utility.yul\":32431:32797   */\n    tag_302:\n        /* \"#utility.yul\":32573:32576   */\n      0x00\n        /* \"#utility.yul\":32594:32661   */\n      tag_595\n        /* \"#utility.yul\":32658:32660   */\n      0x16\n        /* \"#utility.yul\":32653:32656   */\n      dup4\n        /* \"#utility.yul\":32594:32661   */\n      tag_258\n      jump\t// in\n    tag_595:\n        /* \"#utility.yul\":32587:32661   */\n      swap2\n      pop\n        /* \"#utility.yul\":32670:32763   */\n      tag_596\n        /* \"#utility.yul\":32759:32762   */\n      dup3\n        /* \"#utility.yul\":32670:32763   */\n      tag_301\n      jump\t// in\n    tag_596:\n        /* \"#utility.yul\":32788:32790   */\n      0x20\n        /* \"#utility.yul\":32783:32786   */\n      dup3\n        /* \"#utility.yul\":32779:32791   */\n      add\n        /* \"#utility.yul\":32772:32791   */\n      swap1\n      pop\n        /* \"#utility.yul\":32431:32797   */\n      swap2\n      swap1\n      pop\n      jump\t// out\n        /* \"#utility.yul\":32803:33222   */\n    tag_214:\n        /* \"#utility.yul\":32969:32973   */\n      0x00\n        /* \"#utility.yul\":33007:33009   */\n      0x20\n        /* \"#utility.yul\":32996:33005   */\n      dup3\n        /* \"#utility.yul\":32992:33010   */\n      add\n        /* \"#utility.yul\":32984:33010   */\n      swap1\n      pop\n        /* \"#utility.yul\":33056:33065   */\n      dup2\n        /* \"#utility.yul\":33050:33054   */\n      dup2\n        /* \"#utility.yul\":33046:33066   */\n      sub\n        /* \"#utility.yul\":33042:33043   */\n      0x00\n        /* \"#utility.yul\":33031:33040   */\n      dup4\n        /* \"#utility.yul\":33027:33044   */\n      add\n        /* \"#utility.yul\":33020:33067   */\n      mstore\n        /* \"#utility.yul\":33084:33215   */\n      tag_598\n        /* \"#utility.yul\":33210:33214   */\n      dup2\n        /* \"#utility.yul\":33084:33215   */\n      tag_302\n      jump\t// in\n    tag_598:\n        /* \"#utility.yul\":33076:33215   */\n      swap1\n      pop\n        /* \"#utility.yul\":32803:33222   */\n      swap2\n      swap1\n      pop\n      jump\t// out\n\n    auxdata: 0xa2646970667358221220b1b3c755507ac8557f2c6ebd964db528de9b24dcbd307b0195ca216707ff04f864736f6c63430008130033\n}\n",
				"bytecode": {
					"linkReferences": {},
					"object": "608060405234801561001057600080fd5b5061283b806100206000396000f3fe6080604052600436106100a75760003560e01c80635cb65e62116100645780635cb65e62146101f2578063b6b3eedf1461022f578063b6b55f2514610271578063bcfb3c031461028d578063f462ca93146102ca578063f51b715614610307576100a7565b8063113d2278146100ac5780632134ec27146100d557806331d6aec11461011257806335742c631461014f578063441a3e701461018c578063462ba2f7146101b5575b600080fd5b3480156100b857600080fd5b506100d360048036038101906100ce91906118fa565b610330565b005b3480156100e157600080fd5b506100fc60048036038101906100f791906119c7565b6105c2565b6040516101099190611a03565b60405180910390f35b34801561011e57600080fd5b5061013960048036038101906101349190611a1e565b6105da565b6040516101469190611a03565b60405180910390f35b34801561015b57600080fd5b50610176600480360381019061017191906119c7565b6107f7565b6040516101839190611c52565b60405180910390f35b34801561019857600080fd5b506101b360048036038101906101ae9190611c74565b610969565b005b3480156101c157600080fd5b506101dc60048036038101906101d791906119c7565b610ca1565b6040516101e99190611a03565b60405180910390f35b3480156101fe57600080fd5b50610219600480360381019061021491906119c7565b610cec565b6040516102269190611a03565b60405180910390f35b34801561023b57600080fd5b5061025660048036038101906102519190611a1e565b610d35565b60405161026896959493929190611d0d565b60405180910390f35b61028b60048036038101906102869190611d75565b610e23565b005b34801561029957600080fd5b506102b460048036038101906102af9190611a1e565b6110c9565b6040516102c19190611e2b565b60405180910390f35b3480156102d657600080fd5b506102f160048036038101906102ec9190611a1e565b61129a565b6040516102fe9190611e4d565b60405180910390f35b34801561031357600080fd5b5061032e60048036038101906103299190611d75565b611476565b005b60008211610373576040517f08c379a000000000000000000000000000000000000000000000000000000000815260040161036a90611eda565b60405180910390fd5b600081116103b6576040517f08c379a00000000000000000000000000000000000000000000000000000000081526004016103ad90611f46565b60405180910390fd5b60008351116103fa576040517f08c379a00000000000000000000000000000000000000000000000000000000081526004016103f190611fb2565b60405180910390fd5b6000620151808261040b9190612001565b426104169190612043565b905060006040518060c00160405280868152602001858152602001600081526020018381526020016001151581526020014281525090506000803373ffffffffffffffffffffffffffffffffffffffff1673ffffffffffffffffffffffffffffffffffffffff16815260200190815260200160002081908060018154018082558091505060019003906000526020600020906006020160009091909190915060008201518160000190816104ca9190612283565b5060208201518160010155604082015181600201556060820151816003015560808201518160040160006101000a81548160ff02191690831515021790555060a082015181600501555050600060016000803373ffffffffffffffffffffffffffffffffffffffff1673ffffffffffffffffffffffffffffffffffffffff168152602001908152602001600020805490506105659190612355565b9050803373ffffffffffffffffffffffffffffffffffffffff167fb7904dbdcb6700a49a6914ea6cbb34cf3ca1ff25f06c6b0ea948b79076a20f458888876040516105b293929190612389565b60405180910390a3505050505050565b60016020528060005260406000206000915090505481565b60008060008473ffffffffffffffffffffffffffffffffffffffff1673ffffffffffffffffffffffffffffffffffffffff16815260200190815260200160002080549050821061065f576040517f08c379a000000000000000000000000000000000000000000000000000000000815260040161065690612413565b60405180910390fd5b60008060008573ffffffffffffffffffffffffffffffffffffffff1673ffffffffffffffffffffffffffffffffffffffff16815260200190815260200160002083815481106106b1576106b0612433565b5b90600052602060002090600602016040518060c00160405290816000820180546106da906120a6565b80601f0160208091040260200160405190810160405280929190818152602001828054610706906120a6565b80156107535780601f1061072857610100808354040283529160200191610753565b820191906000526020600020905b81548152906001019060200180831161073657829003601f168201915b505050505081526020016001820154815260200160028201548152602001600382015481526020016004820160009054906101000a900460ff16151515158152602001600582015481525050905060008160200151036107b75760009150506107f1565b60008160200151606483604001516107cf9190612001565b6107d99190612491565b9050606481116107e957806107ec565b60645b925050505b92915050565b60606000808373ffffffffffffffffffffffffffffffffffffffff1673ffffffffffffffffffffffffffffffffffffffff168152602001908152602001600020805480602002602001604051908101604052809291908181526020016000905b8282101561095e57838290600052602060002090600602016040518060c001604052908160008201805461088a906120a6565b80601f01602080910402602001604051908101604052809291908181526020018280546108b6906120a6565b80156109035780601f106108d857610100808354040283529160200191610903565b820191906000526020600020905b8154815290600101906020018083116108e657829003601f168201915b505050505081526020016001820154815260200160028201548152602001600382015481526020016004820160009054906101000a900460ff1615151515815260200160058201548152505081526020019060010190610857565b505050509050919050565b6000803373ffffffffffffffffffffffffffffffffffffffff1673ffffffffffffffffffffffffffffffffffffffff1681526020019081526020016000208054905082106109ec576040517f08c379a00000000000000000000000000000000000000000000000000000000081526004016109e390612413565b60405180910390fd5b60008111610a2f576040517f08c379a0000000000000000000000000000000000000000000000000000000008152600401610a2690612534565b60405180910390fd5b60008060003373ffffffffffffffffffffffffffffffffffffffff1673ffffffffffffffffffffffffffffffffffffffff1681526020019081526020016000208381548110610a8157610a80612433565b5b906000526020600020906006020190508060040160009054906101000a900460ff16610ae2576040517f08c379a0000000000000000000000000000000000000000000000000000000008152600401610ad9906125a0565b60405180910390fd5b8181600201541015610b29576040517f08c379a0000000000000000000000000000000000000000000000000000000008152600401610b209061260c565b60405180910390fd5b81816002016000828254610b3d9190612355565b9250508190555081600160003373ffffffffffffffffffffffffffffffffffffffff1673ffffffffffffffffffffffffffffffffffffffff1681526020019081526020016000206000828254610b939190612355565b9250508190555060003373ffffffffffffffffffffffffffffffffffffffff1683604051610bc09061265d565b60006040518083038185875af1925050503d8060008114610bfd576040519150601f19603f3d011682016040523d82523d6000602084013e610c02565b606091505b5050905080610c46576040517f08c379a0000000000000000000000000000000000000000000000000000000008152600401610c3d906126be565b60405180910390fd5b833373ffffffffffffffffffffffffffffffffffffffff167f650fdf669e93aa6c8ff3defe2da9c12b64f1548e5e1e54e803f4c1beb6466c8e858560020154604051610c939291906126de565b60405180910390a350505050565b60008060008373ffffffffffffffffffffffffffffffffffffffff1673ffffffffffffffffffffffffffffffffffffffff168152602001908152602001600020805490509050919050565b6000600160008373ffffffffffffffffffffffffffffffffffffffff1673ffffffffffffffffffffffffffffffffffffffff168152602001908152602001600020549050919050565b60006020528160005260406000208181548110610d5157600080fd5b906000526020600020906006020160009150915050806000018054610d75906120a6565b80601f0160208091040260200160405190810160405280929190818152602001828054610da1906120a6565b8015610dee5780601f10610dc357610100808354040283529160200191610dee565b820191906000526020600020905b815481529060010190602001808311610dd157829003601f168201915b5050505050908060010154908060020154908060030154908060040160009054906101000a900460ff16908060050154905086565b60003411610e66576040517f08c379a0000000000000000000000000000000000000000000000000000000008152600401610e5d90612779565b60405180910390fd5b6000803373ffffffffffffffffffffffffffffffffffffffff1673ffffffffffffffffffffffffffffffffffffffff168152602001908152602001600020805490508110610ee9576040517f08c379a0000000000000000000000000000000000000000000000000000000008152600401610ee090612413565b60405180910390fd5b60008060003373ffffffffffffffffffffffffffffffffffffffff1673ffffffffffffffffffffffffffffffffffffffff1681526020019081526020016000208281548110610f3b57610f3a612433565b5b906000526020600020906006020190508060040160009054906101000a900460ff16610f9c576040517f08c379a0000000000000000000000000000000000000000000000000000000008152600401610f93906125a0565b60405180910390fd5b34816002016000828254610fb09190612043565b9250508190555034600160003373ffffffffffffffffffffffffffffffffffffffff1673ffffffffffffffffffffffffffffffffffffffff16815260200190815260200160002060008282546110069190612043565b92505081905550813373ffffffffffffffffffffffffffffffffffffffff167f36af321ec8d3c75236829c5317affd40ddb308863a1236d2d277a4025cccee1e34846002015460405161105a9291906126de565b60405180910390a380600101548160020154106110c557813373ffffffffffffffffffffffffffffffffffffffff167f5fdb120e2225930f6b50914ed30f8f8b37a0a6c7b6df7b1f0f7f235791bfc34183600201546040516110bc9190611a03565b60405180910390a35b5050565b6110d1611732565b6000808473ffffffffffffffffffffffffffffffffffffffff1673ffffffffffffffffffffffffffffffffffffffff168152602001908152602001600020805490508210611154576040517f08c379a000000000000000000000000000000000000000000000000000000000815260040161114b90612413565b60405180910390fd5b6000808473ffffffffffffffffffffffffffffffffffffffff1673ffffffffffffffffffffffffffffffffffffffff16815260200190815260200160002082815481106111a4576111a3612433565b5b90600052602060002090600602016040518060c00160405290816000820180546111cd906120a6565b80601f01602080910402602001604051908101604052809291908181526020018280546111f9906120a6565b80156112465780601f1061121b57610100808354040283529160200191611246565b820191906000526020600020905b81548152906001019060200180831161122957829003601f168201915b505050505081526020016001820154815260200160028201548152602001600382015481526020016004820160009054906101000a900460ff16151515158152602001600582015481525050905092915050565b60008060008473ffffffffffffffffffffffffffffffffffffffff1673ffffffffffffffffffffffffffffffffffffffff16815260200190815260200160002080549050821061131f576040517f08c379a000000000000000000000000000000000000000000000000000000000815260040161131690612413565b60405180910390fd5b60008060008573ffffffffffffffffffffffffffffffffffffffff1673ffffffffffffffffffffffffffffffffffffffff168152602001908152602001600020838154811061137157611370612433565b5b90600052602060002090600602016040518060c001604052908160008201805461139a906120a6565b80601f01602080910402602001604051908101604052809291908181526020018280546113c6906120a6565b80156114135780601f106113e857610100808354040283529160200191611413565b820191906000526020600020905b8154815290600101906020018083116113f657829003601f168201915b505050505081526020016001820154815260200160028201548152602001600382015481526020016004820160009054906101000a900460ff16151515158152602001600582015481525050905080602001518160400151101591505092915050565b6000803373ffffffffffffffffffffffffffffffffffffffff1673ffffffffffffffffffffffffffffffffffffffff1681526020019081526020016000208054905081106114f9576040517f08c379a00000000000000000000000000000000000000000000000000000000081526004016114f090612413565b60405180910390fd5b60008060003373ffffffffffffffffffffffffffffffffffffffff1673ffffffffffffffffffffffffffffffffffffffff168152602001908152602001600020828154811061154b5761154a612433565b5b906000526020600020906006020190508060040160009054906101000a900460ff166115ac576040517f08c379a00000000000000000000000000000000000000000000000000000000081526004016115a3906127e5565b60405180910390fd5b60008160020154905060008260040160006101000a81548160ff0219169083151502179055506000826002018190555080600160003373ffffffffffffffffffffffffffffffffffffffff1673ffffffffffffffffffffffffffffffffffffffff168152602001908152602001600020600082825461162b9190612355565b9250508190555060008111156116e95760003373ffffffffffffffffffffffffffffffffffffffff16826040516116619061265d565b60006040518083038185875af1925050503d806000811461169e576040519150601f19603f3d011682016040523d82523d6000602084013e6116a3565b606091505b50509050806116e7576040517f08c379a00000000000000000000000000000000000000000000000000000000081526004016116de906126be565b60405180910390fd5b505b823373ffffffffffffffffffffffffffffffffffffffff167fab8d6627d8bb77baea003f183a1fe533202e576795e8d416da359f07a44f358260405160405180910390a3505050565b6040518060c0016040528060608152602001600081526020016000815260200160008152602001600015158152602001600081525090565b6000604051905090565b600080fd5b600080fd5b600080fd5b600080fd5b6000601f19601f8301169050919050565b7f4e487b7100000000000000000000000000000000000000000000000000000000600052604160045260246000fd5b6117d182611788565b810181811067ffffffffffffffff821117156117f0576117ef611799565b5b80604052505050565b600061180361176a565b905061180f82826117c8565b919050565b600067ffffffffffffffff82111561182f5761182e611799565b5b61183882611788565b9050602081019050919050565b82818337600083830152505050565b600061186761186284611814565b6117f9565b90508281526020810184848401111561188357611882611783565b5b61188e848285611845565b509392505050565b600082601f8301126118ab576118aa61177e565b5b81356118bb848260208601611854565b91505092915050565b6000819050919050565b6118d7816118c4565b81146118e257600080fd5b50565b6000813590506118f4816118ce565b92915050565b60008060006060848603121561191357611912611774565b5b600084013567ffffffffffffffff81111561193157611930611779565b5b61193d86828701611896565b935050602061194e868287016118e5565b925050604061195f868287016118e5565b9150509250925092565b600073ffffffffffffffffffffffffffffffffffffffff82169050919050565b600061199482611969565b9050919050565b6119a481611989565b81146119af57600080fd5b50565b6000813590506119c18161199b565b92915050565b6000602082840312156119dd576119dc611774565b5b60006119eb848285016119b2565b91505092915050565b6119fd816118c4565b82525050565b6000602082019050611a1860008301846119f4565b92915050565b60008060408385031215611a3557611a34611774565b5b6000611a43858286016119b2565b9250506020611a54858286016118e5565b9150509250929050565b600081519050919050565b600082825260208201905092915050565b6000819050602082019050919050565b600081519050919050565b600082825260208201905092915050565b60005b83811015611ac4578082015181840152602081019050611aa9565b60008484015250505050565b6000611adb82611a8a565b611ae58185611a95565b9350611af5818560208601611aa6565b611afe81611788565b840191505092915050565b611b12816118c4565b82525050565b60008115159050919050565b611b2d81611b18565b82525050565b600060c0830160008301518482036000860152611b508282611ad0565b9150506020830151611b656020860182611b09565b506040830151611b786040860182611b09565b506060830151611b8b6060860182611b09565b506080830151611b9e6080860182611b24565b5060a0830151611bb160a0860182611b09565b508091505092915050565b6000611bc88383611b33565b905092915050565b6000602082019050919050565b6000611be882611a5e565b611bf28185611a69565b935083602082028501611c0485611a7a565b8060005b85811015611c405784840389528151611c218582611bbc565b9450611c2c83611bd0565b925060208a01995050600181019050611c08565b50829750879550505050505092915050565b60006020820190508181036000830152611c6c8184611bdd565b905092915050565b60008060408385031215611c8b57611c8a611774565b5b6000611c99858286016118e5565b9250506020611caa858286016118e5565b9150509250929050565b600082825260208201905092915050565b6000611cd082611a8a565b611cda8185611cb4565b9350611cea818560208601611aa6565b611cf381611788565b840191505092915050565b611d0781611b18565b82525050565b600060c0820190508181036000830152611d278189611cc5565b9050611d3660208301886119f4565b611d4360408301876119f4565b611d5060608301866119f4565b611d5d6080830185611cfe565b611d6a60a08301846119f4565b979650505050505050565b600060208284031215611d8b57611d8a611774565b5b6000611d99848285016118e5565b91505092915050565b600060c0830160008301518482036000860152611dbf8282611ad0565b9150506020830151611dd46020860182611b09565b506040830151611de76040860182611b09565b506060830151611dfa6060860182611b09565b506080830151611e0d6080860182611b24565b5060a0830151611e2060a0860182611b09565b508091505092915050565b60006020820190508181036000830152611e458184611da2565b905092915050565b6000602082019050611e626000830184611cfe565b92915050565b7f54617267657420616d6f756e74206d757374206265206772656174657220746860008201527f616e203000000000000000000000000000000000000000000000000000000000602082015250565b6000611ec4602483611cb4565b9150611ecf82611e68565b604082019050919050565b60006020820190508181036000830152611ef381611eb7565b9050919050565b7f4475726174696f6e206d7573742062652067726561746572207468616e203000600082015250565b6000611f30601f83611cb4565b9150611f3b82611efa565b602082019050919050565b60006020820190508181036000830152611f5f81611f23565b9050919050565b7f476f616c206e616d652063616e6e6f7420626520656d70747900000000000000600082015250565b6000611f9c601983611cb4565b9150611fa782611f66565b602082019050919050565b60006020820190508181036000830152611fcb81611f8f565b9050919050565b7f4e487b7100000000000000000000000000000000000000000000000000000000600052601160045260246000fd5b600061200c826118c4565b9150612017836118c4565b9250828202612025816118c4565b9150828204841483151761203c5761203b611fd2565b5b5092915050565b600061204e826118c4565b9150612059836118c4565b925082820190508082111561207157612070611fd2565b5b92915050565b7f4e487b7100000000000000000000000000000000000000000000000000000000600052602260045260246000fd5b600060028204905060018216806120be57607f821691505b6020821081036120d1576120d0612077565b5b50919050565b60008190508160005260206000209050919050565b60006020601f8301049050919050565b600082821b905092915050565b6000600883026121397fffffffffffffffffffffffffffffffffffffffffffffffffffffffffffffffff826120fc565b61214386836120fc565b95508019841693508086168417925050509392505050565b6000819050919050565b600061218061217b612176846118c4565b61215b565b6118c4565b9050919050565b6000819050919050565b61219a83612165565b6121ae6121a682612187565b848454612109565b825550505050565b600090565b6121c36121b6565b6121ce818484612191565b505050565b5b818110156121f2576121e76000826121bb565b6001810190506121d4565b5050565b601f82111561223757612208816120d7565b612211846120ec565b81016020851015612220578190505b61223461222c856120ec565b8301826121d3565b50505b505050565b600082821c905092915050565b600061225a6000198460080261223c565b1980831691505092915050565b60006122738383612249565b9150826002028217905092915050565b61228c82611a8a565b67ffffffffffffffff8111156122a5576122a4611799565b5b6122af82546120a6565b6122ba8282856121f6565b600060209050601f8311600181146122ed57600084156122db578287015190505b6122e58582612267565b86555061234d565b601f1984166122fb866120d7565b60005b82811015612323578489015182556001820191506020850194506020810190506122fe565b86831015612340578489015161233c601f891682612249565b8355505b6001600288020188555050505b505050505050565b6000612360826118c4565b915061236b836118c4565b925082820390508181111561238357612382611fd2565b5b92915050565b600060608201905081810360008301526123a38186611cc5565b90506123b260208301856119f4565b6123bf60408301846119f4565b949350505050565b7f496e76616c696420676f616c2049440000000000000000000000000000000000600082015250565b60006123fd600f83611cb4565b9150612408826123c7565b602082019050919050565b6000602082019050818103600083015261242c816123f0565b9050919050565b7f4e487b7100000000000000000000000000000000000000000000000000000000600052603260045260246000fd5b7f4e487b7100000000000000000000000000000000000000000000000000000000600052601260045260246000fd5b600061249c826118c4565b91506124a7836118c4565b9250826124b7576124b6612462565b5b828204905092915050565b7f5769746864726177616c20616d6f756e74206d7573742062652067726561746560008201527f72207468616e2030000000000000000000000000000000000000000000000000602082015250565b600061251e602883611cb4565b9150612529826124c2565b604082019050919050565b6000602082019050818103600083015261254d81612511565b9050919050565b7f476f616c206973206e6f74206163746976650000000000000000000000000000600082015250565b600061258a601283611cb4565b915061259582612554565b602082019050919050565b600060208201905081810360008301526125b98161257d565b9050919050565b7f496e73756666696369656e742062616c616e6365000000000000000000000000600082015250565b60006125f6601483611cb4565b9150612601826125c0565b602082019050919050565b60006020820190508181036000830152612625816125e9565b9050919050565b600081905092915050565b50565b600061264760008361262c565b915061265282612637565b600082019050919050565b60006126688261263a565b9150819050919050565b7f5472616e73666572206661696c65640000000000000000000000000000000000600082015250565b60006126a8600f83611cb4565b91506126b382612672565b602082019050919050565b600060208201905081810360008301526126d78161269b565b9050919050565b60006040820190506126f360008301856119f4565b61270060208301846119f4565b9392505050565b7f4465706f73697420616d6f756e74206d7573742062652067726561746572207460008201527f68616e2030000000000000000000000000000000000000000000000000000000602082015250565b6000612763602583611cb4565b915061276e82612707565b604082019050919050565b6000602082019050818103600083015261279281612756565b9050919050565b7f476f616c20697320616c726561647920636c6f73656400000000000000000000600082015250565b60006127cf601683611cb4565b91506127da82612799565b602082019050919050565b600060208201905081810360008301526127fe816127c2565b905091905056fea2646970667358221220b1b3c755507ac8557f2c6ebd964db528de9b24dcbd307b0195ca216707ff04f864736f6c63430008130033",
					"opcodes": "PUSH1 0x80 PUSH1 0x40 MSTORE CALLVALUE DUP1 ISZERO PUSH2 0x10 JUMPI PUSH1 0x0 DUP1 REVERT JUMPDEST POP PUSH2 0x283B DUP1 PUSH2 0x20 PUSH1 0x0 CODECOPY PUSH1 0x0 RETURN INVALID PUSH1 0x80 PUSH1 0x40 MSTORE PUSH1 0x4 CALLDATASIZE LT PUSH2 0xA7 JUMPI PUSH1 0x0 CALLDATALOAD PUSH1 0xE0 SHR DUP1 PUSH4 0x5CB65E62 GT PUSH2 0x64 JUMPI DUP1 PUSH4 0x5CB65E62 EQ PUSH2 0x1F2 JUMPI DUP1 PUSH4 0xB6B3EEDF EQ PUSH2 0x22F JUMPI DUP1 PUSH4 0xB6B55F25 EQ PUSH2 0x271 JUMPI DUP1 PUSH4 0xBCFB3C03 EQ PUSH2 0x28D JUMPI DUP1 PUSH4 0xF462CA93 EQ PUSH2 0x2CA JUMPI DUP1 PUSH4 0xF51B7156 EQ PUSH2 0x307 JUMPI PUSH2 0xA7 JUMP JUMPDEST DUP1 PUSH4 0x113D2278 EQ PUSH2 0xAC JUMPI DUP1 PUSH4 0x2134EC27 EQ PUSH2 0xD5 JUMPI DUP1 PUSH4 0x31D6AEC1 EQ PUSH2 0x112 JUMPI DUP1 PUSH4 0x35742C63 EQ PUSH2 0x14F JUMPI DUP1 PUSH4 0x441A3E70 EQ PUSH2 0x18C JUMPI DUP1 PUSH4 0x462BA2F7 EQ PUSH2 0x1B5 JUMPI JUMPDEST PUSH1 0x0 DUP1 REVERT JUMPDEST CALLVALUE DUP1 ISZERO PUSH2 0xB8 JUMPI PUSH1 0x0 DUP1 REVERT JUMPDEST POP PUSH2 0xD3 PUSH1 0x4 DUP1 CALLDATASIZE SUB DUP2 ADD SWAP1 PUSH2 0xCE SWAP2 SWAP1 PUSH2 0x18FA JUMP JUMPDEST PUSH2 0x330 JUMP JUMPDEST STOP JUMPDEST CALLVALUE DUP1 ISZERO PUSH2 0xE1 JUMPI PUSH1 0x0 DUP1 REVERT JUMPDEST POP PUSH2 0xFC PUSH1 0x4 DUP1 CALLDATASIZE SUB DUP2 ADD SWAP1 PUSH2 0xF7 SWAP2 SWAP1 PUSH2 0x19C7 JUMP JUMPDEST PUSH2 0x5C2 JUMP JUMPDEST PUSH1 0x40 MLOAD PUSH2 0x109 SWAP2 SWAP1 PUSH2 0x1A03 JUMP JUMPDEST PUSH1 0x40 MLOAD DUP1 SWAP2 SUB SWAP1 RETURN JUMPDEST CALLVALUE DUP1 ISZERO PUSH2 0x11E JUMPI PUSH1 0x0 DUP1 REVERT JUMPDEST POP PUSH2 0x139 PUSH1 0x4 DUP1 CALLDATASIZE SUB DUP2 ADD SWAP1 PUSH2 0x134 SWAP2 SWAP1 PUSH2 0x1A1E JUMP JUMPDEST PUSH2 0x5DA JUMP JUMPDEST PUSH1 0x40 MLOAD PUSH2 0x146 SWAP2 SWAP1 PUSH2 0x1A03 JUMP JUMPDEST PUSH1 0x40 MLOAD DUP1 SWAP2 SUB SWAP1 RETURN JUMPDEST CALLVALUE DUP1 ISZERO PUSH2 0x15B JUMPI PUSH1 0x0 DUP1 REVERT JUMPDEST POP PUSH2 0x176 PUSH1 0x4 DUP1 CALLDATASIZE SUB DUP2 ADD SWAP1 PUSH2 0x171 SWAP2 SWAP1 PUSH2 0x19C7 JUMP JUMPDEST PUSH2 0x7F7 JUMP JUMPDEST PUSH1 0x40 MLOAD PUSH2 0x183 SWAP2 SWAP1 PUSH2 0x1C52 JUMP JUMPDEST PUSH1 0x40 MLOAD DUP1 SWAP2 SUB SWAP1 RETURN JUMPDEST CALLVALUE DUP1 ISZERO PUSH2 0x198 JUMPI PUSH1 0x0 DUP1 REVERT JUMPDEST POP PUSH2 0x1B3 PUSH1 0x4 DUP1 CALLDATASIZE SUB DUP2 ADD SWAP1 PUSH2 0x1AE SWAP2 SWAP1 PUSH2 0x1C74 JUMP JUMPDEST PUSH2 0x969 JUMP JUMPDEST STOP JUMPDEST CALLVALUE DUP1 ISZERO PUSH2 0x1C1 JUMPI PUSH1 0x0 DUP1 REVERT JUMPDEST POP PUSH2 0x1DC PUSH1 0x4 DUP1 CALLDATASIZE SUB DUP2 ADD SWAP1 PUSH2 0x1D7 SWAP2 SWAP1 PUSH2 0x19C7 JUMP JUMPDEST PUSH2 0xCA1 JUMP JUMPDEST PUSH1 0x40 MLOAD PUSH2 0x1E9 SWAP2 SWAP1 PUSH2 0x1A03 JUMP JUMPDEST PUSH1 0x40 MLOAD DUP1 SWAP2 SUB SWAP1 RETURN JUMPDEST CALLVALUE DUP1 ISZERO PUSH2 0x1FE JUMPI PUSH1 0x0 DUP1 REVERT JUMPDEST POP PUSH2 0x219 PUSH1 0x4 DUP1 CALLDATASIZE SUB DUP2 ADD SWAP1 PUSH2 0x214 SWAP2 SWAP1 PUSH2 0x19C7 JUMP JUMPDEST PUSH2 0xCEC JUMP JUMPDEST PUSH1 0x40 MLOAD PUSH2 0x226 SWAP2 SWAP1 PUSH2 0x1A03 JUMP JUMPDEST PUSH1 0x40 MLOAD DUP1 SWAP2 SUB SWAP1 RETURN JUMPDEST CALLVALUE DUP1 ISZERO PUSH2 0x23B JUMPI PUSH1 0x0 DUP1 REVERT JUMPDEST POP PUSH2 0x256 PUSH1 0x4 DUP1 CALLDATASIZE SUB DUP2 ADD SWAP1 PUSH2 0x251 SWAP2 SWAP1 PUSH2 0x1A1E JUMP JUMPDEST PUSH2 0xD35 JUMP JUMPDEST PUSH1 0x40 MLOAD PUSH2 0x268 SWAP7 SWAP6 SWAP5 SWAP4 SWAP3 SWAP2 SWAP1 PUSH2 0x1D0D JUMP JUMPDEST PUSH1 0x40 MLOAD DUP1 SWAP2 SUB SWAP1 RETURN JUMPDEST PUSH2 0x28B PUSH1 0x4 DUP1 CALLDATASIZE SUB DUP2 ADD SWAP1 PUSH2 0x286 SWAP2 SWAP1 PUSH2 0x1D75 JUMP JUMPDEST PUSH2 0xE23 JUMP JUMPDEST STOP JUMPDEST CALLVALUE DUP1 ISZERO PUSH2 0x299 JUMPI PUSH1 0x0 DUP1 REVERT JUMPDEST POP PUSH2 0x2B4 PUSH1 0x4 DUP1 CALLDATASIZE SUB DUP2 ADD SWAP1 PUSH2 0x2AF SWAP2 SWAP1 PUSH2 0x1A1E JUMP JUMPDEST PUSH2 0x10C9 JUMP JUMPDEST PUSH1 0x40 MLOAD PUSH2 0x2C1 SWAP2 SWAP1 PUSH2 0x1E2B JUMP JUMPDEST PUSH1 0x40 MLOAD DUP1 SWAP2 SUB SWAP1 RETURN JUMPDEST CALLVALUE DUP1 ISZERO PUSH2 0x2D6 JUMPI PUSH1 0x0 DUP1 REVERT JUMPDEST POP PUSH2 0x2F1 PUSH1 0x4 DUP1 CALLDATASIZE SUB DUP2 ADD SWAP1 PUSH2 0x2EC SWAP2 SWAP1 PUSH2 0x1A1E JUMP JUMPDEST PUSH2 0x129A JUMP JUMPDEST PUSH1 0x40 MLOAD PUSH2 0x2FE SWAP2 SWAP1 PUSH2 0x1E4D JUMP JUMPDEST PUSH1 0x40 MLOAD DUP1 SWAP2 SUB SWAP1 RETURN JUMPDEST CALLVALUE DUP1 ISZERO PUSH2 0x313 JUMPI PUSH1 0x0 DUP1 REVERT JUMPDEST POP PUSH2 0x32E PUSH1 0x4 DUP1 CALLDATASIZE SUB DUP2 ADD SWAP1 PUSH2 0x329 SWAP2 SWAP1 PUSH2 0x1D75 JUMP JUMPDEST PUSH2 0x1476 JUMP JUMPDEST STOP JUMPDEST PUSH1 0x0 DUP3 GT PUSH2 0x373 JUMPI PUSH1 0x40 MLOAD PUSH32 0x8C379A000000000000000000000000000000000000000000000000000000000 DUP2 MSTORE PUSH1 0x4 ADD PUSH2 0x36A SWAP1 PUSH2 0x1EDA JUMP JUMPDEST PUSH1 0x40 MLOAD DUP1 SWAP2 SUB SWAP1 REVERT JUMPDEST PUSH1 0x0 DUP2 GT PUSH2 0x3B6 JUMPI PUSH1 0x40 MLOAD PUSH32 0x8C379A000000000000000000000000000000000000000000000000000000000 DUP2 MSTORE PUSH1 0x4 ADD PUSH2 0x3AD SWAP1 PUSH2 0x1F46 JUMP JUMPDEST PUSH1 0x40 MLOAD DUP1 SWAP2 SUB SWAP1 REVERT JUMPDEST PUSH1 0x0 DUP4 MLOAD GT PUSH2 0x3FA JUMPI PUSH1 0x40 MLOAD PUSH32 0x8C379A000000000000000000000000000000000000000000000000000000000 DUP2 MSTORE PUSH1 0x4 ADD PUSH2 0x3F1 SWAP1 PUSH2 0x1FB2 JUMP JUMPDEST PUSH1 0x40 MLOAD DUP1 SWAP2 SUB SWAP1 REVERT JUMPDEST PUSH1 0x0 PUSH3 0x15180 DUP3 PUSH2 0x40B SWAP2 SWAP1 PUSH2 0x2001 JUMP JUMPDEST TIMESTAMP PUSH2 0x416 SWAP2 SWAP1 PUSH2 0x2043 JUMP JUMPDEST SWAP1 POP PUSH1 0x0 PUSH1 0x40 MLOAD DUP1 PUSH1 0xC0 ADD PUSH1 0x40 MSTORE DUP1 DUP7 DUP2 MSTORE PUSH1 0x20 ADD DUP6 DUP2 MSTORE PUSH1 0x20 ADD PUSH1 0x0 DUP2 MSTORE PUSH1 0x20 ADD DUP4 DUP2 MSTORE PUSH1 0x20 ADD PUSH1 0x1 ISZERO ISZERO DUP2 MSTORE PUSH1 0x20 ADD TIMESTAMP DUP2 MSTORE POP SWAP1 POP PUSH1 0x0 DUP1 CALLER PUSH20 0xFFFFFFFFFFFFFFFFFFFFFFFFFFFFFFFFFFFFFFFF AND PUSH20 0xFFFFFFFFFFFFFFFFFFFFFFFFFFFFFFFFFFFFFFFF AND DUP2 MSTORE PUSH1 0x20 ADD SWAP1 DUP2 MSTORE PUSH1 0x20 ADD PUSH1 0x0 KECCAK256 DUP2 SWAP1 DUP1 PUSH1 0x1 DUP2 SLOAD ADD DUP1 DUP3 SSTORE DUP1 SWAP2 POP POP PUSH1 0x1 SWAP1 SUB SWAP1 PUSH1 0x0 MSTORE PUSH1 0x20 PUSH1 0x0 KECCAK256 SWAP1 PUSH1 0x6 MUL ADD PUSH1 0x0 SWAP1 SWAP2 SWAP1 SWAP2 SWAP1 SWAP2 POP PUSH1 0x0 DUP3 ADD MLOAD DUP2 PUSH1 0x0 ADD SWAP1 DUP2 PUSH2 0x4CA SWAP2 SWAP1 PUSH2 0x2283 JUMP JUMPDEST POP PUSH1 0x20 DUP3 ADD MLOAD DUP2 PUSH1 0x1 ADD SSTORE PUSH1 0x40 DUP3 ADD MLOAD DUP2 PUSH1 0x2 ADD SSTORE PUSH1 0x60 DUP3 ADD MLOAD DUP2 PUSH1 0x3 ADD SSTORE PUSH1 0x80 DUP3 ADD MLOAD DUP2 PUSH1 0x4 ADD PUSH1 0x0 PUSH2 0x100 EXP DUP2 SLOAD DUP2 PUSH1 0xFF MUL NOT AND SWAP1 DUP4 ISZERO ISZERO MUL OR SWAP1 SSTORE POP PUSH1 0xA0 DUP3 ADD MLOAD DUP2 PUSH1 0x5 ADD SSTORE POP POP PUSH1 0x0 PUSH1 0x1 PUSH1 0x0 DUP1 CALLER PUSH20 0xFFFFFFFFFFFFFFFFFFFFFFFFFFFFFFFFFFFFFFFF AND PUSH20 0xFFFFFFFFFFFFFFFFFFFFFFFFFFFFFFFFFFFFFFFF AND DUP2 MSTORE PUSH1 0x20 ADD SWAP1 DUP2 MSTORE PUSH1 0x20 ADD PUSH1 0x0 KECCAK256 DUP1 SLOAD SWAP1 POP PUSH2 0x565 SWAP2 SWAP1 PUSH2 0x2355 JUMP JUMPDEST SWAP1 POP DUP1 CALLER PUSH20 0xFFFFFFFFFFFFFFFFFFFFFFFFFFFFFFFFFFFFFFFF AND PUSH32 0xB7904DBDCB6700A49A6914EA6CBB34CF3CA1FF25F06C6B0EA948B79076A20F45 DUP9 DUP9 DUP8 PUSH1 0x40 MLOAD PUSH2 0x5B2 SWAP4 SWAP3 SWAP2 SWAP1 PUSH2 0x2389 JUMP JUMPDEST PUSH1 0x40 MLOAD DUP1 SWAP2 SUB SWAP1 LOG3 POP POP POP POP POP POP JUMP JUMPDEST PUSH1 0x1 PUSH1 0x20 MSTORE DUP1 PUSH1 0x0 MSTORE PUSH1 0x40 PUSH1 0x0 KECCAK256 PUSH1 0x0 SWAP2 POP SWAP1 POP SLOAD DUP2 JUMP JUMPDEST PUSH1 0x0 DUP1 PUSH1 0x0 DUP5 PUSH20 0xFFFFFFFFFFFFFFFFFFFFFFFFFFFFFFFFFFFFFFFF AND PUSH20 0xFFFFFFFFFFFFFFFFFFFFFFFFFFFFFFFFFFFFFFFF AND DUP2 MSTORE PUSH1 0x20 ADD SWAP1 DUP2 MSTORE PUSH1 0x20 ADD PUSH1 0x0 KECCAK256 DUP1 SLOAD SWAP1 POP DUP3 LT PUSH2 0x65F JUMPI PUSH1 0x40 MLOAD PUSH32 0x8C379A000000000000000000000000000000000000000000000000000000000 DUP2 MSTORE PUSH1 0x4 ADD PUSH2 0x656 SWAP1 PUSH2 0x2413 JUMP JUMPDEST PUSH1 0x40 MLOAD DUP1 SWAP2 SUB SWAP1 REVERT JUMPDEST PUSH1 0x0 DUP1 PUSH1 0x0 DUP6 PUSH20 0xFFFFFFFFFFFFFFFFFFFFFFFFFFFFFFFFFFFFFFFF AND PUSH20 0xFFFFFFFFFFFFFFFFFFFFFFFFFFFFFFFFFFFFFFFF AND DUP2 MSTORE PUSH1 0x20 ADD SWAP1 DUP2 MSTORE PUSH1 0x20 ADD PUSH1 0x0 KECCAK256 DUP4 DUP2 SLOAD DUP2 LT PUSH2 0x6B1 JUMPI PUSH2 0x6B0 PUSH2 0x2433 JUMP JUMPDEST JUMPDEST SWAP1 PUSH1 0x0 MSTORE PUSH1 0x20 PUSH1 0x0 KECCAK256 SWAP1 PUSH1 0x6 MUL ADD PUSH1 0x40 MLOAD DUP1 PUSH1 0xC0 ADD PUSH1 0x40 MSTORE SWAP1 DUP2 PUSH1 0x0 DUP3 ADD DUP1 SLOAD PUSH2 0x6DA SWAP1 PUSH2 0x20A6 JUMP JUMPDEST DUP1 PUSH1 0x1F ADD PUSH1 0x20 DUP1 SWAP2 DIV MUL PUSH1 0x20 ADD PUSH1 0x40 MLOAD SWAP1 DUP2 ADD PUSH1 0x40 MSTORE DUP1 SWAP3 SWAP2 SWAP1 DUP2 DUP2 MSTORE PUSH1 0x20 ADD DUP3 DUP1 SLOAD PUSH2 0x706 SWAP1 PUSH2 0x20A6 JUMP JUMPDEST DUP1 ISZERO PUSH2 0x753 JUMPI DUP1 PUSH1 0x1F LT PUSH2 0x728 JUMPI PUSH2 0x100 DUP1 DUP4 SLOAD DIV MUL DUP4 MSTORE SWAP2 PUSH1 0x20 ADD SWAP2 PUSH2 0x753 JUMP JUMPDEST DUP3 ADD SWAP2 SWAP1 PUSH1 0x0 MSTORE PUSH1 0x20 PUSH1 0x0 KECCAK256 SWAP1 JUMPDEST DUP2 SLOAD DUP2 MSTORE SWAP1 PUSH1 0x1 ADD SWAP1 PUSH1 0x20 ADD DUP1 DUP4 GT PUSH2 0x736 JUMPI DUP3 SWAP1 SUB PUSH1 0x1F AND DUP3 ADD SWAP2 JUMPDEST POP POP POP POP POP DUP2 MSTORE PUSH1 0x20 ADD PUSH1 0x1 DUP3 ADD SLOAD DUP2 MSTORE PUSH1 0x20 ADD PUSH1 0x2 DUP3 ADD SLOAD DUP2 MSTORE PUSH1 0x20 ADD PUSH1 0x3 DUP3 ADD SLOAD DUP2 MSTORE PUSH1 0x20 ADD PUSH1 0x4 DUP3 ADD PUSH1 0x0 SWAP1 SLOAD SWAP1 PUSH2 0x100 EXP SWAP1 DIV PUSH1 0xFF AND ISZERO ISZERO ISZERO ISZERO DUP2 MSTORE PUSH1 0x20 ADD PUSH1 0x5 DUP3 ADD SLOAD DUP2 MSTORE POP POP SWAP1 POP PUSH1 0x0 DUP2 PUSH1 0x20 ADD MLOAD SUB PUSH2 0x7B7 JUMPI PUSH1 0x0 SWAP2 POP POP PUSH2 0x7F1 JUMP JUMPDEST PUSH1 0x0 DUP2 PUSH1 0x20 ADD MLOAD PUSH1 0x64 DUP4 PUSH1 0x40 ADD MLOAD PUSH2 0x7CF SWAP2 SWAP1 PUSH2 0x2001 JUMP JUMPDEST PUSH2 0x7D9 SWAP2 SWAP1 PUSH2 0x2491 JUMP JUMPDEST SWAP1 POP PUSH1 0x64 DUP2 GT PUSH2 0x7E9 JUMPI DUP1 PUSH2 0x7EC JUMP JUMPDEST PUSH1 0x64 JUMPDEST SWAP3 POP POP POP JUMPDEST SWAP3 SWAP2 POP POP JUMP JUMPDEST PUSH1 0x60 PUSH1 0x0 DUP1 DUP4 PUSH20 0xFFFFFFFFFFFFFFFFFFFFFFFFFFFFFFFFFFFFFFFF AND PUSH20 0xFFFFFFFFFFFFFFFFFFFFFFFFFFFFFFFFFFFFFFFF AND DUP2 MSTORE PUSH1 0x20 ADD SWAP1 DUP2 MSTORE PUSH1 0x20 ADD PUSH1 0x0 KECCAK256 DUP1 SLOAD DUP1 PUSH1 0x20 MUL PUSH1 0x20 ADD PUSH1 0x40 MLOAD SWAP1 DUP2 ADD PUSH1 0x40 MSTORE DUP1 SWAP3 SWAP2 SWAP1 DUP2 DUP2 MSTORE PUSH1 0x20 ADD PUSH1 0x0 SWAP1 JUMPDEST DUP3 DUP3 LT ISZERO PUSH2 0x95E JUMPI DUP4 DUP3 SWAP1 PUSH1 0x0 MSTORE PUSH1 0x20 PUSH1 0x0 KECCAK256 SWAP1 PUSH1 0x6 MUL ADD PUSH1 0x40 MLOAD DUP1 PUSH1 0xC0 ADD PUSH1 0x40 MSTORE SWAP1 DUP2 PUSH1 0x0 DUP3 ADD DUP1 SLOAD PUSH2 0x88A SWAP1 PUSH2 0x20A6 JUMP JUMPDEST DUP1 PUSH1 0x1F ADD PUSH1 0x20 DUP1 SWAP2 DIV MUL PUSH1 0x20 ADD PUSH1 0x40 MLOAD SWAP1 DUP2 ADD PUSH1 0x40 MSTORE DUP1 SWAP3 SWAP2 SWAP1 DUP2 DUP2 MSTORE PUSH1 0x20 ADD DUP3 DUP1 SLOAD PUSH2 0x8B6 SWAP1 PUSH2 0x20A6 JUMP JUMPDEST DUP1 ISZERO PUSH2 0x903 JUMPI DUP1 PUSH1 0x1F LT PUSH2 0x8D8 JUMPI PUSH2 0x100 DUP1 DUP4 SLOAD DIV MUL DUP4 MSTORE SWAP2 PUSH1 0x20 ADD SWAP2 PUSH2 0x903 JUMP JUMPDEST DUP3 ADD SWAP2 SWAP1 PUSH1 0x0 MSTORE PUSH1 0x20 PUSH1 0x0 KECCAK256 SWAP1 JUMPDEST DUP2 SLOAD DUP2 MSTORE SWAP1 PUSH1 0x1 ADD SWAP1 PUSH1 0x20 ADD DUP1 DUP4 GT PUSH2 0x8E6 JUMPI DUP3 SWAP1 SUB PUSH1 0x1F AND DUP3 ADD SWAP2 JUMPDEST POP POP POP POP POP DUP2 MSTORE PUSH1 0x20 ADD PUSH1 0x1 DUP3 ADD SLOAD DUP2 MSTORE PUSH1 0x20 ADD PUSH1 0x2 DUP3 ADD SLOAD DUP2 MSTORE PUSH1 0x20 ADD PUSH1 0x3 DUP3 ADD SLOAD DUP2 MSTORE PUSH1 0x20 ADD PUSH1 0x4 DUP3 ADD PUSH1 0x0 SWAP1 SLOAD SWAP1 PUSH2 0x100 EXP SWAP1 DIV PUSH1 0xFF AND ISZERO ISZERO ISZERO ISZERO DUP2 MSTORE PUSH1 0x20 ADD PUSH1 0x5 DUP3 ADD SLOAD DUP2 MSTORE POP POP DUP2 MSTORE PUSH1 0x20 ADD SWAP1 PUSH1 0x1 ADD SWAP1 PUSH2 0x857 JUMP JUMPDEST POP POP POP POP SWAP1 POP SWAP2 SWAP1 POP JUMP JUMPDEST PUSH1 0x0 DUP1 CALLER PUSH20 0xFFFFFFFFFFFFFFFFFFFFFFFFFFFFFFFFFFFFFFFF AND PUSH20 0xFFFFFFFFFFFFFFFFFFFFFFFFFFFFFFFFFFFFFFFF AND DUP2 MSTORE PUSH1 0x20 ADD SWAP1 DUP2 MSTORE PUSH1 0x20 ADD PUSH1 0x0 KECCAK256 DUP1 SLOAD SWAP1 POP DUP3 LT PUSH2 0x9EC JUMPI PUSH1 0x40 MLOAD PUSH32 0x8C379A000000000000000000000000000000000000000000000000000000000 DUP2 MSTORE PUSH1 0x4 ADD PUSH2 0x9E3 SWAP1 PUSH2 0x2413 JUMP JUMPDEST PUSH1 0x40 MLOAD DUP1 SWAP2 SUB SWAP1 REVERT JUMPDEST PUSH1 0x0 DUP2 GT PUSH2 0xA2F JUMPI PUSH1 0x40 MLOAD PUSH32 0x8C379A000000000000000000000000000000000000000000000000000000000 DUP2 MSTORE PUSH1 0x4 ADD PUSH2 0xA26 SWAP1 PUSH2 0x2534 JUMP JUMPDEST PUSH1 0x40 MLOAD DUP1 SWAP2 SUB SWAP1 REVERT JUMPDEST PUSH1 0x0 DUP1 PUSH1 0x0 CALLER PUSH20 0xFFFFFFFFFFFFFFFFFFFFFFFFFFFFFFFFFFFFFFFF AND PUSH20 0xFFFFFFFFFFFFFFFFFFFFFFFFFFFFFFFFFFFFFFFF AND DUP2 MSTORE PUSH1 0x20 ADD SWAP1 DUP2 MSTORE PUSH1 0x20 ADD PUSH1 0x0 KECCAK256 DUP4 DUP2 SLOAD DUP2 LT PUSH2 0xA81 JUMPI PUSH2 0xA80 PUSH2 0x2433 JUMP JUMPDEST JUMPDEST SWAP1 PUSH1 0x0 MSTORE PUSH1 0x20 PUSH1 0x0 KECCAK256 SWAP1 PUSH1 0x6 MUL ADD SWAP1 POP DUP1 PUSH1 0x4 ADD PUSH1 0x0 SWAP1 SLOAD SWAP1 PUSH2 0x100 EXP SWAP1 DIV PUSH1 0xFF AND PUSH2 0xAE2 JUMPI PUSH1 0x40 MLOAD PUSH32 0x8C379A000000000000000000000000000000000000000000000000000000000 DUP2 MSTORE PUSH1 0x4 ADD PUSH2 0xAD9 SWAP1 PUSH2 0x25A0 JUMP JUMPDEST PUSH1 0x40 MLOAD DUP1 SWAP2 SUB SWAP1 REVERT JUMPDEST DUP2 DUP2 PUSH1 0x2 ADD SLOAD LT ISZERO PUSH2 0xB29 JUMPI PUSH1 0x40 MLOAD PUSH32 0x8C379A000000000000000000000000000000000000000000000000000000000 DUP2 MSTORE PUSH1 0x4 ADD PUSH2 0xB20 SWAP1 PUSH2 0x260C JUMP JUMPDEST PUSH1 0x40 MLOAD DUP1 SWAP2 SUB SWAP1 REVERT JUMPDEST DUP2 DUP2 PUSH1 0x2 ADD PUSH1 0x0 DUP3 DUP3 SLOAD PUSH2 0xB3D SWAP2 SWAP1 PUSH2 0x2355 JUMP JUMPDEST SWAP3 POP POP DUP2 SWAP1 SSTORE POP DUP2 PUSH1 0x1 PUSH1 0x0 CALLER PUSH20 0xFFFFFFFFFFFFFFFFFFFFFFFFFFFFFFFFFFFFFFFF AND PUSH20 0xFFFFFFFFFFFFFFFFFFFFFFFFFFFFFFFFFFFFFFFF AND DUP2 MSTORE PUSH1 0x20 ADD SWAP1 DUP2 MSTORE PUSH1 0x20 ADD PUSH1 0x0 KECCAK256 PUSH1 0x0 DUP3 DUP3 SLOAD PUSH2 0xB93 SWAP2 SWAP1 PUSH2 0x2355 JUMP JUMPDEST SWAP3 POP POP DUP2 SWAP1 SSTORE POP PUSH1 0x0 CALLER PUSH20 0xFFFFFFFFFFFFFFFFFFFFFFFFFFFFFFFFFFFFFFFF AND DUP4 PUSH1 0x40 MLOAD PUSH2 0xBC0 SWAP1 PUSH2 0x265D JUMP JUMPDEST PUSH1 0x0 PUSH1 0x40 MLOAD DUP1 DUP4 SUB DUP2 DUP6 DUP8 GAS CALL SWAP3 POP POP POP RETURNDATASIZE DUP1 PUSH1 0x0 DUP2 EQ PUSH2 0xBFD JUMPI PUSH1 0x40 MLOAD SWAP2 POP PUSH1 0x1F NOT PUSH1 0x3F RETURNDATASIZE ADD AND DUP3 ADD PUSH1 0x40 MSTORE RETURNDATASIZE DUP3 MSTORE RETURNDATASIZE PUSH1 0x0 PUSH1 0x20 DUP5 ADD RETURNDATACOPY PUSH2 0xC02 JUMP JUMPDEST PUSH1 0x60 SWAP2 POP JUMPDEST POP POP SWAP1 POP DUP1 PUSH2 0xC46 JUMPI PUSH1 0x40 MLOAD PUSH32 0x8C379A000000000000000000000000000000000000000000000000000000000 DUP2 MSTORE PUSH1 0x4 ADD PUSH2 0xC3D SWAP1 PUSH2 0x26BE JUMP JUMPDEST PUSH1 0x40 MLOAD DUP1 SWAP2 SUB SWAP1 REVERT JUMPDEST DUP4 CALLER PUSH20 0xFFFFFFFFFFFFFFFFFFFFFFFFFFFFFFFFFFFFFFFF AND PUSH32 0x650FDF669E93AA6C8FF3DEFE2DA9C12B64F1548E5E1E54E803F4C1BEB6466C8E DUP6 DUP6 PUSH1 0x2 ADD SLOAD PUSH1 0x40 MLOAD PUSH2 0xC93 SWAP3 SWAP2 SWAP1 PUSH2 0x26DE JUMP JUMPDEST PUSH1 0x40 MLOAD DUP1 SWAP2 SUB SWAP1 LOG3 POP POP POP POP JUMP JUMPDEST PUSH1 0x0 DUP1 PUSH1 0x0 DUP4 PUSH20 0xFFFFFFFFFFFFFFFFFFFFFFFFFFFFFFFFFFFFFFFF AND PUSH20 0xFFFFFFFFFFFFFFFFFFFFFFFFFFFFFFFFFFFFFFFF AND DUP2 MSTORE PUSH1 0x20 ADD SWAP1 DUP2 MSTORE PUSH1 0x20 ADD PUSH1 0x0 KECCAK256 DUP1 SLOAD SWAP1 POP SWAP1 POP SWAP2 SWAP1 POP JUMP JUMPDEST PUSH1 0x0 PUSH1 0x1 PUSH1 0x0 DUP4 PUSH20 0xFFFFFFFFFFFFFFFFFFFFFFFFFFFFFFFFFFFFFFFF AND PUSH20 0xFFFFFFFFFFFFFFFFFFFFFFFFFFFFFFFFFFFFFFFF AND DUP2 MSTORE PUSH1 0x20 ADD SWAP1 DUP2 MSTORE PUSH1 0x20 ADD PUSH1 0x0 KECCAK256 SLOAD SWAP1 POP SWAP2 SWAP1 POP JUMP JUMPDEST PUSH1 0x0 PUSH1 0x20 MSTORE DUP2 PUSH1 0x0 MSTORE PUSH1 0x40 PUSH1 0x0 KECCAK256 DUP2 DUP2 SLOAD DUP2 LT PUSH2 0xD51 JUMPI PUSH1 0x0 DUP1 REVERT JUMPDEST SWAP1 PUSH1 0x0 MSTORE PUSH1 0x20 PUSH1 0x0 KECCAK256 SWAP1 PUSH1 0x6 MUL ADD PUSH1 0x0 SWAP2 POP SWAP2 POP POP DUP1 PUSH1 0x0 ADD DUP1 SLOAD PUSH2 0xD75 SWAP1 PUSH2 0x20A6 JUMP JUMPDEST DUP1 PUSH1 0x1F ADD PUSH1 0x20 DUP1 SWAP2 DIV MUL PUSH1 0x20 ADD PUSH1 0x40 MLOAD SWAP1 DUP2 ADD PUSH1 0x40 MSTORE DUP1 SWAP3 SWAP2 SWAP1 DUP2 DUP2 MSTORE PUSH1 0x20 ADD DUP3 DUP1 SLOAD PUSH2 0xDA1 SWAP1 PUSH2 0x20A6 JUMP JUMPDEST DUP1 ISZERO PUSH2 0xDEE JUMPI DUP1 PUSH1 0x1F LT PUSH2 0xDC3 JUMPI PUSH2 0x100 DUP1 DUP4 SLOAD DIV MUL DUP4 MSTORE SWAP2 PUSH1 0x20 ADD SWAP2 PUSH2 0xDEE JUMP JUMPDEST DUP3 ADD SWAP2 SWAP1 PUSH1 0x0 MSTORE PUSH1 0x20 PUSH1 0x0 KECCAK256 SWAP1 JUMPDEST DUP2 SLOAD DUP2 MSTORE SWAP1 PUSH1 0x1 ADD SWAP1 PUSH1 0x20 ADD DUP1 DUP4 GT PUSH2 0xDD1 JUMPI DUP3 SWAP1 SUB PUSH1 0x1F AND DUP3 ADD SWAP2 JUMPDEST POP POP POP POP POP SWAP1 DUP1 PUSH1 0x1 ADD SLOAD SWAP1 DUP1 PUSH1 0x2 ADD SLOAD SWAP1 DUP1 PUSH1 0x3 ADD SLOAD SWAP1 DUP1 PUSH1 0x4 ADD PUSH1 0x0 SWAP1 SLOAD SWAP1 PUSH2 0x100 EXP SWAP1 DIV PUSH1 0xFF AND SWAP1 DUP1 PUSH1 0x5 ADD SLOAD SWAP1 POP DUP7 JUMP JUMPDEST PUSH1 0x0 CALLVALUE GT PUSH2 0xE66 JUMPI PUSH1 0x40 MLOAD PUSH32 0x8C379A000000000000000000000000000000000000000000000000000000000 DUP2 MSTORE PUSH1 0x4 ADD PUSH2 0xE5D SWAP1 PUSH2 0x2779 JUMP JUMPDEST PUSH1 0x40 MLOAD DUP1 SWAP2 SUB SWAP1 REVERT JUMPDEST PUSH1 0x0 DUP1 CALLER PUSH20 0xFFFFFFFFFFFFFFFFFFFFFFFFFFFFFFFFFFFFFFFF AND PUSH20 0xFFFFFFFFFFFFFFFFFFFFFFFFFFFFFFFFFFFFFFFF AND DUP2 MSTORE PUSH1 0x20 ADD SWAP1 DUP2 MSTORE PUSH1 0x20 ADD PUSH1 0x0 KECCAK256 DUP1 SLOAD SWAP1 POP DUP2 LT PUSH2 0xEE9 JUMPI PUSH1 0x40 MLOAD PUSH32 0x8C379A000000000000000000000000000000000000000000000000000000000 DUP2 MSTORE PUSH1 0x4 ADD PUSH2 0xEE0 SWAP1 PUSH2 0x2413 JUMP JUMPDEST PUSH1 0x40 MLOAD DUP1 SWAP2 SUB SWAP1 REVERT JUMPDEST PUSH1 0x0 DUP1 PUSH1 0x0 CALLER PUSH20 0xFFFFFFFFFFFFFFFFFFFFFFFFFFFFFFFFFFFFFFFF AND PUSH20 0xFFFFFFFFFFFFFFFFFFFFFFFFFFFFFFFFFFFFFFFF AND DUP2 MSTORE PUSH1 0x20 ADD SWAP1 DUP2 MSTORE PUSH1 0x20 ADD PUSH1 0x0 KECCAK256 DUP3 DUP2 SLOAD DUP2 LT PUSH2 0xF3B JUMPI PUSH2 0xF3A PUSH2 0x2433 JUMP JUMPDEST JUMPDEST SWAP1 PUSH1 0x0 MSTORE PUSH1 0x20 PUSH1 0x0 KECCAK256 SWAP1 PUSH1 0x6 MUL ADD SWAP1 POP DUP1 PUSH1 0x4 ADD PUSH1 0x0 SWAP1 SLOAD SWAP1 PUSH2 0x100 EXP SWAP1 DIV PUSH1 0xFF AND PUSH2 0xF9C JUMPI PUSH1 0x40 MLOAD PUSH32 0x8C379A000000000000000000000000000000000000000000000000000000000 DUP2 MSTORE PUSH1 0x4 ADD PUSH2 0xF93 SWAP1 PUSH2 0x25A0 JUMP JUMPDEST PUSH1 0x40 MLOAD DUP1 SWAP2 SUB SWAP1 REVERT JUMPDEST CALLVALUE DUP2 PUSH1 0x2 ADD PUSH1 0x0 DUP3 DUP3 SLOAD PUSH2 0xFB0 SWAP2 SWAP1 PUSH2 0x2043 JUMP JUMPDEST SWAP3 POP POP DUP2 SWAP1 SSTORE POP CALLVALUE PUSH1 0x1 PUSH1 0x0 CALLER PUSH20 0xFFFFFFFFFFFFFFFFFFFFFFFFFFFFFFFFFFFFFFFF AND PUSH20 0xFFFFFFFFFFFFFFFFFFFFFFFFFFFFFFFFFFFFFFFF AND DUP2 MSTORE PUSH1 0x20 ADD SWAP1 DUP2 MSTORE PUSH1 0x20 ADD PUSH1 0x0 KECCAK256 PUSH1 0x0 DUP3 DUP3 SLOAD PUSH2 0x1006 SWAP2 SWAP1 PUSH2 0x2043 JUMP JUMPDEST SWAP3 POP POP DUP2 SWAP1 SSTORE POP DUP2 CALLER PUSH20 0xFFFFFFFFFFFFFFFFFFFFFFFFFFFFFFFFFFFFFFFF AND PUSH32 0x36AF321EC8D3C75236829C5317AFFD40DDB308863A1236D2D277A4025CCCEE1E CALLVALUE DUP5 PUSH1 0x2 ADD SLOAD PUSH1 0x40 MLOAD PUSH2 0x105A SWAP3 SWAP2 SWAP1 PUSH2 0x26DE JUMP JUMPDEST PUSH1 0x40 MLOAD DUP1 SWAP2 SUB SWAP1 LOG3 DUP1 PUSH1 0x1 ADD SLOAD DUP2 PUSH1 0x2 ADD SLOAD LT PUSH2 0x10C5 JUMPI DUP2 CALLER PUSH20 0xFFFFFFFFFFFFFFFFFFFFFFFFFFFFFFFFFFFFFFFF AND PUSH32 0x5FDB120E2225930F6B50914ED30F8F8B37A0A6C7B6DF7B1F0F7F235791BFC341 DUP4 PUSH1 0x2 ADD SLOAD PUSH1 0x40 MLOAD PUSH2 0x10BC SWAP2 SWAP1 PUSH2 0x1A03 JUMP JUMPDEST PUSH1 0x40 MLOAD DUP1 SWAP2 SUB SWAP1 LOG3 JUMPDEST POP POP JUMP JUMPDEST PUSH2 0x10D1 PUSH2 0x1732 JUMP JUMPDEST PUSH1 0x0 DUP1 DUP5 PUSH20 0xFFFFFFFFFFFFFFFFFFFFFFFFFFFFFFFFFFFFFFFF AND PUSH20 0xFFFFFFFFFFFFFFFFFFFFFFFFFFFFFFFFFFFFFFFF AND DUP2 MSTORE PUSH1 0x20 ADD SWAP1 DUP2 MSTORE PUSH1 0x20 ADD PUSH1 0x0 KECCAK256 DUP1 SLOAD SWAP1 POP DUP3 LT PUSH2 0x1154 JUMPI PUSH1 0x40 MLOAD PUSH32 0x8C379A000000000000000000000000000000000000000000000000000000000 DUP2 MSTORE PUSH1 0x4 ADD PUSH2 0x114B SWAP1 PUSH2 0x2413 JUMP JUMPDEST PUSH1 0x40 MLOAD DUP1 SWAP2 SUB SWAP1 REVERT JUMPDEST PUSH1 0x0 DUP1 DUP5 PUSH20 0xFFFFFFFFFFFFFFFFFFFFFFFFFFFFFFFFFFFFFFFF AND PUSH20 0xFFFFFFFFFFFFFFFFFFFFFFFFFFFFFFFFFFFFFFFF AND DUP2 MSTORE PUSH1 0x20 ADD SWAP1 DUP2 MSTORE PUSH1 0x20 ADD PUSH1 0x0 KECCAK256 DUP3 DUP2 SLOAD DUP2 LT PUSH2 0x11A4 JUMPI PUSH2 0x11A3 PUSH2 0x2433 JUMP JUMPDEST JUMPDEST SWAP1 PUSH1 0x0 MSTORE PUSH1 0x20 PUSH1 0x0 KECCAK256 SWAP1 PUSH1 0x6 MUL ADD PUSH1 0x40 MLOAD DUP1 PUSH1 0xC0 ADD PUSH1 0x40 MSTORE SWAP1 DUP2 PUSH1 0x0 DUP3 ADD DUP1 SLOAD PUSH2 0x11CD SWAP1 PUSH2 0x20A6 JUMP JUMPDEST DUP1 PUSH1 0x1F ADD PUSH1 0x20 DUP1 SWAP2 DIV MUL PUSH1 0x20 ADD PUSH1 0x40 MLOAD SWAP1 DUP2 ADD PUSH1 0x40 MSTORE DUP1 SWAP3 SWAP2 SWAP1 DUP2 DUP2 MSTORE PUSH1 0x20 ADD DUP3 DUP1 SLOAD PUSH2 0x11F9 SWAP1 PUSH2 0x20A6 JUMP JUMPDEST DUP1 ISZERO PUSH2 0x1246 JUMPI DUP1 PUSH1 0x1F LT PUSH2 0x121B JUMPI PUSH2 0x100 DUP1 DUP4 SLOAD DIV MUL DUP4 MSTORE SWAP2 PUSH1 0x20 ADD SWAP2 PUSH2 0x1246 JUMP JUMPDEST DUP3 ADD SWAP2 SWAP1 PUSH1 0x0 MSTORE PUSH1 0x20 PUSH1 0x0 KECCAK256 SWAP1 JUMPDEST DUP2 SLOAD DUP2 MSTORE SWAP1 PUSH1 0x1 ADD SWAP1 PUSH1 0x20 ADD DUP1 DUP4 GT PUSH2 0x1229 JUMPI DUP3 SWAP1 SUB PUSH1 0x1F AND DUP3 ADD SWAP2 JUMPDEST POP POP POP POP POP DUP2 MSTORE PUSH1 0x20 ADD PUSH1 0x1 DUP3 ADD SLOAD DUP2 MSTORE PUSH1 0x20 ADD PUSH1 0x2 DUP3 ADD SLOAD DUP2 MSTORE PUSH1 0x20 ADD PUSH1 0x3 DUP3 ADD SLOAD DUP2 MSTORE PUSH1 0x20 ADD PUSH1 0x4 DUP3 ADD PUSH1 0x0 SWAP1 SLOAD SWAP1 PUSH2 0x100 EXP SWAP1 DIV PUSH1 0xFF AND ISZERO ISZERO ISZERO ISZERO DUP2 MSTORE PUSH1 0x20 ADD PUSH1 0x5 DUP3 ADD SLOAD DUP2 MSTORE POP POP SWAP1 POP SWAP3 SWAP2 POP POP JUMP JUMPDEST PUSH1 0x0 DUP1 PUSH1 0x0 DUP5 PUSH20 0xFFFFFFFFFFFFFFFFFFFFFFFFFFFFFFFFFFFFFFFF AND PUSH20 0xFFFFFFFFFFFFFFFFFFFFFFFFFFFFFFFFFFFFFFFF AND DUP2 MSTORE PUSH1 0x20 ADD SWAP1 DUP2 MSTORE PUSH1 0x20 ADD PUSH1 0x0 KECCAK256 DUP1 SLOAD SWAP1 POP DUP3 LT PUSH2 0x131F JUMPI PUSH1 0x40 MLOAD PUSH32 0x8C379A000000000000000000000000000000000000000000000000000000000 DUP2 MSTORE PUSH1 0x4 ADD PUSH2 0x1316 SWAP1 PUSH2 0x2413 JUMP JUMPDEST PUSH1 0x40 MLOAD DUP1 SWAP2 SUB SWAP1 REVERT JUMPDEST PUSH1 0x0 DUP1 PUSH1 0x0 DUP6 PUSH20 0xFFFFFFFFFFFFFFFFFFFFFFFFFFFFFFFFFFFFFFFF AND PUSH20 0xFFFFFFFFFFFFFFFFFFFFFFFFFFFFFFFFFFFFFFFF AND DUP2 MSTORE PUSH1 0x20 ADD SWAP1 DUP2 MSTORE PUSH1 0x20 ADD PUSH1 0x0 KECCAK256 DUP4 DUP2 SLOAD DUP2 LT PUSH2 0x1371 JUMPI PUSH2 0x1370 PUSH2 0x2433 JUMP JUMPDEST JUMPDEST SWAP1 PUSH1 0x0 MSTORE PUSH1 0x20 PUSH1 0x0 KECCAK256 SWAP1 PUSH1 0x6 MUL ADD PUSH1 0x40 MLOAD DUP1 PUSH1 0xC0 ADD PUSH1 0x40 MSTORE SWAP1 DUP2 PUSH1 0x0 DUP3 ADD DUP1 SLOAD PUSH2 0x139A SWAP1 PUSH2 0x20A6 JUMP JUMPDEST DUP1 PUSH1 0x1F ADD PUSH1 0x20 DUP1 SWAP2 DIV MUL PUSH1 0x20 ADD PUSH1 0x40 MLOAD SWAP1 DUP2 ADD PUSH1 0x40 MSTORE DUP1 SWAP3 SWAP2 SWAP1 DUP2 DUP2 MSTORE PUSH1 0x20 ADD DUP3 DUP1 SLOAD PUSH2 0x13C6 SWAP1 PUSH2 0x20A6 JUMP JUMPDEST DUP1 ISZERO PUSH2 0x1413 JUMPI DUP1 PUSH1 0x1F LT PUSH2 0x13E8 JUMPI PUSH2 0x100 DUP1 DUP4 SLOAD DIV MUL DUP4 MSTORE SWAP2 PUSH1 0x20 ADD SWAP2 PUSH2 0x1413 JUMP JUMPDEST DUP3 ADD SWAP2 SWAP1 PUSH1 0x0 MSTORE PUSH1 0x20 PUSH1 0x0 KECCAK256 SWAP1 JUMPDEST DUP2 SLOAD DUP2 MSTORE SWAP1 PUSH1 0x1 ADD SWAP1 PUSH1 0x20 ADD DUP1 DUP4 GT PUSH2 0x13F6 JUMPI DUP3 SWAP1 SUB PUSH1 0x1F AND DUP3 ADD SWAP2 JUMPDEST POP POP POP POP POP DUP2 MSTORE PUSH1 0x20 ADD PUSH1 0x1 DUP3 ADD SLOAD DUP2 MSTORE PUSH1 0x20 ADD PUSH1 0x2 DUP3 ADD SLOAD DUP2 MSTORE PUSH1 0x20 ADD PUSH1 0x3 DUP3 ADD SLOAD DUP2 MSTORE PUSH1 0x20 ADD PUSH1 0x4 DUP3 ADD PUSH1 0x0 SWAP1 SLOAD SWAP1 PUSH2 0x100 EXP SWAP1 DIV PUSH1 0xFF AND ISZERO ISZERO ISZERO ISZERO DUP2 MSTORE PUSH1 0x20 ADD PUSH1 0x5 DUP3 ADD SLOAD DUP2 MSTORE POP POP SWAP1 POP DUP1 PUSH1 0x20 ADD MLOAD DUP2 PUSH1 0x40 ADD MLOAD LT ISZERO SWAP2 POP POP SWAP3 SWAP2 POP POP JUMP JUMPDEST PUSH1 0x0 DUP1 CALLER PUSH20 0xFFFFFFFFFFFFFFFFFFFFFFFFFFFFFFFFFFFFFFFF AND PUSH20 0xFFFFFFFFFFFFFFFFFFFFFFFFFFFFFFFFFFFFFFFF AND DUP2 MSTORE PUSH1 0x20 ADD SWAP1 DUP2 MSTORE PUSH1 0x20 ADD PUSH1 0x0 KECCAK256 DUP1 SLOAD SWAP1 POP DUP2 LT PUSH2 0x14F9 JUMPI PUSH1 0x40 MLOAD PUSH32 0x8C379A000000000000000000000000000000000000000000000000000000000 DUP2 MSTORE PUSH1 0x4 ADD PUSH2 0x14F0 SWAP1 PUSH2 0x2413 JUMP JUMPDEST PUSH1 0x40 MLOAD DUP1 SWAP2 SUB SWAP1 REVERT JUMPDEST PUSH1 0x0 DUP1 PUSH1 0x0 CALLER PUSH20 0xFFFFFFFFFFFFFFFFFFFFFFFFFFFFFFFFFFFFFFFF AND PUSH20 0xFFFFFFFFFFFFFFFFFFFFFFFFFFFFFFFFFFFFFFFF AND DUP2 MSTORE PUSH1 0x20 ADD SWAP1 DUP2 MSTORE PUSH1 0x20 ADD PUSH1 0x0 KECCAK256 DUP3 DUP2 SLOAD DUP2 LT PUSH2 0x154B JUMPI PUSH2 0x154A PUSH2 0x2433 JUMP JUMPDEST JUMPDEST SWAP1 PUSH1 0x0 MSTORE PUSH1 0x20 PUSH1 0x0 KECCAK256 SWAP1 PUSH1 0x6 MUL ADD SWAP1 POP DUP1 PUSH1 0x4 ADD PUSH1 0x0 SWAP1 SLOAD SWAP1 PUSH2 0x100 EXP SWAP1 DIV PUSH1 0xFF AND PUSH2 0x15AC JUMPI PUSH1 0x40 MLOAD PUSH32 0x8C379A000000000000000000000000000000000000000000000000000000000 DUP2 MSTORE PUSH1 0x4 ADD PUSH2 0x15A3 SWAP1 PUSH2 0x27E5 JUMP JUMPDEST PUSH1 0x40 MLOAD DUP1 SWAP2 SUB SWAP1 REVERT JUMPDEST PUSH1 0x0 DUP2 PUSH1 0x2 ADD SLOAD SWAP1 POP PUSH1 0x0 DUP3 PUSH1 0x4 ADD PUSH1 0x0 PUSH2 0x100 EXP DUP2 SLOAD DUP2 PUSH1 0xFF MUL NOT AND SWAP1 DUP4 ISZERO ISZERO MUL OR SWAP1 SSTORE POP PUSH1 0x0 DUP3 PUSH1 0x2 ADD DUP2 SWAP1 SSTORE POP DUP1 PUSH1 0x1 PUSH1 0x0 CALLER PUSH20 0xFFFFFFFFFFFFFFFFFFFFFFFFFFFFFFFFFFFFFFFF AND PUSH20 0xFFFFFFFFFFFFFFFFFFFFFFFFFFFFFFFFFFFFFFFF AND DUP2 MSTORE PUSH1 0x20 ADD SWAP1 DUP2 MSTORE PUSH1 0x20 ADD PUSH1 0x0 KECCAK256 PUSH1 0x0 DUP3 DUP3 SLOAD PUSH2 0x162B SWAP2 SWAP1 PUSH2 0x2355 JUMP JUMPDEST SWAP3 POP POP DUP2 SWAP1 SSTORE POP PUSH1 0x0 DUP2 GT ISZERO PUSH2 0x16E9 JUMPI PUSH1 0x0 CALLER PUSH20 0xFFFFFFFFFFFFFFFFFFFFFFFFFFFFFFFFFFFFFFFF AND DUP3 PUSH1 0x40 MLOAD PUSH2 0x1661 SWAP1 PUSH2 0x265D JUMP JUMPDEST PUSH1 0x0 PUSH1 0x40 MLOAD DUP1 DUP4 SUB DUP2 DUP6 DUP8 GAS CALL SWAP3 POP POP POP RETURNDATASIZE DUP1 PUSH1 0x0 DUP2 EQ PUSH2 0x169E JUMPI PUSH1 0x40 MLOAD SWAP2 POP PUSH1 0x1F NOT PUSH1 0x3F RETURNDATASIZE ADD AND DUP3 ADD PUSH1 0x40 MSTORE RETURNDATASIZE DUP3 MSTORE RETURNDATASIZE PUSH1 0x0 PUSH1 0x20 DUP5 ADD RETURNDATACOPY PUSH2 0x16A3 JUMP JUMPDEST PUSH1 0x60 SWAP2 POP JUMPDEST POP POP SWAP1 POP DUP1 PUSH2 0x16E7 JUMPI PUSH1 0x40 MLOAD PUSH32 0x8C379A000000000000000000000000000000000000000000000000000000000 DUP2 MSTORE PUSH1 0x4 ADD PUSH2 0x16DE SWAP1 PUSH2 0x26BE JUMP JUMPDEST PUSH1 0x40 MLOAD DUP1 SWAP2 SUB SWAP1 REVERT JUMPDEST POP JUMPDEST DUP3 CALLER PUSH20 0xFFFFFFFFFFFFFFFFFFFFFFFFFFFFFFFFFFFFFFFF AND PUSH32 0xAB8D6627D8BB77BAEA003F183A1FE533202E576795E8D416DA359F07A44F3582 PUSH1 0x40 MLOAD PUSH1 0x40 MLOAD DUP1 SWAP2 SUB SWAP1 LOG3 POP POP POP JUMP JUMPDEST PUSH1 0x40 MLOAD DUP1 PUSH1 0xC0 ADD PUSH1 0x40 MSTORE DUP1 PUSH1 0x60 DUP2 MSTORE PUSH1 0x20 ADD PUSH1 0x0 DUP2 MSTORE PUSH1 0x20 ADD PUSH1 0x0 DUP2 MSTORE PUSH1 0x20 ADD PUSH1 0x0 DUP2 MSTORE PUSH1 0x20 ADD PUSH1 0x0 ISZERO ISZERO DUP2 MSTORE PUSH1 0x20 ADD PUSH1 0x0 DUP2 MSTORE POP SWAP1 JUMP JUMPDEST PUSH1 0x0 PUSH1 0x40 MLOAD SWAP1 POP SWAP1 JUMP JUMPDEST PUSH1 0x0 DUP1 REVERT JUMPDEST PUSH1 0x0 DUP1 REVERT JUMPDEST PUSH1 0x0 DUP1 REVERT JUMPDEST PUSH1 0x0 DUP1 REVERT JUMPDEST PUSH1 0x0 PUSH1 0x1F NOT PUSH1 0x1F DUP4 ADD AND SWAP1 POP SWAP2 SWAP1 POP JUMP JUMPDEST PUSH32 0x4E487B7100000000000000000000000000000000000000000000000000000000 PUSH1 0x0 MSTORE PUSH1 0x41 PUSH1 0x4 MSTORE PUSH1 0x24 PUSH1 0x0 REVERT JUMPDEST PUSH2 0x17D1 DUP3 PUSH2 0x1788 JUMP JUMPDEST DUP2 ADD DUP2 DUP2 LT PUSH8 0xFFFFFFFFFFFFFFFF DUP3 GT OR ISZERO PUSH2 0x17F0 JUMPI PUSH2 0x17EF PUSH2 0x1799 JUMP JUMPDEST JUMPDEST DUP1 PUSH1 0x40 MSTORE POP POP POP JUMP JUMPDEST PUSH1 0x0 PUSH2 0x1803 PUSH2 0x176A JUMP JUMPDEST SWAP1 POP PUSH2 0x180F DUP3 DUP3 PUSH2 0x17C8 JUMP JUMPDEST SWAP2 SWAP1 POP JUMP JUMPDEST PUSH1 0x0 PUSH8 0xFFFFFFFFFFFFFFFF DUP3 GT ISZERO PUSH2 0x182F JUMPI PUSH2 0x182E PUSH2 0x1799 JUMP JUMPDEST JUMPDEST PUSH2 0x1838 DUP3 PUSH2 0x1788 JUMP JUMPDEST SWAP1 POP PUSH1 0x20 DUP2 ADD SWAP1 POP SWAP2 SWAP1 POP JUMP JUMPDEST DUP3 DUP2 DUP4 CALLDATACOPY PUSH1 0x0 DUP4 DUP4 ADD MSTORE POP POP POP JUMP JUMPDEST PUSH1 0x0 PUSH2 0x1867 PUSH2 0x1862 DUP5 PUSH2 0x1814 JUMP JUMPDEST PUSH2 0x17F9 JUMP JUMPDEST SWAP1 POP DUP3 DUP2 MSTORE PUSH1 0x20 DUP2 ADD DUP5 DUP5 DUP5 ADD GT ISZERO PUSH2 0x1883 JUMPI PUSH2 0x1882 PUSH2 0x1783 JUMP JUMPDEST JUMPDEST PUSH2 0x188E DUP5 DUP3 DUP6 PUSH2 0x1845 JUMP JUMPDEST POP SWAP4 SWAP3 POP POP POP JUMP JUMPDEST PUSH1 0x0 DUP3 PUSH1 0x1F DUP4 ADD SLT PUSH2 0x18AB JUMPI PUSH2 0x18AA PUSH2 0x177E JUMP JUMPDEST JUMPDEST DUP2 CALLDATALOAD PUSH2 0x18BB DUP5 DUP3 PUSH1 0x20 DUP7 ADD PUSH2 0x1854 JUMP JUMPDEST SWAP2 POP POP SWAP3 SWAP2 POP POP JUMP JUMPDEST PUSH1 0x0 DUP2 SWAP1 POP SWAP2 SWAP1 POP JUMP JUMPDEST PUSH2 0x18D7 DUP2 PUSH2 0x18C4 JUMP JUMPDEST DUP2 EQ PUSH2 0x18E2 JUMPI PUSH1 0x0 DUP1 REVERT JUMPDEST POP JUMP JUMPDEST PUSH1 0x0 DUP2 CALLDATALOAD SWAP1 POP PUSH2 0x18F4 DUP2 PUSH2 0x18CE JUMP JUMPDEST SWAP3 SWAP2 POP POP JUMP JUMPDEST PUSH1 0x0 DUP1 PUSH1 0x0 PUSH1 0x60 DUP5 DUP7 SUB SLT ISZERO PUSH2 0x1913 JUMPI PUSH2 0x1912 PUSH2 0x1774 JUMP JUMPDEST JUMPDEST PUSH1 0x0 DUP5 ADD CALLDATALOAD PUSH8 0xFFFFFFFFFFFFFFFF DUP2 GT ISZERO PUSH2 0x1931 JUMPI PUSH2 0x1930 PUSH2 0x1779 JUMP JUMPDEST JUMPDEST PUSH2 0x193D DUP7 DUP3 DUP8 ADD PUSH2 0x1896 JUMP JUMPDEST SWAP4 POP POP PUSH1 0x20 PUSH2 0x194E DUP7 DUP3 DUP8 ADD PUSH2 0x18E5 JUMP JUMPDEST SWAP3 POP POP PUSH1 0x40 PUSH2 0x195F DUP7 DUP3 DUP8 ADD PUSH2 0x18E5 JUMP JUMPDEST SWAP2 POP POP SWAP3 POP SWAP3 POP SWAP3 JUMP JUMPDEST PUSH1 0x0 PUSH20 0xFFFFFFFFFFFFFFFFFFFFFFFFFFFFFFFFFFFFFFFF DUP3 AND SWAP1 POP SWAP2 SWAP1 POP JUMP JUMPDEST PUSH1 0x0 PUSH2 0x1994 DUP3 PUSH2 0x1969 JUMP JUMPDEST SWAP1 POP SWAP2 SWAP1 POP JUMP JUMPDEST PUSH2 0x19A4 DUP2 PUSH2 0x1989 JUMP JUMPDEST DUP2 EQ PUSH2 0x19AF JUMPI PUSH1 0x0 DUP1 REVERT JUMPDEST POP JUMP JUMPDEST PUSH1 0x0 DUP2 CALLDATALOAD SWAP1 POP PUSH2 0x19C1 DUP2 PUSH2 0x199B JUMP JUMPDEST SWAP3 SWAP2 POP POP JUMP JUMPDEST PUSH1 0x0 PUSH1 0x20 DUP3 DUP5 SUB SLT ISZERO PUSH2 0x19DD JUMPI PUSH2 0x19DC PUSH2 0x1774 JUMP JUMPDEST JUMPDEST PUSH1 0x0 PUSH2 0x19EB DUP5 DUP3 DUP6 ADD PUSH2 0x19B2 JUMP JUMPDEST SWAP2 POP POP SWAP3 SWAP2 POP POP JUMP JUMPDEST PUSH2 0x19FD DUP2 PUSH2 0x18C4 JUMP JUMPDEST DUP3 MSTORE POP POP JUMP JUMPDEST PUSH1 0x0 PUSH1 0x20 DUP3 ADD SWAP1 POP PUSH2 0x1A18 PUSH1 0x0 DUP4 ADD DUP5 PUSH2 0x19F4 JUMP JUMPDEST SWAP3 SWAP2 POP POP JUMP JUMPDEST PUSH1 0x0 DUP1 PUSH1 0x40 DUP4 DUP6 SUB SLT ISZERO PUSH2 0x1A35 JUMPI PUSH2 0x1A34 PUSH2 0x1774 JUMP JUMPDEST JUMPDEST PUSH1 0x0 PUSH2 0x1A43 DUP6 DUP3 DUP7 ADD PUSH2 0x19B2 JUMP JUMPDEST SWAP3 POP POP PUSH1 0x20 PUSH2 0x1A54 DUP6 DUP3 DUP7 ADD PUSH2 0x18E5 JUMP JUMPDEST SWAP2 POP POP SWAP3 POP SWAP3 SWAP1 POP JUMP JUMPDEST PUSH1 0x0 DUP2 MLOAD SWAP1 POP SWAP2 SWAP1 POP JUMP JUMPDEST PUSH1 0x0 DUP3 DUP3 MSTORE PUSH1 0x20 DUP3 ADD SWAP1 POP SWAP3 SWAP2 POP POP JUMP JUMPDEST PUSH1 0x0 DUP2 SWAP1 POP PUSH1 0x20 DUP3 ADD SWAP1 POP SWAP2 SWAP1 POP JUMP JUMPDEST PUSH1 0x0 DUP2 MLOAD SWAP1 POP SWAP2 SWAP1 POP JUMP JUMPDEST PUSH1 0x0 DUP3 DUP3 MSTORE PUSH1 0x20 DUP3 ADD SWAP1 POP SWAP3 SWAP2 POP POP JUMP JUMPDEST PUSH1 0x0 JUMPDEST DUP4 DUP2 LT ISZERO PUSH2 0x1AC4 JUMPI DUP1 DUP3 ADD MLOAD DUP2 DUP5 ADD MSTORE PUSH1 0x20 DUP2 ADD SWAP1 POP PUSH2 0x1AA9 JUMP JUMPDEST PUSH1 0x0 DUP5 DUP5 ADD MSTORE POP POP POP POP JUMP JUMPDEST PUSH1 0x0 PUSH2 0x1ADB DUP3 PUSH2 0x1A8A JUMP JUMPDEST PUSH2 0x1AE5 DUP2 DUP6 PUSH2 0x1A95 JUMP JUMPDEST SWAP4 POP PUSH2 0x1AF5 DUP2 DUP6 PUSH1 0x20 DUP7 ADD PUSH2 0x1AA6 JUMP JUMPDEST PUSH2 0x1AFE DUP2 PUSH2 0x1788 JUMP JUMPDEST DUP5 ADD SWAP2 POP POP SWAP3 SWAP2 POP POP JUMP JUMPDEST PUSH2 0x1B12 DUP2 PUSH2 0x18C4 JUMP JUMPDEST DUP3 MSTORE POP POP JUMP JUMPDEST PUSH1 0x0 DUP2 ISZERO ISZERO SWAP1 POP SWAP2 SWAP1 POP JUMP JUMPDEST PUSH2 0x1B2D DUP2 PUSH2 0x1B18 JUMP JUMPDEST DUP3 MSTORE POP POP JUMP JUMPDEST PUSH1 0x0 PUSH1 0xC0 DUP4 ADD PUSH1 0x0 DUP4 ADD MLOAD DUP5 DUP3 SUB PUSH1 0x0 DUP7 ADD MSTORE PUSH2 0x1B50 DUP3 DUP3 PUSH2 0x1AD0 JUMP JUMPDEST SWAP2 POP POP PUSH1 0x20 DUP4 ADD MLOAD PUSH2 0x1B65 PUSH1 0x20 DUP7 ADD DUP3 PUSH2 0x1B09 JUMP JUMPDEST POP PUSH1 0x40 DUP4 ADD MLOAD PUSH2 0x1B78 PUSH1 0x40 DUP7 ADD DUP3 PUSH2 0x1B09 JUMP JUMPDEST POP PUSH1 0x60 DUP4 ADD MLOAD PUSH2 0x1B8B PUSH1 0x60 DUP7 ADD DUP3 PUSH2 0x1B09 JUMP JUMPDEST POP PUSH1 0x80 DUP4 ADD MLOAD PUSH2 0x1B9E PUSH1 0x80 DUP7 ADD DUP3 PUSH2 0x1B24 JUMP JUMPDEST POP PUSH1 0xA0 DUP4 ADD MLOAD PUSH2 0x1BB1 PUSH1 0xA0 DUP7 ADD DUP3 PUSH2 0x1B09 JUMP JUMPDEST POP DUP1 SWAP2 POP POP SWAP3 SWAP2 POP POP JUMP JUMPDEST PUSH1 0x0 PUSH2 0x1BC8 DUP4 DUP4 PUSH2 0x1B33 JUMP JUMPDEST SWAP1 POP SWAP3 SWAP2 POP POP JUMP JUMPDEST PUSH1 0x0 PUSH1 0x20 DUP3 ADD SWAP1 POP SWAP2 SWAP1 POP JUMP JUMPDEST PUSH1 0x0 PUSH2 0x1BE8 DUP3 PUSH2 0x1A5E JUMP JUMPDEST PUSH2 0x1BF2 DUP2 DUP6 PUSH2 0x1A69 JUMP JUMPDEST SWAP4 POP DUP4 PUSH1 0x20 DUP3 MUL DUP6 ADD PUSH2 0x1C04 DUP6 PUSH2 0x1A7A JUMP JUMPDEST DUP1 PUSH1 0x0 JUMPDEST DUP6 DUP2 LT ISZERO PUSH2 0x1C40 JUMPI DUP5 DUP5 SUB DUP10 MSTORE DUP2 MLOAD PUSH2 0x1C21 DUP6 DUP3 PUSH2 0x1BBC JUMP JUMPDEST SWAP5 POP PUSH2 0x1C2C DUP4 PUSH2 0x1BD0 JUMP JUMPDEST SWAP3 POP PUSH1 0x20 DUP11 ADD SWAP10 POP POP PUSH1 0x1 DUP2 ADD SWAP1 POP PUSH2 0x1C08 JUMP JUMPDEST POP DUP3 SWAP8 POP DUP8 SWAP6 POP POP POP POP POP POP SWAP3 SWAP2 POP POP JUMP JUMPDEST PUSH1 0x0 PUSH1 0x20 DUP3 ADD SWAP1 POP DUP2 DUP2 SUB PUSH1 0x0 DUP4 ADD MSTORE PUSH2 0x1C6C DUP2 DUP5 PUSH2 0x1BDD JUMP JUMPDEST SWAP1 POP SWAP3 SWAP2 POP POP JUMP JUMPDEST PUSH1 0x0 DUP1 PUSH1 0x40 DUP4 DUP6 SUB SLT ISZERO PUSH2 0x1C8B JUMPI PUSH2 0x1C8A PUSH2 0x1774 JUMP JUMPDEST JUMPDEST PUSH1 0x0 PUSH2 0x1C99 DUP6 DUP3 DUP7 ADD PUSH2 0x18E5 JUMP JUMPDEST SWAP3 POP POP PUSH1 0x20 PUSH2 0x1CAA DUP6 DUP3 DUP7 ADD PUSH2 0x18E5 JUMP JUMPDEST SWAP2 POP POP SWAP3 POP SWAP3 SWAP1 POP JUMP JUMPDEST PUSH1 0x0 DUP3 DUP3 MSTORE PUSH1 0x20 DUP3 ADD SWAP1 POP SWAP3 SWAP2 POP POP JUMP JUMPDEST PUSH1 0x0 PUSH2 0x1CD0 DUP3 PUSH2 0x1A8A JUMP JUMPDEST PUSH2 0x1CDA DUP2 DUP6 PUSH2 0x1CB4 JUMP JUMPDEST SWAP4 POP PUSH2 0x1CEA DUP2 DUP6 PUSH1 0x20 DUP7 ADD PUSH2 0x1AA6 JUMP JUMPDEST PUSH2 0x1CF3 DUP2 PUSH2 0x1788 JUMP JUMPDEST DUP5 ADD SWAP2 POP POP SWAP3 SWAP2 POP POP JUMP JUMPDEST PUSH2 0x1D07 DUP2 PUSH2 0x1B18 JUMP JUMPDEST DUP3 MSTORE POP POP JUMP JUMPDEST PUSH1 0x0 PUSH1 0xC0 DUP3 ADD SWAP1 POP DUP2 DUP2 SUB PUSH1 0x0 DUP4 ADD MSTORE PUSH2 0x1D27 DUP2 DUP10 PUSH2 0x1CC5 JUMP JUMPDEST SWAP1 POP PUSH2 0x1D36 PUSH1 0x20 DUP4 ADD DUP9 PUSH2 0x19F4 JUMP JUMPDEST PUSH2 0x1D43 PUSH1 0x40 DUP4 ADD DUP8 PUSH2 0x19F4 JUMP JUMPDEST PUSH2 0x1D50 PUSH1 0x60 DUP4 ADD DUP7 PUSH2 0x19F4 JUMP JUMPDEST PUSH2 0x1D5D PUSH1 0x80 DUP4 ADD DUP6 PUSH2 0x1CFE JUMP JUMPDEST PUSH2 0x1D6A PUSH1 0xA0 DUP4 ADD DUP5 PUSH2 0x19F4 JUMP JUMPDEST SWAP8 SWAP7 POP POP POP POP POP POP POP JUMP JUMPDEST PUSH1 0x0 PUSH1 0x20 DUP3 DUP5 SUB SLT ISZERO PUSH2 0x1D8B JUMPI PUSH2 0x1D8A PUSH2 0x1774 JUMP JUMPDEST JUMPDEST PUSH1 0x0 PUSH2 0x1D99 DUP5 DUP3 DUP6 ADD PUSH2 0x18E5 JUMP JUMPDEST SWAP2 POP POP SWAP3 SWAP2 POP POP JUMP JUMPDEST PUSH1 0x0 PUSH1 0xC0 DUP4 ADD PUSH1 0x0 DUP4 ADD MLOAD DUP5 DUP3 SUB PUSH1 0x0 DUP7 ADD MSTORE PUSH2 0x1DBF DUP3 DUP3 PUSH2 0x1AD0 JUMP JUMPDEST SWAP2 POP POP PUSH1 0x20 DUP4 ADD MLOAD PUSH2 0x1DD4 PUSH1 0x20 DUP7 ADD DUP3 PUSH2 0x1B09 JUMP JUMPDEST POP PUSH1 0x40 DUP4 ADD MLOAD PUSH2 0x1DE7 PUSH1 0x40 DUP7 ADD DUP3 PUSH2 0x1B09 JUMP JUMPDEST POP PUSH1 0x60 DUP4 ADD MLOAD PUSH2 0x1DFA PUSH1 0x60 DUP7 ADD DUP3 PUSH2 0x1B09 JUMP JUMPDEST POP PUSH1 0x80 DUP4 ADD MLOAD PUSH2 0x1E0D PUSH1 0x80 DUP7 ADD DUP3 PUSH2 0x1B24 JUMP JUMPDEST POP PUSH1 0xA0 DUP4 ADD MLOAD PUSH2 0x1E20 PUSH1 0xA0 DUP7 ADD DUP3 PUSH2 0x1B09 JUMP JUMPDEST POP DUP1 SWAP2 POP POP SWAP3 SWAP2 POP POP JUMP JUMPDEST PUSH1 0x0 PUSH1 0x20 DUP3 ADD SWAP1 POP DUP2 DUP2 SUB PUSH1 0x0 DUP4 ADD MSTORE PUSH2 0x1E45 DUP2 DUP5 PUSH2 0x1DA2 JUMP JUMPDEST SWAP1 POP SWAP3 SWAP2 POP POP JUMP JUMPDEST PUSH1 0x0 PUSH1 0x20 DUP3 ADD SWAP1 POP PUSH2 0x1E62 PUSH1 0x0 DUP4 ADD DUP5 PUSH2 0x1CFE JUMP JUMPDEST SWAP3 SWAP2 POP POP JUMP JUMPDEST PUSH32 0x54617267657420616D6F756E74206D7573742062652067726561746572207468 PUSH1 0x0 DUP3 ADD MSTORE PUSH32 0x616E203000000000000000000000000000000000000000000000000000000000 PUSH1 0x20 DUP3 ADD MSTORE POP JUMP JUMPDEST PUSH1 0x0 PUSH2 0x1EC4 PUSH1 0x24 DUP4 PUSH2 0x1CB4 JUMP JUMPDEST SWAP2 POP PUSH2 0x1ECF DUP3 PUSH2 0x1E68 JUMP JUMPDEST PUSH1 0x40 DUP3 ADD SWAP1 POP SWAP2 SWAP1 POP JUMP JUMPDEST PUSH1 0x0 PUSH1 0x20 DUP3 ADD SWAP1 POP DUP2 DUP2 SUB PUSH1 0x0 DUP4 ADD MSTORE PUSH2 0x1EF3 DUP2 PUSH2 0x1EB7 JUMP JUMPDEST SWAP1 POP SWAP2 SWAP1 POP JUMP JUMPDEST PUSH32 0x4475726174696F6E206D7573742062652067726561746572207468616E203000 PUSH1 0x0 DUP3 ADD MSTORE POP JUMP JUMPDEST PUSH1 0x0 PUSH2 0x1F30 PUSH1 0x1F DUP4 PUSH2 0x1CB4 JUMP JUMPDEST SWAP2 POP PUSH2 0x1F3B DUP3 PUSH2 0x1EFA JUMP JUMPDEST PUSH1 0x20 DUP3 ADD SWAP1 POP SWAP2 SWAP1 POP JUMP JUMPDEST PUSH1 0x0 PUSH1 0x20 DUP3 ADD SWAP1 POP DUP2 DUP2 SUB PUSH1 0x0 DUP4 ADD MSTORE PUSH2 0x1F5F DUP2 PUSH2 0x1F23 JUMP JUMPDEST SWAP1 POP SWAP2 SWAP1 POP JUMP JUMPDEST PUSH32 0x476F616C206E616D652063616E6E6F7420626520656D70747900000000000000 PUSH1 0x0 DUP3 ADD MSTORE POP JUMP JUMPDEST PUSH1 0x0 PUSH2 0x1F9C PUSH1 0x19 DUP4 PUSH2 0x1CB4 JUMP JUMPDEST SWAP2 POP PUSH2 0x1FA7 DUP3 PUSH2 0x1F66 JUMP JUMPDEST PUSH1 0x20 DUP3 ADD SWAP1 POP SWAP2 SWAP1 POP JUMP JUMPDEST PUSH1 0x0 PUSH1 0x20 DUP3 ADD SWAP1 POP DUP2 DUP2 SUB PUSH1 0x0 DUP4 ADD MSTORE PUSH2 0x1FCB DUP2 PUSH2 0x1F8F JUMP JUMPDEST SWAP1 POP SWAP2 SWAP1 POP JUMP JUMPDEST PUSH32 0x4E487B7100000000000000000000000000000000000000000000000000000000 PUSH1 0x0 MSTORE PUSH1 0x11 PUSH1 0x4 MSTORE PUSH1 0x24 PUSH1 0x0 REVERT JUMPDEST PUSH1 0x0 PUSH2 0x200C DUP3 PUSH2 0x18C4 JUMP JUMPDEST SWAP2 POP PUSH2 0x2017 DUP4 PUSH2 0x18C4 JUMP JUMPDEST SWAP3 POP DUP3 DUP3 MUL PUSH2 0x2025 DUP2 PUSH2 0x18C4 JUMP JUMPDEST SWAP2 POP DUP3 DUP3 DIV DUP5 EQ DUP4 ISZERO OR PUSH2 0x203C JUMPI PUSH2 0x203B PUSH2 0x1FD2 JUMP JUMPDEST JUMPDEST POP SWAP3 SWAP2 POP POP JUMP JUMPDEST PUSH1 0x0 PUSH2 0x204E DUP3 PUSH2 0x18C4 JUMP JUMPDEST SWAP2 POP PUSH2 0x2059 DUP4 PUSH2 0x18C4 JUMP JUMPDEST SWAP3 POP DUP3 DUP3 ADD SWAP1 POP DUP1 DUP3 GT ISZERO PUSH2 0x2071 JUMPI PUSH2 0x2070 PUSH2 0x1FD2 JUMP JUMPDEST JUMPDEST SWAP3 SWAP2 POP POP JUMP JUMPDEST PUSH32 0x4E487B7100000000000000000000000000000000000000000000000000000000 PUSH1 0x0 MSTORE PUSH1 0x22 PUSH1 0x4 MSTORE PUSH1 0x24 PUSH1 0x0 REVERT JUMPDEST PUSH1 0x0 PUSH1 0x2 DUP3 DIV SWAP1 POP PUSH1 0x1 DUP3 AND DUP1 PUSH2 0x20BE JUMPI PUSH1 0x7F DUP3 AND SWAP2 POP JUMPDEST PUSH1 0x20 DUP3 LT DUP2 SUB PUSH2 0x20D1 JUMPI PUSH2 0x20D0 PUSH2 0x2077 JUMP JUMPDEST JUMPDEST POP SWAP2 SWAP1 POP JUMP JUMPDEST PUSH1 0x0 DUP2 SWAP1 POP DUP2 PUSH1 0x0 MSTORE PUSH1 0x20 PUSH1 0x0 KECCAK256 SWAP1 POP SWAP2 SWAP1 POP JUMP JUMPDEST PUSH1 0x0 PUSH1 0x20 PUSH1 0x1F DUP4 ADD DIV SWAP1 POP SWAP2 SWAP1 POP JUMP JUMPDEST PUSH1 0x0 DUP3 DUP3 SHL SWAP1 POP SWAP3 SWAP2 POP POP JUMP JUMPDEST PUSH1 0x0 PUSH1 0x8 DUP4 MUL PUSH2 0x2139 PUSH32 0xFFFFFFFFFFFFFFFFFFFFFFFFFFFFFFFFFFFFFFFFFFFFFFFFFFFFFFFFFFFFFFFF DUP3 PUSH2 0x20FC JUMP JUMPDEST PUSH2 0x2143 DUP7 DUP4 PUSH2 0x20FC JUMP JUMPDEST SWAP6 POP DUP1 NOT DUP5 AND SWAP4 POP DUP1 DUP7 AND DUP5 OR SWAP3 POP POP POP SWAP4 SWAP3 POP POP POP JUMP JUMPDEST PUSH1 0x0 DUP2 SWAP1 POP SWAP2 SWAP1 POP JUMP JUMPDEST PUSH1 0x0 PUSH2 0x2180 PUSH2 0x217B PUSH2 0x2176 DUP5 PUSH2 0x18C4 JUMP JUMPDEST PUSH2 0x215B JUMP JUMPDEST PUSH2 0x18C4 JUMP JUMPDEST SWAP1 POP SWAP2 SWAP1 POP JUMP JUMPDEST PUSH1 0x0 DUP2 SWAP1 POP SWAP2 SWAP1 POP JUMP JUMPDEST PUSH2 0x219A DUP4 PUSH2 0x2165 JUMP JUMPDEST PUSH2 0x21AE PUSH2 0x21A6 DUP3 PUSH2 0x2187 JUMP JUMPDEST DUP5 DUP5 SLOAD PUSH2 0x2109 JUMP JUMPDEST DUP3 SSTORE POP POP POP POP JUMP JUMPDEST PUSH1 0x0 SWAP1 JUMP JUMPDEST PUSH2 0x21C3 PUSH2 0x21B6 JUMP JUMPDEST PUSH2 0x21CE DUP2 DUP5 DUP5 PUSH2 0x2191 JUMP JUMPDEST POP POP POP JUMP JUMPDEST JUMPDEST DUP2 DUP2 LT ISZERO PUSH2 0x21F2 JUMPI PUSH2 0x21E7 PUSH1 0x0 DUP3 PUSH2 0x21BB JUMP JUMPDEST PUSH1 0x1 DUP2 ADD SWAP1 POP PUSH2 0x21D4 JUMP JUMPDEST POP POP JUMP JUMPDEST PUSH1 0x1F DUP3 GT ISZERO PUSH2 0x2237 JUMPI PUSH2 0x2208 DUP2 PUSH2 0x20D7 JUMP JUMPDEST PUSH2 0x2211 DUP5 PUSH2 0x20EC JUMP JUMPDEST DUP2 ADD PUSH1 0x20 DUP6 LT ISZERO PUSH2 0x2220 JUMPI DUP2 SWAP1 POP JUMPDEST PUSH2 0x2234 PUSH2 0x222C DUP6 PUSH2 0x20EC JUMP JUMPDEST DUP4 ADD DUP3 PUSH2 0x21D3 JUMP JUMPDEST POP POP JUMPDEST POP POP POP JUMP JUMPDEST PUSH1 0x0 DUP3 DUP3 SHR SWAP1 POP SWAP3 SWAP2 POP POP JUMP JUMPDEST PUSH1 0x0 PUSH2 0x225A PUSH1 0x0 NOT DUP5 PUSH1 0x8 MUL PUSH2 0x223C JUMP JUMPDEST NOT DUP1 DUP4 AND SWAP2 POP POP SWAP3 SWAP2 POP POP JUMP JUMPDEST PUSH1 0x0 PUSH2 0x2273 DUP4 DUP4 PUSH2 0x2249 JUMP JUMPDEST SWAP2 POP DUP3 PUSH1 0x2 MUL DUP3 OR SWAP1 POP SWAP3 SWAP2 POP POP JUMP JUMPDEST PUSH2 0x228C DUP3 PUSH2 0x1A8A JUMP JUMPDEST PUSH8 0xFFFFFFFFFFFFFFFF DUP2 GT ISZERO PUSH2 0x22A5 JUMPI PUSH2 0x22A4 PUSH2 0x1799 JUMP JUMPDEST JUMPDEST PUSH2 0x22AF DUP3 SLOAD PUSH2 0x20A6 JUMP JUMPDEST PUSH2 0x22BA DUP3 DUP3 DUP6 PUSH2 0x21F6 JUMP JUMPDEST PUSH1 0x0 PUSH1 0x20 SWAP1 POP PUSH1 0x1F DUP4 GT PUSH1 0x1 DUP2 EQ PUSH2 0x22ED JUMPI PUSH1 0x0 DUP5 ISZERO PUSH2 0x22DB JUMPI DUP3 DUP8 ADD MLOAD SWAP1 POP JUMPDEST PUSH2 0x22E5 DUP6 DUP3 PUSH2 0x2267 JUMP JUMPDEST DUP7 SSTORE POP PUSH2 0x234D JUMP JUMPDEST PUSH1 0x1F NOT DUP5 AND PUSH2 0x22FB DUP7 PUSH2 0x20D7 JUMP JUMPDEST PUSH1 0x0 JUMPDEST DUP3 DUP2 LT ISZERO PUSH2 0x2323 JUMPI DUP5 DUP10 ADD MLOAD DUP3 SSTORE PUSH1 0x1 DUP3 ADD SWAP2 POP PUSH1 0x20 DUP6 ADD SWAP5 POP PUSH1 0x20 DUP2 ADD SWAP1 POP PUSH2 0x22FE JUMP JUMPDEST DUP7 DUP4 LT ISZERO PUSH2 0x2340 JUMPI DUP5 DUP10 ADD MLOAD PUSH2 0x233C PUSH1 0x1F DUP10 AND DUP3 PUSH2 0x2249 JUMP JUMPDEST DUP4 SSTORE POP JUMPDEST PUSH1 0x1 PUSH1 0x2 DUP9 MUL ADD DUP9 SSTORE POP POP POP JUMPDEST POP POP POP POP POP POP JUMP JUMPDEST PUSH1 0x0 PUSH2 0x2360 DUP3 PUSH2 0x18C4 JUMP JUMPDEST SWAP2 POP PUSH2 0x236B DUP4 PUSH2 0x18C4 JUMP JUMPDEST SWAP3 POP DUP3 DUP3 SUB SWAP1 POP DUP2 DUP2 GT ISZERO PUSH2 0x2383 JUMPI PUSH2 0x2382 PUSH2 0x1FD2 JUMP JUMPDEST JUMPDEST SWAP3 SWAP2 POP POP JUMP JUMPDEST PUSH1 0x0 PUSH1 0x60 DUP3 ADD SWAP1 POP DUP2 DUP2 SUB PUSH1 0x0 DUP4 ADD MSTORE PUSH2 0x23A3 DUP2 DUP7 PUSH2 0x1CC5 JUMP JUMPDEST SWAP1 POP PUSH2 0x23B2 PUSH1 0x20 DUP4 ADD DUP6 PUSH2 0x19F4 JUMP JUMPDEST PUSH2 0x23BF PUSH1 0x40 DUP4 ADD DUP5 PUSH2 0x19F4 JUMP JUMPDEST SWAP5 SWAP4 POP POP POP POP JUMP JUMPDEST PUSH32 0x496E76616C696420676F616C2049440000000000000000000000000000000000 PUSH1 0x0 DUP3 ADD MSTORE POP JUMP JUMPDEST PUSH1 0x0 PUSH2 0x23FD PUSH1 0xF DUP4 PUSH2 0x1CB4 JUMP JUMPDEST SWAP2 POP PUSH2 0x2408 DUP3 PUSH2 0x23C7 JUMP JUMPDEST PUSH1 0x20 DUP3 ADD SWAP1 POP SWAP2 SWAP1 POP JUMP JUMPDEST PUSH1 0x0 PUSH1 0x20 DUP3 ADD SWAP1 POP DUP2 DUP2 SUB PUSH1 0x0 DUP4 ADD MSTORE PUSH2 0x242C DUP2 PUSH2 0x23F0 JUMP JUMPDEST SWAP1 POP SWAP2 SWAP1 POP JUMP JUMPDEST PUSH32 0x4E487B7100000000000000000000000000000000000000000000000000000000 PUSH1 0x0 MSTORE PUSH1 0x32 PUSH1 0x4 MSTORE PUSH1 0x24 PUSH1 0x0 REVERT JUMPDEST PUSH32 0x4E487B7100000000000000000000000000000000000000000000000000000000 PUSH1 0x0 MSTORE PUSH1 0x12 PUSH1 0x4 MSTORE PUSH1 0x24 PUSH1 0x0 REVERT JUMPDEST PUSH1 0x0 PUSH2 0x249C DUP3 PUSH2 0x18C4 JUMP JUMPDEST SWAP2 POP PUSH2 0x24A7 DUP4 PUSH2 0x18C4 JUMP JUMPDEST SWAP3 POP DUP3 PUSH2 0x24B7 JUMPI PUSH2 0x24B6 PUSH2 0x2462 JUMP JUMPDEST JUMPDEST DUP3 DUP3 DIV SWAP1 POP SWAP3 SWAP2 POP POP JUMP JUMPDEST PUSH32 0x5769746864726177616C20616D6F756E74206D75737420626520677265617465 PUSH1 0x0 DUP3 ADD MSTORE PUSH32 0x72207468616E2030000000000000000000000000000000000000000000000000 PUSH1 0x20 DUP3 ADD MSTORE POP JUMP JUMPDEST PUSH1 0x0 PUSH2 0x251E PUSH1 0x28 DUP4 PUSH2 0x1CB4 JUMP JUMPDEST SWAP2 POP PUSH2 0x2529 DUP3 PUSH2 0x24C2 JUMP JUMPDEST PUSH1 0x40 DUP3 ADD SWAP1 POP SWAP2 SWAP1 POP JUMP JUMPDEST PUSH1 0x0 PUSH1 0x20 DUP3 ADD SWAP1 POP DUP2 DUP2 SUB PUSH1 0x0 DUP4 ADD MSTORE PUSH2 0x254D DUP2 PUSH2 0x2511 JUMP JUMPDEST SWAP1 POP SWAP2 SWAP1 POP JUMP JUMPDEST PUSH32 0x476F616C206973206E6F74206163746976650000000000000000000000000000 PUSH1 0x0 DUP3 ADD MSTORE POP JUMP JUMPDEST PUSH1 0x0 PUSH2 0x258A PUSH1 0x12 DUP4 PUSH2 0x1CB4 JUMP JUMPDEST SWAP2 POP PUSH2 0x2595 DUP3 PUSH2 0x2554 JUMP JUMPDEST PUSH1 0x20 DUP3 ADD SWAP1 POP SWAP2 SWAP1 POP JUMP JUMPDEST PUSH1 0x0 PUSH1 0x20 DUP3 ADD SWAP1 POP DUP2 DUP2 SUB PUSH1 0x0 DUP4 ADD MSTORE PUSH2 0x25B9 DUP2 PUSH2 0x257D JUMP JUMPDEST SWAP1 POP SWAP2 SWAP1 POP JUMP JUMPDEST PUSH32 0x496E73756666696369656E742062616C616E6365000000000000000000000000 PUSH1 0x0 DUP3 ADD MSTORE POP JUMP JUMPDEST PUSH1 0x0 PUSH2 0x25F6 PUSH1 0x14 DUP4 PUSH2 0x1CB4 JUMP JUMPDEST SWAP2 POP PUSH2 0x2601 DUP3 PUSH2 0x25C0 JUMP JUMPDEST PUSH1 0x20 DUP3 ADD SWAP1 POP SWAP2 SWAP1 POP JUMP JUMPDEST PUSH1 0x0 PUSH1 0x20 DUP3 ADD SWAP1 POP DUP2 DUP2 SUB PUSH1 0x0 DUP4 ADD MSTORE PUSH2 0x2625 DUP2 PUSH2 0x25E9 JUMP JUMPDEST SWAP1 POP SWAP2 SWAP1 POP JUMP JUMPDEST PUSH1 0x0 DUP2 SWAP1 POP SWAP3 SWAP2 POP POP JUMP JUMPDEST POP JUMP JUMPDEST PUSH1 0x0 PUSH2 0x2647 PUSH1 0x0 DUP4 PUSH2 0x262C JUMP JUMPDEST SWAP2 POP PUSH2 0x2652 DUP3 PUSH2 0x2637 JUMP JUMPDEST PUSH1 0x0 DUP3 ADD SWAP1 POP SWAP2 SWAP1 POP JUMP JUMPDEST PUSH1 0x0 PUSH2 0x2668 DUP3 PUSH2 0x263A JUMP JUMPDEST SWAP2 POP DUP2 SWAP1 POP SWAP2 SWAP1 POP JUMP JUMPDEST PUSH32 0x5472616E73666572206661696C65640000000000000000000000000000000000 PUSH1 0x0 DUP3 ADD MSTORE POP JUMP JUMPDEST PUSH1 0x0 PUSH2 0x26A8 PUSH1 0xF DUP4 PUSH2 0x1CB4 JUMP JUMPDEST SWAP2 POP PUSH2 0x26B3 DUP3 PUSH2 0x2672 JUMP JUMPDEST PUSH1 0x20 DUP3 ADD SWAP1 POP SWAP2 SWAP1 POP JUMP JUMPDEST PUSH1 0x0 PUSH1 0x20 DUP3 ADD SWAP1 POP DUP2 DUP2 SUB PUSH1 0x0 DUP4 ADD MSTORE PUSH2 0x26D7 DUP2 PUSH2 0x269B JUMP JUMPDEST SWAP1 POP SWAP2 SWAP1 POP JUMP JUMPDEST PUSH1 0x0 PUSH1 0x40 DUP3 ADD SWAP1 POP PUSH2 0x26F3 PUSH1 0x0 DUP4 ADD DUP6 PUSH2 0x19F4 JUMP JUMPDEST PUSH2 0x2700 PUSH1 0x20 DUP4 ADD DUP5 PUSH2 0x19F4 JUMP JUMPDEST SWAP4 SWAP3 POP POP POP JUMP JUMPDEST PUSH32 0x4465706F73697420616D6F756E74206D75737420626520677265617465722074 PUSH1 0x0 DUP3 ADD MSTORE PUSH32 0x68616E2030000000000000000000000000000000000000000000000000000000 PUSH1 0x20 DUP3 ADD MSTORE POP JUMP JUMPDEST PUSH1 0x0 PUSH2 0x2763 PUSH1 0x25 DUP4 PUSH2 0x1CB4 JUMP JUMPDEST SWAP2 POP PUSH2 0x276E DUP3 PUSH2 0x2707 JUMP JUMPDEST PUSH1 0x40 DUP3 ADD SWAP1 POP SWAP2 SWAP1 POP JUMP JUMPDEST PUSH1 0x0 PUSH1 0x20 DUP3 ADD SWAP1 POP DUP2 DUP2 SUB PUSH1 0x0 DUP4 ADD MSTORE PUSH2 0x2792 DUP2 PUSH2 0x2756 JUMP JUMPDEST SWAP1 POP SWAP2 SWAP1 POP JUMP JUMPDEST PUSH32 0x476F616C20697320616C726561647920636C6F73656400000000000000000000 PUSH1 0x0 DUP3 ADD MSTORE POP JUMP JUMPDEST PUSH1 0x0 PUSH2 0x27CF PUSH1 0x16 DUP4 PUSH2 0x1CB4 JUMP JUMPDEST SWAP2 POP PUSH2 0x27DA DUP3 PUSH2 0x2799 JUMP JUMPDEST PUSH1 0x20 DUP3 ADD SWAP1 POP SWAP2 SWAP1 POP JUMP JUMPDEST PUSH1 0x0 PUSH1 0x20 DUP3 ADD SWAP1 POP DUP2 DUP2 SUB PUSH1 0x0 DUP4 ADD MSTORE PUSH2 0x27FE DUP2 PUSH2 0x27C2 JUMP JUMPDEST SWAP1 POP SWAP2 SWAP1 POP JUMP INVALID LOG2 PUSH5 0x6970667358 0x22 SLT KECCAK256 0xB1 0xB3 0xC7 SSTORE POP PUSH27 0xC8557F2C6EBD964DB528DE9B24DCBD307B0195CA216707FF04F864 PUSH20 0x6F6C634300081300330000000000000000000000 "
				},
				"gasEstimates": {
					"creation": {
						"codeDepositCost": "2059800",
						"executionCost": "2185",
						"totalCost": "2061985"
					},
					"external": {
						"closeGoal(uint256)": "infinite",
						"createGoal(string,uint256,uint256)": "infinite",
						"deposit(uint256)": "infinite",
						"getGoal(address,uint256)": "infinite",
						"getGoalCount(address)": "2960",
						"getGoalProgress(address,uint256)": "infinite",
						"getTotalSavings(address)": "2841",
						"getUserGoals(address)": "infinite",
						"isGoalCompleted(address,uint256)": "infinite",
						"totalSavings(address)": "2837",
						"userGoals(address,uint256)": "infinite",
						"withdraw(uint256,uint256)": "infinite"
					}
				},
				"methodIdentifiers": {
					"closeGoal(uint256)": "f51b7156",
					"createGoal(string,uint256,uint256)": "113d2278",
					"deposit(uint256)": "b6b55f25",
					"getGoal(address,uint256)": "bcfb3c03",
					"getGoalCount(address)": "462ba2f7",
					"getGoalProgress(address,uint256)": "31d6aec1",
					"getTotalSavings(address)": "5cb65e62",
					"getUserGoals(address)": "35742c63",
					"isGoalCompleted(address,uint256)": "f462ca93",
					"totalSavings(address)": "2134ec27",
					"userGoals(address,uint256)": "b6b3eedf",
					"withdraw(uint256,uint256)": "441a3e70"
				}
			},
			"storageLayout": {
				"storage": [
					{
						"astId": 21,
						"contract": "CeloSaver.sol:CeloSaver",
						"label": "userGoals",
						"offset": 0,
						"slot": "0",
						"type": "t_mapping(t_address,t_array(t_struct(SavingsGoal)15_storage)dyn_storage)"
					},
					{
						"astId": 25,
						"contract": "CeloSaver.sol:CeloSaver",
						"label": "totalSavings",
						"offset": 0,
						"slot": "1",
						"type": "t_mapping(t_address,t_uint256)"
					}
				],
				"types": {
					"t_address": {
						"encoding": "inplace",
						"label": "address",
						"numberOfBytes": "20"
					},
					"t_array(t_struct(SavingsGoal)15_storage)dyn_storage": {
						"base": "t_struct(SavingsGoal)15_storage",
						"encoding": "dynamic_array",
						"label": "struct CeloSaver.SavingsGoal[]",
						"numberOfBytes": "32"
					},
					"t_bool": {
						"encoding": "inplace",
						"label": "bool",
						"numberOfBytes": "1"
					},
					"t_mapping(t_address,t_array(t_struct(SavingsGoal)15_storage)dyn_storage)": {
						"encoding": "mapping",
						"key": "t_address",
						"label": "mapping(address => struct CeloSaver.SavingsGoal[])",
						"numberOfBytes": "32",
						"value": "t_array(t_struct(SavingsGoal)15_storage)dyn_storage"
					},
					"t_mapping(t_address,t_uint256)": {
						"encoding": "mapping",
						"key": "t_address",
						"label": "mapping(address => uint256)",
						"numberOfBytes": "32",
						"value": "t_uint256"
					},
					"t_string_storage": {
						"encoding": "bytes",
						"label": "string",
						"numberOfBytes": "32"
					},
					"t_struct(SavingsGoal)15_storage": {
						"encoding": "inplace",
						"label": "struct CeloSaver.SavingsGoal",
						"members": [
							{
								"astId": 4,
								"contract": "CeloSaver.sol:CeloSaver",
								"label": "name",
								"offset": 0,
								"slot": "0",
								"type": "t_string_storage"
							},
							{
								"astId": 6,
								"contract": "CeloSaver.sol:CeloSaver",
								"label": "targetAmount",
								"offset": 0,
								"slot": "1",
								"type": "t_uint256"
							},
							{
								"astId": 8,
								"contract": "CeloSaver.sol:CeloSaver",
								"label": "currentAmount",
								"offset": 0,
								"slot": "2",
								"type": "t_uint256"
							},
							{
								"astId": 10,
								"contract": "CeloSaver.sol:CeloSaver",
								"label": "deadline",
								"offset": 0,
								"slot": "3",
								"type": "t_uint256"
							},
							{
								"astId": 12,
								"contract": "CeloSaver.sol:CeloSaver",
								"label": "isActive",
								"offset": 0,
								"slot": "4",
								"type": "t_bool"
							},
							{
								"astId": 14,
								"contract": "CeloSaver.sol:CeloSaver",
								"label": "createdAt",
								"offset": 0,
								"slot": "5",
								"type": "t_uint256"
							}
						],
						"numberOfBytes": "192"
					},
					"t_uint256": {
						"encoding": "inplace",
						"label": "uint256",
						"numberOfBytes": "32"
					}
				}
			},
			"userdoc": {
				"kind": "user",
				"methods": {},
				"notice": "Users can create savings goals and track their progress",
				"version": 1
			}
		}
	}
}